:020000040800F2
:10000000C807002039020008E51D0008CD1C0008C3
:10001000E11D0008F5070008C922000800000000E3
:100020000000000000000000000000001121000896
:10003000F907000800000000292000081521000829
:10004000530200085302000853020008530200083C
:10005000530200085302000853020008530200082C
:10006000530200085302000853020008530200081C
:10007000530200085302000853020008530200080C
:1000800053020008530200085302000853020008FC
:1000900053020008530200085302000853020008EC
:1000A00053020008530200085302000853020008DC
:1000B00053020008530200085302000853020008CC
:1000C00053020008530200085302000853020008BC
:1000D00053020008530200085302000853020008AC
:1000E000530200085302000853020008530200089C
:1000F000530200085302000853020008530200088C
:10010000530200085302000853020008530200087B
:10011000530200085302000853020008530200086B
:10012000530200085302000853020008530200085B
:10013000530200085302000853020008530200084B
:10014000530200085302000853020008530200083B
:10015000530200085302000853020008530200082B
:10016000530200085302000853020008530200081B
:100170005302000853020008530200080000000068
:10018000530200085302000800F002F800F044F89F
:100190000AA090E8000C82448344AAF10107DA45E2
:1001A00001D100F039F8AFF2090EBAE80F0013F0F0
:1001B000010F18BFFB1A43F001031847DC240000AD
:1001C000FC240000103A24BF78C878C1FAD852073E
:1001D00024BF30C830C144BF04680C6070470000C1
:1001E0000023002400250026103A28BF78C1FBD840
:1001F000520728BF30C148BF0B607047642900F028
:10020000EF80782900F02881002070471FB502F0A8
:10021000E5F91FBD10B510BD00F0B1FA1146FFF7AA
:10022000F5FF02F053F800F0CFFA03B4FFF7F2FF46
:1002300003BC00F0D7FA000009488047094800478E
:10024000FEE7FEE7FEE7FEE7FEE7FEE7FEE7FEE786
:10025000FEE7FEE704480549054A064B70470000E3
:10026000C521000889010008C8010020C807002036
:10027000C8030020C803002053EA020C00F0698084
:100280002DE9F04B4FF00006002B1FBFB3FA83F5AA
:1002900003FA05F424FA05F65E4012BF1643B2FADB
:1002A00082F502FA05F4C5F120051EBF22FA05FC0D
:1002B00044EA0C04203556EA044C4FEA144418BFB3
:1002C000641C4FF000084FF00009904271EB030CE2
:1002D00039D3002919BFB1FA81F701FA07F6B0FA4C
:1002E00080F700FA07F6C7F120071EBF20FA07FCC7
:1002F00046EA0C062037B6FBF4FCA7EB0507103FD7
:1003000007F01F0BCBF120062CFA06F60CFA0BFBBC
:1003100044BFB3460026202FA4BF5E464FF0000B1B
:100320005BEA060C08BF4FF0010B19EB0B0948EB19
:100330000608ABFB027C06FB02CC0BFB03CCC01B0C
:1003400071EB0C01C1E70B46024641464846BDE849
:10035000F08B13B5084318BF4FF0FF300146AFF3E1
:100360000080BDE81C4070470FB41CB5074B06AABF
:100370007B4469460090059800F0E9F90020694641
:1003800000F0F8F91CBC5DF814FB0000010400004B
:1003900070B5044685690068C10601D5302600E0C5
:1003A0002026C00707D070BDD4E901213046904710
:1003B000206A401C20626D1EF6D570BD70B50446E3
:1003C00085690078C00707D170BDD4E901212020DC
:1003D0009047206A401C20626D1EF6D570BD00005B
:1003E0002DE9F0410646002410687529314616A50E
:1003F00010D0AFF30080002802DA404213A507E0D6
:1004000031688A0701D512A502E0490704D511A574
:10041000012401E0AFF3008000210A2206F1240745
:1004200009E0B0FBF2FCB0FBF2F302FB1C00303041
:1004300078541846491C0028F3D123462A463046F2
:10044000BDE8F04100F024B9000000002D000000DC
:100450002B0000002000000070B504460D46214628
:100460001068AFF300802188090502D50F4A7A444D
:1004700002E00E4A7A440E32002104F1240305E022
:1004800000F00F060009965D5E54491C0028F7D164
:1004900020780023000704D5702D02D009B1022373
:1004A00011322046BDE8704000F0F2B8842100000F
:1004B0002DE9F05F894604464FF0000ADFF824B1C9
:1004C000FB44C0F820A02046E168884700287DD082
:1004D000252806D0D4E901219047206A401C2062DB
:1004E000F1E700255F462046E16888472028064658
:1004F00007DB312E05D2B81910F8200C08B10543DE
:10050000F1E7A80701D525F00405C4F81CA00027D1
:10051000C4F818A02A2E09D0304602F058F838B393
:1005200004EB8708303EC8F8186019E059F8041B3E
:10053000204604EB87029161E1688847012F064657
:1005400018D1E069002820DA25F020051DE0D8F850
:10055000180000EB800006EB40003038C8F81800A7
:100560002046E1688847064602F031F80028EED1BF
:10057000012F0AD02E2E08D12046E16888477F1C23
:100580000646022F45F02005C4DBA069002803DAE7
:10059000404245F00105A061E80701D025F01005B3
:1005A000A6B1A6F14100192802D8203645F400650D
:1005B0004A463146204625604D46FFF71FFE60B192
:1005C000012807D0ED1D25F0070000E007E000F14D
:1005D000080978E705F1040975E730467AE7206AEB
:1005E000BDE8F09F5A21000010B5431C02E010F84E
:1005F000011B71B18107FAD14FF0013202C88C1A88
:100600008C4314EAC211F9D0C01A0A0603D0C01EE6
:1006100010BDC01A10BD0A0401D0801E10BD090211
:10062000FCD0401E10BD10B5203AC0F00B80B1E8E0
:100630001850A0E81850B1E81850A0E81850203A17
:10064000BFF4F5AF5FEA027C24BFB1E81850A0E820
:10065000185044BF18C918C0BDE810405FEA827C3A
:1006600024BF51F8043B40F8043B08BF7047D20751
:1006700028BF31F8023B48BF11F8012B28BF20F8F2
:10068000023B48BF00F8012B704770477047704726
:100690002DE9F0470D4699469246044600F124089C
:1006A0000168880604D5E06921F01001216000E0AE
:1006B0000120A84201DD471B00E00027A1697A194B
:1006C00002EB0900081AA0612078C00602D4204677
:1006D000FFF75EFE002608E0D4E901211AF80600C3
:1006E0009047206A401C761C20624E45F4DB20783F
:1006F000C0060AD52046FFF74BFE06E0D4E90121EB
:1007000030209047206A401C2062381EA7F1010764
:10071000F4DC07E0D4E9012118F805009047206ACD
:10072000401C2062281EA5F10105F3DC2046FFF7DE
:1007300045FE2078000602D50220BDE8F0870120A2
:10074000FBE7000001694A1C02610878704700B5A8
:100750008FB0CDE901310021059105497944CDE9FA
:10076000031011466846FFF7A3FE0FB000BD00005E
:10077000E5FFFFFF0A6802F8010B0A607047754643
:1007800000F02CF8AE4605006946534620F00700FD
:10079000854618B020B5FFF75DFDBDE820404FF05D
:1007A00000064FF000074FF000084FF0000BAC467A
:1007B000ACE8C009ACE8C009ACE8C009ACE8C009C5
:1007C00021F007018D46704710B50446AFF3008055
:1007D0002046BDE81040FFF728BD000000487047E4
:1007E0001000002001491820ABBEFEE726000200E1
:1007F00070470000FEE7000070470000EFF3108034
:1008000072B600BFFEE70000B0B5044600F0EAF89B
:10081000054640F20000C2F200000078611C18BFDB
:10082000044400BF00F0DEF8401BA042FAD3B0BD84
:100830002DE9F04F82B000F13E4241F6004502F151
:10084000FF77C4F20205082243F6004E4FEAB726AE
:10085000A84208BF0722C4F2010E072E38BF4FEA94
:10086000B7220125002600274FF00008009208E07B
:1008700008F101080437B8F1100F06F1020600F084
:10088000A7800C6805FA08F914EA090FF0D0D1F82E
:1008900004B003220BF0030CACF10104B240012CB4
:1008A0006FEA020A10D88268CC6802EA0A02B440F1
:1008B000224382604268CBF3001422EA090204FA60
:1008C00008F42243426005E0BCF1030F02D14FF06F
:1008D000030C20E0C2688C6802EA0A02B44022439A
:1008E000BCF1020FC26016D16FF0030202EA580297
:1008F0000244D2F820C007F01C050F230C69AB405E
:100900002CEA030304FA05F52B431362D1F804B073
:1009100001250BF0030C02680CFA06F302EA0A0246
:100920001A431BF4403F0260A2D0002243F6440366
:100930000192C4F202031A684FF6084C42F4804256
:100940001A601A68CFF6FF7C02F480420192019A85
:1009500028F00302724452F80C3007F00C050F2403
:10096000AC40A343009C04FA05F52B4342F80C303D
:10097000DEF808204B6842EA090543F60C4CDC021D
:1009800058BF22EA0905CEF80850C4F2010CDCF881
:1009900000209C0242EA090558BF22EA0905CCF86A
:1009A0000050DEF804209C0342EA090558BF22EA01
:1009B0000905CEF80450DEF80020DB0342EA090501
:1009C00058BF22EA0905CEF80050012550E700BFC4
:1009D00002B0BDE8F08F0000002A08BF0904816161
:1009E0007047000040F2C010C2F20000006870477B
:1009F00040F2000040F2C011C2F20000C2F2000159
:100A000000780A68104408607047000080B543F61B
:100A10000040C4F20200016841F400710160016805
:100A200041F480610160016841F48071016003203C
:100A300000F074F80F2000F005F800F027F800200F
:100A400080BD000070B540F20006C2F2000640F220
:100A500008013278C2F200014FF47A730968B3FBDF
:100A6000F2F20446B1FBF2F1084600F06FFF0F2CE2
:100A70004FF0010508D838B94FF0FF302146002269
:100A8000002500F01FF87460284670BD82B0002079
:100A900043F640010190C4F202014A6842F48042E8
:100AA0004A604A6802F480420192019A0090086804
:100AB00040F080500860086800F080500090009876
:100AC00002B0704710B54EF60C5CCEF2000CDCF8AC
:100AD0000030C3F3022E8EF00704042C28BF042438
:100AE000BEF103034FF0FF3E0EFA04F438BF0023BB
:100AF000A14399400EFA03F39A43114300F00F0209
:100B000000F160430901043A03F56443624400289C
:100B100048BF02F10C03197010BD00004EF60C51D5
:100B2000CEF200010A684FF6FF031A4060F30A2272
:100B300042F0806040F0FD70086070472DE9F041A0
:100B4000002800F08B8043F60808C4F2020804462F
:100B5000D8F8F8030D4600F00700884207D288F85D
:100B6000F853D8F8F80300F00700A84276D12068BF
:100B7000810717D5410705D5D8F8001041F4E05199
:100B8000C8F80010010705D5D8F8001041F46041FD
:100B9000C8F80010D8F80010A26821F0F001114345
:100BA000C8F80010C0073FD1D8F8F80300F00700DC
:100BB000A84207D988F8F853D8F8F80300F00700DE
:100BC000A8424BD12068410707D5D8F80010E26849
:100BD00021F4E0511143C8F80010000708D5D8F8F7
:100BE0000000216920F4604040EAC100C8F800001C
:100BF00000F07CF8D8F8001042F28062C1F30311D3
:100C0000C0F60002515C40F2080220FA01F140F205
:100C10000400C2F200000068C2F200021160FFF797
:100C200011FF0020BDE8F0816068811E022907D213
:100C300058F8081C89015CBF0120BDE8F08111E073
:100C4000012807D158F8081C89035CBF0120BDE8C2
:100C5000F08107E058F8081C890703D40120BDE89B
:100C6000F08100BFD8F8001021F003010843C8F854
:100C70000000FFF7B7FE064641F28837D8F80000BB
:100C8000616800F00C00B0EB810F8DD0FFF7AAFE79
:100C9000801BB842F2D90320BDE8F08140F2080081
:100CA00043F60801C2F20000C4F2020100680968BC
:100CB00042F29062C1F38221C0F60002515CC8404A
:100CC0007047000040F2080043F60801C2F200003D
:100CD000C4F202010068096842F29062C1F3423135
:100CE000C0F60002515CC8407047000010B543F6E2
:100CF0000404C4F20204606800F00C0008280BD061
:100D0000042819BF42F20040C0F2F40047F6400048
:100D1000C0F27D1010BD00BF206821682368490221
:100D200047F64001C0F27D1100F03F02C3F3881086
:100D30005CBF42F20041C0F2F401A1FB00010023BC
:100D4000FFF79AFA21680222C1F3014102EB410147
:100D5000B0FBF1F010BD00002DE9F04182B0002899
:100D600068D00446007843F60006C007C4F20206C5
:100D70000BD0B06800F00C00042840F09F80306871
:100D8000800302D56068002854D0207880071AD5E7
:100D9000B06810F00C0F09D0B06800F00C00082803
:100DA00040F0A6807068400200F1A28030688007A1
:100DB00002D5E06801283DD13068216920F0F800B3
:100DC00040EAC10030602078000737D4207840071F
:100DD0004CD4A56955B3B06800F00C00082840F069
:100DE000BB80012D26D07068E16900F480028A4240
:100DF00020D1216A00F03F028A421BD147F6C07120
:100E0000626A0140B1EB821F14D1A16A4FF6FF73F1
:100E1000C903994300F44032A1F580318A4209D1D7
:100E2000E16A00F07060B0EB016F03D1002002B006
:100E3000BDE8F081012002B0BDE8F08160690028C2
:100E400040F20000C4F2472076D00121C0F8801E95
:100E5000FFF7C8FD054600BF706F8007B6D4FFF7E7
:100E6000C1FD401B0228F7D9DDE000BF306C10F057
:100E700080580AD100200190306C40F080503064DE
:100E8000306C00F080500190019847F20007C4F2E6
:100E900000073868C00541D4386840F48070386075
:100EA000FFF7A0FD054600BF3868C00536D4FFF740
:100EB00099FD401B0228F7D9B5E000BFB06800F0EB
:100EC0000C00082803D1706840023FF558AF6068F5
:100ED000B0F5803F07D0B0F5A02F40F08D8030688E
:100EE00040F480203060306840F4803030608DE025
:100EF000E068002852D00020C4F2472001210160A0
:100F0000FFF770FD054600BF306880073FF554AF1E
:100F1000FFF768FD401B0228F6D984E0A06801288D
:100F200005D005284ED1306F40F004003067306F97
:100F300040F0010030674FE00021C0F8801EFFF74D
:100F400051FD0546706F80077FF540AFFFF74AFD02
:100F5000401B0228F6D966E00027C4F2472700208C
:100F60003866FFF73FFD022D05460BD13068800142
:100F70005ED5FFF737FD401B02284FF00300F5D97F
:100F800055E700BF306880017FF550AFFFF72AFDBD
:100F9000401B02284FF00300F4D948E70020C4F2B8
:100FA000472000210160FFF71DFD054630688007DE
:100FB0007FF509AFFFF716FD401B02284FF0030035
:100FC000F4D934E7316F002821F001013167316F26
:100FD00021F0040131674DD0FFF704FD054641F2D1
:100FE000883700BF306F800756D4FFF7FBFC401BEB
:100FF000B842F7D917E000BF3168002821F48031EA
:101000003160316821F4802131604FD0FFF7EAFC74
:10101000054600BF306880033FF5B7AEFFF7E2FC3E
:10102000401B6428F6D9032002B0BDE8F08100BF60
:1010300004F11C052FCD084340EA8210D9034FF676
:10104000FF729143A1F5803140EA0560084370606A
:1010500001203866FFF7C6FC044600BF30688001F7
:101060003FF5E4AEFFF7BEFC001B02284FF0030083
:10107000F4D9DCE6FFF7B6FC054641F2883700BF3D
:10108000306F800708D5FFF7ADFC401BB8424FF02A
:101090000300F5D9CBE600BFB8F1000F7FF499AE9D
:1010A000306C20F08050306493E600BFFFF79AFC6C
:1010B000054600BF306880037FF567AEFFF792FCFE
:1010C000401B64284FF00300F4D9B0E670B538B186
:1010D0000446406A30B10020206104F1140007E0AA
:1010E000012070BD6068B0F5827F03D004F11C0060
:1010F000002101600026A66294F8510020B9204624
:1011000084F8506000F03CF8022084F8510094E824
:101110000F0001F48271056802F4044225F04005D5
:101120000560114403F400622369114403F00202D4
:101130006369114403F00102A369E569114403F4F2
:101140000072114405F03802256A114405F080024E
:10115000A56A114305F4005211430160626A04213B
:1011600001EA134102F0100211444160C16921F407
:101170000061C1610120666584F85100304670BD90
:1011800080B586B0016843F20000C4F201008142DC
:1011900002D006B080BD00BF002143F630020191AD
:1011A000C4F20202536900F5504043F48053536186
:1011B000536903F480530193019B0191136843F039
:1011C00001031360126802F001020192019AE02209
:1011D00001920222CDE9022103210491052105910A
:1011E00001A9FFF725FB06B080BD00002DE9F04303
:1011F00081B0044640681D461746B0F5827F0E4612
:1012000001D1A068E0B394F85000012804D1022075
:1012100001B0BDE8F08300BF4FF0010984F85090A1
:10122000FFF7E0FB94F85110012927D18046002EEA
:101230004FF0010018BF002F00F0C98004200021EA
:1012400084F851006165A663A787E7872163A186BB
:10125000E186A2682068B2F5004F216461644BD03A
:101260000168490653D5E168E08F002957D000286E
:1012700000F08680681C1CD12DE000BF0220A6E093
:10128000042084F851002046314632463B46009502
:1012900000F0D0F901B0BDE8F08300BFC068A16BD9
:1012A00021F8020BA163E08F0138E087E08F00286E
:1012B00066D020688168C907F0D1FFF793FBA0EBE7
:1012C0000800A842F2D3032081E000BFFFF78AFBA9
:1012D000E08F002854D020688168C907F6D0C06824
:1012E000A16B21F8020BA163E08F0138E087E08F4A
:1012F0000028F0D144E000BF016821F04001016006
:10130000016821F48041016001684906ABD401689D
:1013100041F040010160E168E08F0029A7D178B376
:10132000681C0CD11CE000BF007BA16B0870A06B97
:101330000130A063E08F0138E087E08F00B32068C0
:101340008168C907F0D1FFF74DFBA0EB0800A84268
:10135000F3D303203BE000BFFFF744FBE08F78B1FD
:1013600020688168C907F7D0007BA16B0870A06B6B
:101370000130A063E08F0138E087E08F0028EFD1D3
:101380006068B0F5827F0ED1A068B0F5004F02D042
:10139000B0F5806F0AD12168B0F5806F0A6822F03D
:1013A00040020A6002D12046012101E0204680214E
:1013B0002A46434600F03AFE28B1606D40F0200016
:1013C000606520206065606D002818BF0120002145
:1013D00084F8519084F8501001B0BDE8F08300000B
:1013E0002DE9F04383B0044690F85000012803D162
:1013F000022003B0BDE8F0834FF001091D461646F8
:101400000F4684F85090FFF7EDFA94F85110012937
:1014100044D18046002F4FF0010018BF002E00F08D
:10142000D6800320002184F8510061652763A686D9
:10143000E686A163A187E187A0682164B0F5004F2B
:101440002068616407D1016821F0400101600168F2
:1014500041F4804101600168490603D4016841F00C
:10146000400101606168731EE268B1FA81F1B3FA6C
:1014700083F349095B09B2F5006F41EA03013DD1ED
:1014800031B137F8021BC1602763E08E0138E08676
:10149000E08E00286CD0681C0DD11EE0022096E082
:1014A000216B31F8022BC2602163E08E0138E086A7
:1014B000E08E00285CD0206881688907F0D4FFF7AF
:1014C00091FAA0EB0800A842F2D303207FE000BF0E
:1014D000FFF788FAE08E00284AD0206881688907E3
:1014E000F6D5216B31F8022BC2602163E08E013802
:1014F000E086E08E0028F0D13AE000BF39B13978BB
:101500000173206B01302063E08E0138E086E08EAD
:1015100070B3681C0BD11BE0216B09780173206B41
:1015200001302063E08E0138E086E08E00B3206851
:1015300081688907F0D4FFF755FAA0EB0800A842AC
:10154000F3D3032043E000BFFFF74CFAE08E78B1FD
:10155000206881688907F7D5216B09780173206BB2
:1015600001302063E08E0138E086E08E0028EFD164
:1015700040F20800C2F20000006849F68171C1F231
:101580005E61A0FB0101480D4FF47A71484302905F
:101590006068B0F5827F23D1204680212A464346E9
:1015A00000F044FD28B1606D40F02000606520200F
:1015B0006065A06838B9002001902068C168019179
:1015C000806801900198606D002818BF01200021FB
:1015D00084F8519084F8501003B0BDE8F08300BF48
:1015E00002980028E5D002980138029020688068AF
:1015F0000006DED502980028DBD002980138029060
:10160000206880680006D4D502980028D1D00298BE
:1016100001380290206880680006CAD50298002828
:10162000C7D0029801380290206880680006D7D49D
:10163000BFE700002DE9F04383B0044690F8500066
:10164000012803D1022003B0BDE8F08301201E462B
:1016500015460F4684F85000FFF7C4F994F851106E
:101660008146012940F09880002F4FF0010018BFFB
:10167000002D00F09E80002E00F09B8094F8510019
:10168000002104281CBF052084F851006165A56372
:10169000E687A6872763E6862068A68621646164BC
:1016A0000168490603D4016841F0400101606168A6
:1016B000731EE268B1FA81F1B3FA83F3DDF8288092
:1016C00049095B09B2F5006F41EA03017AD131B1F2
:1016D00037F8021BC1602763E08E0138E0860125E0
:1016E00018F1010031D101E0FFF77CF9E08E18B963
:1016F000E08F002800F0D0802068816889070CD531
:10170000E18E51B1012D08D1216B002531F8022B5A
:10171000C2602163E18E0139E1868168C907E3D0A7
:10172000E18F0029E0D0C068A16B012521F8020BF0
:10173000A163E08F0138E087D6E700BFFFF752F9D9
:10174000A0EB0900404580F0FD80E08E18B9E08FE5
:10175000002800F0A1802068816889070CD5E18EFF
:1017600051B1012D08D1216B002531F8022BC26047
:101770002163E18E0139E1868168C907DED0E18FFE
:101780000029DBD0C068A16B012521F8020BA16301
:10179000E08F0138E087D1E76068B0F5827F07D13C
:1017A000A06800284FF0020008BF042901D15BE7C0
:1017B0000220012184F85110002184F8501003B058
:1017C000BDE8F08339B139780173206B01302063B3
:1017D000E08E0138E086012518F1010033D101E0E7
:1017E000FFF700F9E08E10B9E08F002854D0206890
:1017F000816889070ED5E18E61B1012D0AD1216B77
:10180000002509780173216B206801312163E18E85
:101810000139E1868168C907E2D0E18F0029DFD074
:10182000C068A16B01250870A06B0130A063E08F38
:101830000138E087D4E700BFFFF7D4F8A0EB090038
:10184000404580F08180E08E08B9E08F20B32068A9
:10185000816889070ED5E18E61B1012D0AD1216B16
:10186000002509780173216B206801312163E18E25
:101870000139E1868168C907DED0E18F0029DBD01C
:10188000C068A16B01250870A06B0130A063E08FD8
:101890000138E087D0E700BF40F20800C2F2000044
:1018A000006849F68171C1F25E61A0FB0101480D3B
:1018B0004FF47A71484302906068B0F5827F0FD18F
:1018C0002046802142464B4600F0B0FB60B3606D7D
:1018D00040F02000606520206065012069E700BFBE
:1018E000029808B3029801380290206880680006C8
:1018F0001AD50298C0B10298013802902068806819
:10190000000611D5029878B102980138029020683B
:101910008068000608D5029830B10298013802901C
:10192000206880680006DBD4A06800284FF0000023
:101930007FF43FAF01902168CA68019289680191E4
:10194000019936E7032034E7032032E7411E0020E7
:10195000B0EB116F1CBF012070474EF21002CEF2A7
:10196000000251604EF62351CEF20001F0230B70BD
:101970000721906011607047002804BF0120704764
:1019800010B5044690F83D0028B9002084F83C00CA
:10199000204600F021F8242084F83D002068C1682A
:1019A00021F40051C160204600F016FC2068016956
:1019B00021F490410161416921F02A014161C1682E
:1019C00041F40051C16000202021206484F83D10C2
:1019D00084F83E1010BD000080B586B0016841F269
:1019E0000040C4F20100814202D006B080BD00BFB9
:1019F000002143F630020191C4F20202536900F55E
:101A0000744043F020035361536903F020030193B2
:101A1000019B0191136843F004031360126802F004
:101A200004020192019AC02201920222CDE9022110
:101A3000032104910821059101A9FEF7F9FE06B0E2
:101A400080BD00002DE9F04381B0044690F83D00D0
:101A500020280DD10F4600294FF0010000F0DD8055
:101A60001646002A00F0D98094F83C00012803D1E2
:101A7000022001B0BDE8F083012084F83C00002082
:101A8000206421201D4684F83D00FEF7ABFFA684AC
:101A9000E684A1680646B1F5805F03D1206900287D
:101AA00000F01081B8460027002084F83C00E18C4B
:101AB0002068002900F0908005F101090DE000BFC9
:101AC000B8F1000F28D018F8011B4160E18C0139F2
:101AD000E184E18C002900F07F8001680906EFD4E1
:101AE000B9F1000F0AD0FDB1FEF77CFF801BA842C0
:101AF0001AD8206801680906F6D5E1E701680906E9
:101B0000DED4016809065CBF01685FEA0161D7D4D1
:101B100001680906F2D5D3E737F8021B4FF0000839
:101B20006FF35F21D1E700BF206850E8030F216801
:101B300020F4D07041E80302BAB3206850E8030FE4
:101B4000216820F4D07041E8030272B3206850E8A5
:101B5000030F216820F4D07041E803022AB3206803
:101B600050E8030F216820F4D07041E80302002AF6
:101B7000DAD11AE0206850E8050F216820F0010052
:101B800041E80502DAB1206850E8050F216820F02D
:101B9000010041E8050292B1206850E8050F216874
:101BA00020F0010041E805024AB1206850E8050F25
:101BB000216820F0010041E80502002ADAD1202046
:101BC00084F83D0084F83E00002084F83C000320A7
:101BD00001B0BDE8F08300BF0168490619D4FDB12A
:101BE000691C0DD10168490613D4016849065CBF20
:101BF00001685FEA41610CD401684906F2D508E04A
:101C0000FEF7F0FE801BA8420AD820680068400654
:101C1000F6D5202084F83D00002001B0BDE8F08317
:101C2000206850E8030F216820F4D07041E80302D7
:101C3000E2B3206850E8030F216820F4D07041E837
:101C400003029AB3206850E8030F216820F4D07093
:101C500041E8030252B3206850E8030F216820F4E2
:101C6000D07041E80302002ADAD11FE0206850E872
:101C7000050F216820F0010041E80502002A9ED0EE
:101C8000206850E8050F216820F0010041E80502B6
:101C9000002A3FF494AF206850E8050F216820F037
:101CA000010041E80502002A3FF489AF206850E8AE
:101CB000050F216820F0010041E80502002AD5D176
:101CC0007DE700BF4FF00008EEE60000FEE70000F1
:101CD00070B586B0002543F6300005950095C4F236
:101CE0000200016840F2004441F080010160016897
:101CF000C4F2020401F0800100910099009501688E
:101D0000002241F0010101600168032601F0010198
:101D1000009100990095016841F00201016001689D
:101D200001F00201009100990095016841F0040161
:101D300001600068032100F0040000900098204634
:101D4000FEF74AFE0120CDE9020501A920460196D1
:101D50000495FEF76DFD06B070BD000080B540F241
:101D6000CC0043F20001C2F20000C4F201014FF4C2
:101D7000827200234FF4007C80E80E000A21C0E943
:101D80000333C0E9053CC361C0E90833C0E90A3147
:101D9000FFF79CF9002808BF80BDBDE88040FEF732
:101DA0002DBD000080B540F2241041F20041C2F286
:101DB0000000C4F2010100234FF00C0C4FF4E1329B
:101DC00080E80E00C0E90333C0E905C3C361FFF733
:101DD000D3FD002808BF80BDBDE88040FEF70EBDE2
:101DE000FEE70000FEE7000081B02DE9F04181B080
:101DF00040F26818C2F2000815460E46074607A9C9
:101E0000404658220793FEF70EFC40F27004C2F2DF
:101E10000004384631460122A760A680E580FEF71F
:101E2000DBFDA068E1880022FEF7D6FD0520FEF765
:101E3000EBFCA068A1880022FEF7CEFD4FF40870ED
:101E4000ADF801000DF10101404602226423FFF7C5
:101E5000C7FAA068A1880122FEF7BEFDA068A1888C
:101E60000022FEF7B9FD2120ADF801000DF10101BE
:101E7000404602226423FFF7B3FAA068A18801223A
:101E8000FEF7AAFDA068A1880022FEF7A5FD22208A
:101E9000ADF801000DF10101404602226423FFF775
:101EA0009FFAA068A1880122FEF796FDA068A1888C
:101EB0000022FEF791FD2320ADF801000DF1010194
:101EC000404602226423FFF78BFAA068A188012212
:101ED000FEF782FDA068A1880022FEF77DFD242088
:101EE000ADF801000DF10101404602226423FFF725
:101EF00077FAA068A1880122FEF76EFDA068A1888C
:101F00000022FEF769FD40F22520ADF801000DF139
:101F10000101404602226423FFF762FAA068A1880B
:101F20000122FEF759FDA068A1880022FEF754FDAA
:101F30002620ADF801000DF1010140460222642384
:101F4000FFF74EFAA068A1880122FEF745FDA068C0
:101F5000A1880022FEF740FD2720ADF801000DF119
:101F60000101404602226423FFF73AFAA068A188E3
:101F70000122FEF731FDA068A1880022FEF72CFDAA
:101F80002820ADF801000DF1010140460222642332
:101F9000FFF726FAA068A1880122FEF71DFDA068C0
:101FA000A1880022FEF718FD2920ADF801000DF1EF
:101FB0000101404602226423FFF712FAA068A188BB
:101FC0000122FEF709FD01B0BDE8F04101B0704704
:101FD00070B582B040F27006C2F20006B268B188F5
:101FE000044610460022FEF7F7FC8DF8054040F24B
:101FF0006814C2F200040DF10505204629460122AD
:102000006423FFF7EDF9691C204601226423FFF7E2
:10201000EDF8B068B1889DF806400122FEF7DCFCBF
:10202000204602B070BD0000704700002DE9F0416D
:1020300082B01E4690460D460446FEF7D3FC301A89
:1020400000EB0807FEF7CEFC40F20801C2F20001E7
:102050000968C1F3CB317943019121688A682A402C
:10206000AA4227D1064618F101001FD0FEF7BAFC9C
:10207000801BB84222D2019801990028A1F10101E8
:1020800001912168896808BF074601EA0500A84256
:10209000ECD00FE088682840A8420BD1886828401F
:1020A000A84207D188682840A84203D18868284000
:1020B000A842EFD0002002B0BDE8F081D4E90001D1
:1020C0004268B1F5827F22F0E00242600AD1A16845
:1020D000B1F5004F02D0B1F5806F03D1016821F056
:1020E00040010160A16AB1F5005F07D1016821F4E8
:1020F00000510160016841F400510160012084F841
:102100005100002084F85000032002B0BDE8F081A7
:1021100070470000FEF76CBCB0B592B0002443F6E7
:1021200040000B94CDE90944CDE907440594CDE97D
:102130000344CDE901440094C4F202000168022581
:1021400041F080510160006800F0805000900098DC
:1021500047F200000094C4F20000016841F480419D
:102160000160006800F48040009000980120099010
:1021700010200A9008200E904820CDE90F05042079
:10218000119006A80695CDE90C54FEF7E5FD28B19F
:10219000EFF3108072B600BFFEE700BF0F20CDE95D
:1021A00001054FF48050CDE9040401A802210394F5
:1021B000FEF7C4FC20B1EFF3108072B6FEE700BF5B
:1021C00012B0B0BD4EF68850CEF20000016841F466
:1021D000700101607047000010B504460068D4E942
:1021E00002C22369016921F440511143016162690E
:1021F00043EA0C01E3691143C268194349F20C63D5
:102200009A431143C1604169A26921F4407141F2CE
:102210000043114340F48062C4F201039A424161D9
:1022200002D1FEF74FFD01E0FEF738FDE16963687A
:102230001922B1F5004FA0FB020123D15A00DB0F98
:10224000FEF71AF848F21F51C5F2EB11A0FB01236B
:102250005A094FF69C73C0F6FF7303F1805302FBDB
:102260000300322303EBC000A0FB01014FF4F87020
:1022700000EA111000EB0210C1F34211084421687A
:10228000886010BD9A009B0FFDF7F6FF48F21F51C2
:10229000C5F2EB11A0FB01235A094FF69C73C0F65F
:1022A000FF7302FB0300322303EB0010A0FB0101CC
:1022B000F02000EA511000EB0210C1F34311084472
:1022C0002168886010BD0000FEE70000AAB0FEF79C
:1022D0009DFBFFF721FFFFF7FBFCFFF73FFDFFF73B
:1022E00061FD42F2306116ACC0F60001204650227A
:1022F000FEF799F92046FEF777F940F22415C2F26D
:10230000000582B2284621460A23FFF79BFB40F2D4
:10231000CC01C2F2000151F8043B6846542251F846
:10232000046B043A40F8046BF9D140F20040C4F267
:10233000020001210222FFF757FD05F1100050F8BD
:10234000042B694641F8042B50F8042B41F8042B68
:1023500050F8042B41F8042B50F8042B41F8042BBF
:1023600050F8042B41F8042B50F8042B41F8042BAF
:1023700050F8042B41F8042B50F8042B41F8042B9F
:1023800050F8042B41F8042B50F8042B41F8042B8F
:1023900050F8042B41F8042B50F8042B41F8042B7F
:1023A00050F8042B41F8042B95E80F0000F0FCF8DE
:1023B0000020FFF70DFE024653A12046FDF7D4FF93
:1023C0002046FEF711F982B2284621460A23FFF77C
:1023D00039FB0120FFF7FCFD02464FA12046FDF727
:1023E000C3FF2046FEF700F982B2284621460A23A1
:1023F000FFF728FB0220FFF7EBFD02464AA120462B
:10240000FDF7B2FF2046FEF7EFF882B228462146DC
:102410000A23FFF717FB0320FFF7DAFD024646A168
:102420002046FDF7A1FF2046FEF7DEF882B22846DF
:1024300021460A23FFF706FB0420FFF7C9FD0246E9
:1024400041A12046FDF790FF2046FEF7CDF882B26D
:10245000284621460A23FFF7F5FA0520FFF7B8FDC5
:1024600002463DA12046FDF77FFF2046FEF7BCF85F
:1024700082B2284621460A23FFF7E4FA0620FFF736
:10248000A7FD024638A12046FDF76EFF2046FEF765
:10249000ABF882B2284621460A23FFF7D3FA072079
:1024A000FFF796FD024634A12046FDF75DFF20466A
:1024B000FEF79AF882B2284621460A23FFF7C2FAAD
:1024C0000820FFF785FD02462FA12046FDF74CFFAF
:1024D0002046FEF789F882B2284621460A23FFF7F4
:1024E000B1FA0920FFF774FD02462BA12046FDF743
:1024F0003BFF2046FEF778F882B2284621460A23A1
:10250000FFF7A0FAFEE700BF524547303A0D0A092F
:1025100009253032580D0A00524547313A0D0A0953
:1025200009253032580D0A00524547323A0D0A0942
:1025300009253032580D0A00524547333A0D0A0931
:1025400009253032580D0A00524547343A0D0A0920
:1025500009253032580D0A00524547353A0D0A090F
:1025600009253032580D0A00524547363A0D0A09FE
:1025700009253032580D0A00524547373A0D0A09ED
:1025800009253032580D0A00524547383A0D0A09DC
:1025900009253032580D0A00524547393A0D0A09CB
:1025A00009253032580D0A0084B080B50DF1080CB1
:1025B0008CE80F0040F27000C2F20000183002A94F
:1025C0004422FEF730F8BDE8804004B07047303850
:1025D0000A2801D20120704700207047F1EE100A4E
:1025E0004FF6FF71C0F2C03120EA010040F04070A8
:1025F000E1EE100A7047303132333435363738392E
:10260000414243444546403058003031323334353E
:10261000363738396162636465664030780004009B
:10262000000800000000000000020001000010008F
:102630002D2D2D2D2D2D2D2D2D2D2D2D2D2D2D2DCA
:1026400054782D2D2D2D2D2D2D2D2D2D2D2D2D2D48
:102650002D2D2D2D2D2D2D0D0A0000000000000028
:10266000000000000000000000000000000000006A
:10267000000000000000000000000000000000005A
:102680000000000000000000010203040607080922
:102690000000000001020304B8260008000000202A
:1026A00010000000C4010008C82600081000002027
:1026B000B8070000E0010008010000001000000061
:0826C0000024F40000000000FA
:040000050800018965
:00000001FF
