:020000040800F2
:1000000078080020310200088F3A0008E920000833
:100010008D3A00087F060008A94000080000000093
:10002000000000000000000000000000933A0008FB
:100030008106000800000000913A0008953A000887
:100040004B0200084B0200084B0200084B0200085C
:100050004B0200084B0200084B0200084B0200084C
:100060004B0200084B0200084B0200084B0200083C
:100070004B0200084B0200084B0200084B0200082C
:100080004B0200084B0200084B0200084B0200081C
:100090004B0200084B0200084B0200084B0200080C
:1000A0004B0200084B0200084B0200084B020008FC
:1000B000393B00084B0200084B0200084B020008C5
:1000C0004B0200084B0200084B0200084B020008DC
:1000D0004B0200084B0200084B0200084B020008CC
:1000E0004B0200084B0200084B0200084B020008BC
:1000F0004B0200084B0200084B0200084B020008AC
:100100004B0200084B0200084B0200084B0200089B
:100110004B0200084B0200084B0200084B0200088B
:100120004B0200084B0200084B0200084B0200087B
:100130004B0200084B0200084B0200084B0200086B
:100140004B0200084B0200084B0200084B0200085B
:100150004B0200084B0200084B0200089D400008BB
:100160004B0200084B0200084B0200084B0200083B
:100170004B0200084B0200084B0200080000000080
:100180004B0200084B02000800F002F800F041F8B2
:100190000AA090E8000C82448344AAF10107DA45E2
:1001A00001D100F036F8AFF2090EBAE80F0013F0F3
:1001B000010F18BFFB1A43F001031847A8570000AE
:1001C000C8570000103A24BF78C878C1FAD852073F
:1001D00024BF30C830C144BF04680C6070470000C1
:1001E0000023002400250026103A28BF78C1FBD840
:1001F000520728BF30C148BF0B607047782900F014
:10020000F780002070471FB505F081FB1FBD10B5BA
:1002100010BD00F0FFF91146FFF7F5FF04F07EFA7C
:1002200000F01DFA03B4FFF7F2FF03BC00F020FA60
:100230000948804709480047FEE7FEE7FEE7FEE77A
:10024000FEE7FEE7FEE7FEE7FEE7FEE704480549B6
:10025000054A064B70470000293B00088901000849
:10026000780200207808002078040020780400201C
:1002700053EA020C00F069802DE9F04B4FF00006C4
:10028000002B1FBFB3FA83F503FA05F424FA05F631
:100290005E4012BF1643B2FA82F502FA05F4C5F1C8
:1002A00020051EBF22FA05FC44EA0C04203556EA5C
:1002B000044C4FEA144418BF641C4FF000084FF080
:1002C0000009904271EB030C39D3002919BFB1FA30
:1002D00081F701FA07F6B0FA80F700FA07F6C7F1DE
:1002E00020071EBF20FA07FC46EA0C062037B6FBA3
:1002F000F4FCA7EB0507103F07F01F0BCBF120061E
:100300000CFA0BFB2CFA06F644BFB3460026202F4E
:10031000A4BF5E464FF0000B5BEA060C08BF4FF02F
:10032000010B19EB0B09ABFB027C48EB0608C01B69
:1003300006FB02CC0BFB03CC71EB0C01C1E70B46B7
:10034000024641464846BDE8F08B13B54FF0000029
:100350004FF00001AFF30080BDE81C407047000083
:100360000FB41CB5074B06AA7B446946009005985C
:1003700000F02FF90020694600F03EF91CBC5DF842
:1003800014FB00008D0200002DE9F0410E460446EA
:10039000002020622046E168884730B3252805D038
:1003A000D4E901219047206A401CF2E7E168204629
:1003B00000278847050018D0A5F14100192802D868
:1003C00020354FF400673246294620462760FFF764
:1003D00015FF40B1012804D0F61D26F007060836A7
:1003E000D8E7361DD6E72846DAE7206ABDE8F0816F
:1003F00070B504460D4621461068AFF30080218891
:10040000090502D50F4A7A4402E00E4A7A440E32B8
:10041000002104F1240305E000F00F060009965DB9
:100420005E54491C0028F7D120780023000704D52A
:10043000702D02D009B1022311322046BDE8704070
:1004400000F069B83055000010B5203AC0F00B80BC
:10045000B1E81850203AA0E81850B1E81850A0E8C8
:100460001850BFF4F5AF5FEA027C24BFB1E8185022
:10047000A0E8185044BF18C918C0BDE810405FEA92
:10048000827C24BF51F8043B40F8043B08BF70470E
:10049000D20728BF31F8023B48BF11F8012B28BF13
:1004A00020F8023B48BF00F8012B70474FF00002D4
:1004B00000B5134694469646203922BFA0E80C505A
:1004C000A0E80C50B1F12001BFF4F7AF090728BF35
:1004D000A0E80C5048BF0CC05DF804EB890028BFB1
:1004E00040F8042B08BF704748BF20F8022B11F0DA
:1004F000804F18BF00F8012B704770477047704756
:1005000010B500F07FF8006810BD10B5044600F08B
:1005100079F8046010BD2DE9F0470D4699469246E2
:10052000044600F124080168880604D5E06921F03A
:100530001001216000E00120A84201DD471B00E01E
:100540000027A1697A1902EB0900081AA061207836
:10055000C00602D42046AFF30080002608E0D4E9AC
:1005600001211AF806009047206A401C761C206280
:100570004E45F4DB2078C0060AD52046AFF3008054
:1005800006E0D4E9012130209047206A401C206217
:10059000381EA7F10107F4DC07E0D4E9012118F8BF
:1005A00005009047206A401C2062281EA5F1010525
:1005B000F3DC2046AFF300802078000602D502204D
:1005C000BDE8F0870120FBE701694A1C0261087859
:1005D000704700B58FB0CDE9013100210591054983
:1005E0007944CDE9031011466846FFF7CDFE0FB000
:1005F00000BD0000E5FFFFFF0A6802F8010B0A607A
:1006000070470000004870471802002000487047FB
:10061000180200207546FFF7F9FFAE46050069464F
:10062000534620F00700854618B020B5FFF70EFEB0
:10063000BDE820404FF000064FF000074FF00008E3
:100640004FF0000B21F00701AC46ACE8C009ACE864
:10065000C009ACE8C009ACE8C0098D46704710B5C8
:100660000446AFF300802046BDE81040FFF7DABD36
:1006700001491820ABBEFEE7260002007047FEE7E6
:1006800070472DE9F0410446876D00F05BF906469E
:1006900094F835000025022806D08020606584F893
:1006A00034500120BDE8F0812068016821F0160176
:1006B00001602068416921F080014161206C08B926
:1006C000A06C20B12068016821F008010160206859
:1006D000016821F0010101600CE000F033F9801B9A
:1006E000052807D920206065032084F8350084F8A8
:1006F0003450D7E720680068C007EED194F85C104A
:100700003F208840B860012084F8350084F83450D8
:100710000020C7E790F83510022903D080214165F9
:1007200001207047052180F835100068016821F02C
:1007300001010160002070472DE9F84FDFF8BCA1EE
:100740000022012503264FF00F090AF1040BAAF13C
:10075000040E00BF0B6805FA02F42340A34270D1D7
:100760000F7907F00307012F01D0022F16D18768F8
:100770004FEA420806FA08FC27EA0C07D1F80CC039
:100780000CFA08FC4CEA070CC0F808C04768A743FD
:100790000C79C4F3001494403C4344600C79E44366
:1007A000A4070AD0C4684FEA420C06FA0CF7BC430F
:1007B0008F6807FA0CF72743C7600C7904F003042D
:1007C000022C12D1D40800EB840CDCF8204057072F
:1007D000FF0E09FA07F824EA0804D1F8108008FA95
:1007E00007F848EA0408CCF8208004684FEA420C75
:1007F00006FA0CF7BC430F7907F0030707FA0CF76A
:10080000274307604C6814F4403F70D03C4C276885
:1008100047F480472760246822F0030704F48044EB
:100820000094384C07EB040CDCF8084897074FEAB3
:10083000177809FA08F7BC43334FB84202D10027B2
:1008400024E054E0314FB84201D101271EE0304F7F
:10085000B84201D1022719E02E4FB84201D1032737
:1008600014E02D4FB84201D104270FE02B4FB842BE
:1008700001D105270AE02A4FB84201D1062705E039
:10088000284FB84201D1072700E0082707FA08F7E8
:100890002743CCF80878DAF800405746D1F804C06E
:1008A0009C435FEACC2C00D51C433C60DBF8004045
:1008B0005F46D1F804C09C435FEA8C2C00D51C43F2
:1008C0003C60DEF800407746D1F804C09C435FEA04
:1008D0008C3C00D51C433C60084F083F3C68D1F875
:1008E00004C09C435FEACC3C00D51C433C60521CD6
:1008F000102AFFF42FAFBDE8F88F0000083C01403C
:100900004438024000300140000002400004024030
:1009100000080240000C0240001002400014024097
:1009200000180240001C0240426921EA02030A400A
:1009300043EA0241816170470AB18161704709044D
:10094000FBE700000148806870470000400000207D
:1009500070B5040025D094F83D00002520B984F836
:100960003C50204600F002FB242084F83D00206823
:10097000016821F0010101602068016841F4004133
:1009800001602068016821F40041016000F058FC1A
:100990004D4A6168914201D84C4900E04C49884277
:1009A00001D2012070BD4B492368B0FBF1F15E68B4
:1009B00026F03F060E435E606368934206D94FF40B
:1009C000967359434FF47A73B1FBF3F12368491CD2
:1009D0001E6A26F03F06314319626168914210D8C1
:1009E0004900401EB0FBF1F2521CC2F30B02042A74
:1009F00001D2042022E0B0FBF1F0401CC0F30B0058
:100A00001CE0A268F2B301EBC10303EB0116431E25
:100A1000B3FBF6F35B1C43F480431B0549D092B350
:100A200001EBC10202EB0111401EB0FBF1F0401CD2
:100A3000C0F30B0040F4804040F400402168CA69D4
:100A40004CF6FF739A431043C861D4E90710014381
:100A50002068026822F0C00211430160D4E903015A
:100A600001432068826848F2FF339A431143816052
:100A7000D4E9050108432168CA6822F0FF02104347
:100A8000C86001E00EE016E02068016841F0010155
:100A900001602564202084F83D00256384F83E50E1
:100AA000002070BD01EB4106431EB3FBF6F35B1C57
:100AB000B3E70120C2E701EB4101401EB0FBF1F0BA
:100AC000401CC0F30B00B7E7A086010080841E0025
:100AD00000093D0040420F002DE9FF4F81B08946DB
:100AE0000446FFF72FFF054694F83D004FF000083D
:100AF00020287DD11923012250492046009501F07C
:100B000003FC002874D194F83C00012870D0012027
:100B100084F83C0020680168C90703D1016841F0EE
:100B2000010101602068016821F400610160242056
:100B300084F83D00002626644148E0624FF0011B26
:100B400020272068016841F480710160009500222F
:100B500059462046049B01F0D7FB50B1206800683D
:100B6000C00502D54FF400702064032005B0BDE835
:100B7000F08F216809F0FE000861FFF7E3FE2168AD
:100B8000054648694969C0F34000C1F380214FF030
:100B9000A00A0FE0FFF7D6FE411B0498814200D85F
:100BA00008B984F83DA0216848694969C0F340004C
:100BB000C1F3802194F83D20A02A02D008B9002971
:100BC000E8D084F83D7020684169C943890716D48C
:100BD000016841F40071016020684169806919234E
:100BE000012216492046009501F08EFBB8B900E0BD
:100BF00021E084F83D7084F83C600020B6E701688D
:100C000041F40071016021686FF48060486119232C
:100C100001220A492046009501F076FB08B1012027
:100C2000A4E7039808F1010880458AD384F83D7051
:100C300084F83C60F3E7022098E70000020010000F
:100C40000000FFFF2DE9FF4F83B09A46DDE91197C1
:100C500093460446DDF84080FFF774FE054694F89D
:100C60003D00202870D119230122714920460095AA
:100C700001F04AFB0028F5D194F83C00012863D02C
:100C8000012084F83C0020680168C90703D101688D
:100C900041F0010101602068016821F400610160F8
:100CA000222084F83D00402084F83E00002626647F
:100CB000C4F82480A4F82A90608D20855D48E06205
:100CC000CDE9007553465A462046049901F024FAAE
:100CD00000287CD1208DD0B1012821D002282068A5
:100CE00024D0416980690090208D032869D80128AB
:100CF0002BD0514902283B464FF00002009559D0B5
:100D00008846204601F000FB002860D13CE02068C6
:100D1000416981690091016841F40071016077E0E7
:100D20002068016821F480610160F0E7016821F426
:100D3000806101602068016841F400610160206801
:100D400041698069009063E06FE02A463946204699
:100D500001F059FB98BB20680069616A08704EE099
:100D60002068016841F40071016020680069616ACF
:100D70000870606A401C6062218D491E2185618D6A
:100D8000491E6185216838E02068016821F480618E
:100D9000016020680069616A0870606A401C6062D6
:100DA000208D401E2085608D401E60853B460022C0
:100DB00041460095204601F0A7FA00B9D0E706E0C9
:100DC000FFE72A463946204601F01DFB18B10120F5
:100DD00007B0BDE8F08F20680069616A0870606A3A
:100DE000401C6062218D491E2185618D491E6185EF
:100DF00021684A69D24352070AD409690170606ABE
:100E0000401C6062208D401E2085608D401E6085E4
:100E1000208D00287FF468AF202084F83D0084F8FE
:100E20003E6084F83C600020D2E70220D0E700005A
:100E3000020010000000FFFF040001002DE9FF4F39
:100E400083B09A46DDE9119793460446DDF8408069
:100E5000FFF778FD054694F83D0020287FD119233F
:100E6000012240492046009501F04EFA002876D133
:100E700094F83C00012872D0012084F83C002068DE
:100E80000168C90703D1016841F0010101602068D0
:100E9000016821F400610160212084F83D004020B8
:100EA00084F83E0000262664C4F82480A4F82A9022
:100EB000608D20852C48E062CDE9007553465A4686
:100EC0002046049901F0A6F970B930E02A46394667
:100ED000204601F0CBFA58B1206C042804D12068D8
:100EE000016841F400710160012007B0BDE8F08F96
:100EF000606A216800780861606A401C6062218D28
:100F0000491E89B22185628D521E6285226853690D
:100F1000DB435B070BD469B100781061606A401C49
:100F20006062208D401E2085608D401E6085208D72
:100F30000028CBD12A463946204601F0BFF90028C7
:100F4000CAD154F83D0B016841F4007101602020C2
:100F500004F81E09E67766770020C6E7FFE702205F
:100F6000C3E70000020010000000FFFF10B586B0CC
:100F7000044614216846FFF799FA1449206888420C
:100F800021D113480021026842F002020260006889
:100F900000F0020005904FF4407000901220CDE95F
:100FA0000101032003900420049069460948FFF7DB
:100FB000C3FB07481030016841F40011016000686C
:100FC00000F40010059006B010BD00000054004071
:100FD000303802400004024002488168027811441F
:100FE00081607047400000200B4810B5016841F453
:100FF00000710160016841F480610160016841F4A1
:1010000080710160032000F06FF80F2000F006F8F7
:1010100000F024F8002010BD003C024070B50D4DDA
:1010200004464FF47A712878B1FBF0F00A49096858
:10103000B1FBF0F000F00CFB48B9102C07D20022F5
:101040002146501E00F030F800206C6070BD012079
:1010500070BD0000400000204C0000200A4808B588
:10106000016841F480410160006800F48040009014
:101070000548001F016841F080510160006800F0E0
:101080008050009008BD000044380240002809DB71
:1010900000F01F02012191404009800000F1E02092
:1010A000C0F8001170470000F0B40E4B1B680C46EE
:1010B000C3F30223C3F10705042D00D90425191D2C
:1010C000072901D2002300E0DB1E012606FA05F104
:1010D000491E214099409E40761E16403143F0BC87
:1010E00002F0F6BF0CED00E0064900F007020868C8
:1010F0004FF6FF03184040EA0220034A10430860FD
:10110000704700000CED00E00000FA052DE9F04703
:101110000E46050065D0DFF81481D8F80000F7B25C
:1011200000F00700B04207D288F80070D8F800003D
:1011300000F00700B04254D128683D4C810712D519
:10114000400703D5206840F4E0502060287800076D
:1011500003D5206840F4604020602068A96820F032
:10116000F000084320602878C0072DD03049686817
:101170000839012812D0022813D0032811D0096899
:10118000890700292DDA216821F00301014321603C
:10119000FFF7D8FB814641F2883A0EE009688903DF
:1011A000EFE709688901ECE7FFF7CCFBA0EB090149
:1011B000514502D90320BDE8F0872068696800F036
:1011C0000C00B0EB810FEFD1D8F80010404601F0D1
:1011D0000701B14207D90770006800F00700B0426C
:1011E00001D00120E7E72878400705D52068E968A5
:1011F00020F4E050084320602878000706D52068D6
:10120000296920F4604040EAC100206000F038F80D
:101210002168084AC1F30311515CC84006490860BF
:1012200006480068FFF7FAFE0020C4E7003C0240D1
:1012300008380240225900084C00002044000020D9
:101240000448054900680968044AC1F38221515CD9
:10125000C84070474C00002008380240325900084E
:101260000448054900680968044AC1F34231515CE9
:10127000C84070474C00002008380240325900082E
:10128000154810B5006810F00C02144813D014492A
:10129000042A0FD0082A0ED10F4C241F226823687D
:1012A00002F03F025B0207D52068C0F38810A0FB64
:1012B000010106E0084610BD2168C1F38811A1FBB9
:1012C00000010023FEF7D4FF2168C1F30141491C4E
:1012D0004900B0FBF1F010BD083802400024F400D2
:1012E00040787D012DE9F84F04006ED02078DFF8BA
:1012F0004C93C007A9F104054AD009F10400016824
:10130000C1F38101012908D00068C0F381000228DF
:101310000AD1D9F80000400206D52868800337D5E5
:1013200060680028E1D033E06068B0F5803F10D0FD
:10133000B0F5A02F286810D020F4803028602868ED
:1013400020F4802028606068A8B1FFF7FBFA064609
:101350000DE0286840F48030F4E740F480202860F5
:10136000F7E700BFFFF7EEFA801B642873D8286800
:101370008003F7D50CE0FFF7E5FA064605E000BF6D
:10138000FFF7E0FA801B6428F0D828688003F7D4C0
:101390002078DFF8AC8280074FF0000A3ED5A748DE
:1013A000001D016811F00C0F08D00068C0F3810027
:1013B00002280BD1D9F80000400207D42868800722
:1013C00016D5E068012800D112E033E1E068B8B139
:1013D0000120C8F80000FFF7B5FA064605E000BF97
:1013E000FFF7B0FA801B0228C0D828688007F7D51D
:1013F0002868216920F0F80040EAC10028600DE06B
:10140000C8F800A0FFF79EFA064604E0FFF79AFA34
:10141000801B02281FD828688007F7D4207800078F
:1014200022D5864F87486169703771B1012101600B
:10143000FFF788FA064604E0FFF784FA801B0228CB
:1014400009D838688007F7D50EE0C0F800A0FFF78C
:1014500079FA064605E082E0FFF774FA801B02285D
:101460007DD838688007F7D42078400768D5DFF842
:10147000CCB100270BF13C0BDBF80000C0000BD413
:10148000DBF8001041F08051CBF80010DBF80000D1
:10149000012700F0805000906B4E3068C00510D4DA
:1014A000306840F480703060FFF74CFA009005E03F
:1014B000FFF748FA0099401A022850D83068C00552
:1014C000F6D55E4EA0686C3601280FD0052830682E
:1014D00010D020F001003060306820F0040030604F
:1014E000A068B8B1FFF72EFA00900FE0306840F026
:1014F0000100F4E740F004003060F7E7FFF722FA5C
:101500000099411A41F28830814266D830688007DC
:10151000F4D50EE0FFF716FA009007E0FFF712FA95
:101520000099411A41F28830814256D830688007CC
:10153000F4D42FB1DBF8001021F08051CBF800106B
:10154000A069C8B33D49091D0968C1F38101022999
:101550004AD00228504607D0C8F8600000E03CE0BE
:10156000FFF7F0F904463BE04746C8F86000FFF794
:10157000E9F9064605E000BFFFF7E4F9801B022801
:101580002BD828688001F7D4D4E907010843A16A61
:101590002E4A490802EB0141626A41EA821108437E
:1015A00094F82C1040EA0161C9F800100120386657
:1015B000FFF7C8F9044606E03EE000BFFFF7C2F9B6
:1015C000001B022809D828688001F7D534E000BF45
:1015D000FFF7B8F9001B022802D90320BDE8F88FF5
:1015E00028688001F4D427E00128F7D0D9F800005A
:1015F000E26900F4800191421CD1226A00F03F01AF
:10160000914217D147F6C071626A0140B1EB821F67
:1016100010D1A26A4FF0FF3300F4403103EB5202C5
:10162000B1EB024F06D194F82C1000F07060B0EBD3
:10163000016F01D00120D1E70020CFE7043802403C
:1016400000004742800E4742007000400000FFFF4C
:1016500010B5401EB0F1807F01D3012010BD4FF0C6
:10166000E02460610F21601702F032FD0020A061CC
:1016700007202061002010BD7047704710B590F81A
:101680003C20012A22D0012280F83C20CA688C68C4
:1016900022F4407222434C6822F4806222430C6898
:1016A00022F4006222430C6922F4805222434C69E6
:1016B00022F400522243C969002322F480420A43E3
:1016C00001684A6480F83C30002010BD022010BD43
:1016D00070B590F83C20012A32D0012480F83C40BB
:1016E000022280F83D2003685A689D6822F0700647
:1016F0000A6832435A60134B02689A4214D0B2F11E
:10170000804F11D0104B9A420ED0104B9A420BD002
:101710000F4B9A4208D00F4B9A4205D00E4B9A427B
:1017200002D00E4B9A4204D1496825F08003194338
:10173000916080F83D40002180F83C10084670BD63
:10174000022070BD0000014000040040000800407D
:10175000000C00400004014000400140001800401F
:1017600010B5040003D094F83D0010B107E001204B
:1017700010BD002084F83C00204600F01FF8022035
:1017800084F83D00211D206802F0DCF9012084F876
:10179000460084F83E0084F83F0084F8400084F856
:1017A000410084F8420084F8430084F8440084F83F
:1017B000450084F83D00002010BD000008B5006819
:1017C0001149884209D11148016841F001010160C5
:1017D000006800F00100009008BDB0F1804FFBD11F
:1017E0000A48001F016841F0010101600068002201
:1017F00000F00100009011461C20FFF755FCBDE8E9
:1018000008401C20FFF742BC000001404438024061
:1018100090F83D10012901D001207047022180F885
:101820003D100168CA6842F00102CA6000681149AF
:10183000884214D0B0F1804F11D00F4988420ED0A9
:101840000E4988420BD00E49884208D00D49884283
:1018500005D00D49884202D00C49884204D18168E4
:1018600001F00701062903D0016841F00101016080
:1018700000207047000001400004004000080040C4
:10188000000C0040000401400040014000180040EE
:1018900070B5044690F83C000025012817D00126B9
:1018A00084F83C60022084F83D002068826822F0C1
:1018B000770222F47F4282600868502838D00DDC1D
:1018C00020284FD005DC90B3102811D14AE0022027
:1018D00070BD302846D040280AD13BE060282FD088
:1018E00070280DD0B0F5805F03D0B0F5005F12D046
:1018F000012584F83D60002084F83C00284670BD36
:10190000CB68D1E90121206802F080F92068816864
:1019100041F0770109E0CB68D1E90121206802F0AC
:1019200075F92068816841F480418160E1E719E040
:10193000CA684968206802F03DFA5021206806E034
:10194000CA684968206802F046FA6021206802F0FF
:1019500067F9CEE7CA684968206802F02BFA40218F
:101960002068F4E7226801461046F0E7704770B53A
:101970000446006801694FF00005C943890715D482
:10198000C168C943890711D4E91E0161012020778C
:10199000206880698007204602D0FFF7E7FF04E057
:1019A00000F0C2F8204600F054F92577206801695C
:1019B000C943490717D4C168C943490713D46FF015
:1019C00004010161022020772068806910F4407FC3
:1019D000204602D0FFF7CAFF04E000F0A5F8204639
:1019E00000F037F9257720680169C943090716D443
:1019F000C168C943090712D46FF0080101610420CE
:101A000020772068C0698007204602D0FFF7AEFF2C
:101A100004E000F089F8204600F01BF925772068E3
:101A20000169C943C90617D4C168C943C90613D49B
:101A30006FF010010161082020772068C06910F460
:101A4000407F204602D0FFF791FF04E000F06CF8E1
:101A5000204600F0FEF8257720680169C943C907D0
:101A600008D1C168C943C90704D1891E0161204654
:101A700000F0F0F820680169C943090609D4C1687B
:101A8000C943090605D46FF0800101612046FFF7C4
:101A9000F3FD20680169C943490609D4C168C943F7
:101AA000490605D46FF040010161204600F0EEF8D0
:101AB00020680169C94389060BD4C168C9438906F6
:101AC00007D46FF0200101612046BDE87040FFF7A8
:101AD000D4BD70BD10B586B0044614216846FEF72B
:101AE000E5FC0E492068884216D10D4800210268A5
:101AF00042F010020260006800F0100005904FF400
:101B0000D44000900220CDE901010120CDE903106D
:101B100069460448FEF710FE06B010BD0000014003
:101B20003038024000100240704770B5044690F80B
:101B30003C0000260D4601280FD0012084F83C000F
:101B40006AB1042A1DD0082A2FD00C2A3FD00126C2
:101B5000002084F83C00304670BD022070BD206833
:101B600002F066F82068816941F00801816120680F
:101B7000816921F004018161206881692A6911432A
:101B800011E0206802F084F82068816941F4006166
:101B900081612068816921F48061816120688169A7
:101BA0002A6941EA02218161D2E7206802F0A6F8A1
:101BB0002068C16941F00801C1612068C16921F054
:101BC0000401C1612068C1692A69114311E02068DC
:101BD00002F0C8F82068C16941F40061C161206861
:101BE000C16921F48061C1612068C1692A6941EA43
:101BF0000221C161ACE710B5040003D094F83D00A8
:101C000010B107E0012010BD002084F83C00204600
:101C100000F01EF8022084F83D00211D206801F02C
:101C200091FF012084F8460084F83E0084F83F00CC
:101C300084F8400084F8410084F8420084F84300AE
:101C400084F8440084F8450084F83D00002010BD6D
:101C50007047704710B50B4900680968884210D179
:101C60004FF480510848FEF75FFE06498C31A1F51C
:101C7000947000F0F7FC0348BDE810408C3001F090
:101C800017B910BD24010020000C024070477047B6
:101C900070470000F8B5016804460868CA684B69D7
:101CA00010F00F0F4FF0000559D003F0010602F4B9
:101CB0009077374365D0C10705D0D10503D5216C96
:101CC00041F001012164410705D5D90703D0216CFA
:101CD00041F002012164810705D5D90703D0216CA9
:101CE00041F004012164010707D502F020013143CE
:101CF00003D0216C41F008012164216C00293AD005
:101D0000800604D5900602D5204602F0A5F820688A
:101D10004069216CC0F38010090700D460B32046ED
:101D200002F073F820684069400621D5206814301D
:101D300050E8001F21F0400140E80012002AF5D1D0
:101D4000A06BA8B16C490165A06BFEF7E3FC00280D
:101D500011D0A06B016D01B0BDE8F04008478306CB
:101D60000FD593060DD52046BDE8F84002F074B8B3
:101D70002046FFF78DFFF8BD2046FFF789FF256459
:101D8000F8BD266B2023012E79D1C60677D5D6065D
:101D900075D50868486800904869400640D5A16B31
:101DA000086840680004000CEAD0A28D8242E7D99E
:101DB000E085C869B0F5807F2DD020680C3050E8F0
:101DC000001F21F4807140E80012002AF5D120683C
:101DD000143050E8001F21F0010140E80012002AF1
:101DE000F5D12068143050E8001F21F0400140E890
:101DF0000012002AF5D184F83E30256320680C30AB
:101E000050E8001F21F0100140E80012002AF5D12F
:101E1000A06BFEF736FCA08DE18D401A81B229E05F
:101E2000A08DE18D401A81B2E08D0028A8D0002954
:101E3000A6D020680C3050E8002F22F4907240E8C1
:101E40000026002EF5D12068143050E8002F22F033
:101E5000010240E80026002EF5D184F83E302563CB
:101E600020680C3050E8002F22F0100240E80023D8
:101E7000002BF5D12046FFF70AFFF8BDFFE7050666
:101E80002BD5150629D594F83D002128F5D1A06859
:101E9000B0F5805F01D12069B0B1206A411C216298
:101EA000216800784860E08C401E0004000CE0844B
:101EB000E3D12068C16821F08001C1602068C16859
:101EC00041F04001C160D8E7206A0088C0F30800F3
:101ED0004860206A801C2062E5E74006CDD55006A8
:101EE000CBD5CA68204622F04002CA6084F83D3053
:101EF00000F0CDF8C1E70000FB3D000870B504001C
:101F000004D094F83D00002510B106E0012070BD1A
:101F100084F83C50204600F023F8242084F83D004B
:101F20002068C16821F40051C160204601F0F4FF2F
:101F30002068016921F4904101612068416921F024
:101F40002A0141612068C16841F40051C1602564E3
:101F5000202084F83D0084F83E00002070BD000081
:101F600010B586B0044614216846FEF79FFA17495B
:101F70002068884228D116480021026842F02002D9
:101F80000260006800F020000590114814380268D3
:101F900042F004020260006800F004000590C020D6
:101FA00000900220CDE90101032003900820049055
:101FB00069460848FEF7C0FB002211464720FFF79C
:101FC00073F84720FFF762F806B010BD0014014017
:101FD0004438024000080240704700002DE9F843F1
:101FE000044690F83D001F4616460D4620284CD169
:101FF000C5B1BEB194F83C00012846D0012084F858
:102000003C004FF00008C4F84080212084F83D00D7
:10201000FEF798FCA6848146E684A068B0F5805F50
:1020200003D004E00120BDE8F883206928B12E46E2
:102030005FF0000584F83C800EE00026FAE780217E
:10204000204601F0EFFFA0B9AEB116F8010B2168F0
:102050004860E08C401EE084E08C4B464FF000026C
:1020600000970028EBD14FF04001204601F0DAFF45
:1020700030B10320D7E735F8020BC0F30800E6E7DC
:10208000202084F83D000020CDE70220CBE77047F8
:102090002DE9FF41074618208DF80C00012503AEFD
:1020A00064240096CDE901542B4600223C21384699
:1020B000FEF7C4FE20208DF80C000096CDE90154F7
:1020C00001231A463C213846FEF7B8FE00208DF861
:1020D0000C000096CDE90154012302223C21384630
:1020E000FEF7ACFEBDE8FF81FEE701684A69D24316
:1020F00052050FD46FF480624A61002140F8301F0E
:10210000202242738173026942F00402026101736A
:1021100001207047002070472DE9F84F0446006801
:1021200089460B9D01689846174641F4806101601D
:102130002068016841F48071016000954FF0011B37
:102140000022594620460A9B00F0DEF84FF4007A40
:1021500040B120680068C00501D5C4F840A0032044
:10216000BDE8F88F216809F0FE0008612B46284978
:1021700020460A9A00F0FCF8F0BB206841698069AB
:1021800000902A4620460A9900F070F940B1206C70
:1021900004283AD12068016841F40071016034E0FC
:1021A000FEB2B8F1010F09D02168380A08612A4649
:1021B00020460A9900F05AF90028E8D12068066103
:1021C0002A4620460A9900F051F90028DFD12068FC
:1021D000016841F480710160009500225946204653
:1021E0000A9B00F091F80028B3D1216809F0FF00A4
:1021F00040F00100086100E007E02B46044920465A
:102200000A9A00F0B5F80028AAD00120A8E700003B
:10221000020001002DE9F843044600680D46DDE99F
:10222000089701689846164641F4807101604B4654
:1022300000224FF001112046009700F065F848B1E8
:1022400020680068C00502D54FF4007020640320A8
:10225000BDE8F883216805F0FE0008613B464A4668
:102260001549204600F084F888B9206841698069E2
:1022700000903A464946204600F0F8F848B1206CF4
:10228000042804D12068016841F400710160012034
:10229000DEE7F5B2B8F1010F09D02168300A086114
:1022A0003A464946204600F0E1F80028E7D1206888
:1022B00005610020CCE700000200010070B5164661
:1022C0000D4604460DE02046FFF70FFF08B1012040
:1022D00070BD681C05D0FEF735FB801BA84207D8EF
:1022E00035B120684069C0434007ECD4002070BD80
:1022F000002044F8300F20216173A073216941F060
:10230000200121612073E2E72DE9F0471E46904647
:102310000D460446C1F30747DDF8209008E0701C25
:1023200006D0FEF70FFBA0EB0900B0420FD876B144
:102330002068012F18D0806925EA00000004000CF5
:1023400014D000214145EAD00020BDE8F0870020EC
:1023500044F8300F20216173A073216941F02001FE
:10236000216120730120F0E74069E5E70121E9E7F9
:102370002DE9F0479A4691460E46044600254FF057
:102380002008C1F3074725E020684069C0434005A5
:1023900014D42068016841F40071016021686FF471
:1023A00080604861256384F83D8084F83E50206C4D
:1023B00040F00400206484F83C501FE0B9F1FF3F76
:1023C00008D0FEF7BFFAA0EB0A0149450CD8B9F1D5
:1023D000000F09D02068012F13D0806926EA000081
:1023E0000004000C0BD0CFE744F8305F84F80D8078
:1023F000A573206940F02000206125730120BDE80D
:10240000F0874069EAE72DE9F041002590460E4645
:102410000446202717E04069C043C0060CD454F896
:10242000301B6FF01000486144F810596777A577AA
:10243000206A2062257717E0FEF784FAA0EB0800F7
:10244000B04208D83EB120684169C9434906E2D488
:102450000020BDE8F08144F8305F6773A573206900
:1024600040F02000206125730120F2E770B5164688
:102470000D4604460DE02046FFF737FE08B1012067
:1024800070BD681C05D0FEF75DFA801BA84207D816
:1024900035B120684069C0430006ECD4002070BD0F
:1024A000002044F8300F20216173A073216941F0AE
:1024B000200121612073E2E72DE9FF4107469E20BC
:1024C0008DF80C00012403AE6425009623462522D6
:1024D000D0213846CDE90145FEF7B0FC03208DF848
:1024E0000C00009601232622D0213846CDE9014573
:1024F000FEF7A4FC86208DF80C000096012327220D
:10250000D0213846CDE90145FEF798FC8DF80C4006
:10251000009601236722D0213846CDE90145FEF718
:102520008DFCBDE8FF812DE9FF41074600208DF8B5
:102530000C00012503AE64240096CDE901542B461E
:102540006A22D0213846FEF779FC02208DF80C0073
:102550000096CDE9015401233722D0213846FEF7F9
:102560006DFCBDE8FF812DE9F04186B08046012475
:10257000642504A88DE8310023467522D021404609
:10258000FEF760FB9DF81000682803D0012006B01C
:10259000BDE8F08103AE8DF80C40009601236B225C
:1025A000D0214046CDE90145FEF748FC00278DF8D3
:1025B0000C70009601231922D0214046CDE9014537
:1025C000FEF73CFC8DF80C40009601231A22D02126
:1025D0004046CDE90145FEF731FC8DF80C700096C0
:1025E00001231B22D0214046CDE90145FEF726FC00
:1025F0008DF80C70009601231C22D0214046CDE9B5
:102600000145FEF71BFC0D208DF80C000096012300
:102610002422D0214046CDE90145FEF70FFC0020E1
:10262000B5E72DE9FF41074600208DF80C00012594
:1026300003AE64240096CDE901542B463722D02105
:102640003846FEF7FBFB20208DF80C000096CDE904
:10265000015401236A22D0213846FEF7EFFBBDE882
:10266000FF8100002DE9F04F0C462DED048B89B061
:102670006423142203A98DE80E0001233B22D021FC
:10268000FEF7E0FABDF80C0040BA00B22080BDF8B9
:102690000E1000EE100A49BA0FB26780BDF8101094
:1026A000B8EEC00A49BA0EB2A680BDF8121049BAF7
:1026B0000FFA81F9BDF8141049BA09B2218488468D
:1026C000BDF8161049BA09B261840091BDF818101E
:1026D00049BA09B2A1848B46BDF81A1049BA09B2A9
:1026E000A4F840108A46BDF81C1049BA09B2A4F8F3
:1026F00044100191BDF81E1049BA0DB2A4F8425021
:102700009FED488A20EE080A10EE100A03F08EF8BA
:1027100000EE107AC4E90201B8EEC00A20EE080A01
:1027200010EE100A03F082F800EE106AC4E904010A
:10273000B8EEC00A20EE080A10EE100A03F076F890
:1027400000EE109A9FED381AC4E90601F8EEC00AAF
:102750009FED378A80EE810ADFED340A30EE200AE1
:1027600084ED180A00EE108AF8EEC00A80EE880A9E
:1027700010EE100A03F05AF89FED2E9B53EC192B24
:1027800002F094FDC4E90A01009900EE101AF8EE77
:10279000C00A80EE880A10EE100A03F047F853ECE6
:1027A000192B02F083FD00EE10BAC4E90C01F8EE1B
:1027B000C00A80EE880A10EE100A03F037F853ECD6
:1027C000192B02F073FD00EE10AA9FED1C8AC4E9DC
:1027D0000E01F8EEC00A80EE880A10EE100A03F02F
:1027E00025F800EE105AC4E91201F8EEC00A80EE96
:1027F000880A10EE100A03F019F8C4E914010199CF
:1028000000EE101AF8EEC00A80EE880A10EE100AE8
:1028100003F00CF8C4E9160109B0BDEC048BBDE867
:10282000F08F0000000080380000AA43B81E12425A
:102830000000034311DD52A246DF913F004088446F
:1028400070B586B014216846FDF730FE224800249A
:10285000016841F080010160016801F0800105918B
:10286000016841F010010160016801F0100105915B
:10287000016841F008010160016801F0080105915B
:10288000016841F004010160016801F00401059153
:10289000016841F001010160016801F00101059149
:1028A000016841F00201016000680C4E00F0020076
:1028B0004FF480550590002229463046FEF73CF83B
:1028C00001200095CDE90104694630460394FDF7E7
:1028D00033FF06B070BD000030380240000C0240EB
:1028E00010B596B000240F94109411941294139480
:1028F0001C2168461494FDF7D9FD202107A8FDF797
:10290000D5FD34483249C0E900144FF6FF71C0E9E3
:10291000024180210461C0E90541FEF721FF08B1B1
:1029200072B6FEE74FF480500F900FA92948FEF7CA
:10293000AFFF08B172B6FEE72648FFF75CF908B1B1
:1029400072B6FEE7139413A922481494FEF7C0FE52
:1029500008B172B6FEE76020CDE90004029403944A
:1029600004940594002269461A480694FFF7DDF89E
:1029700008B172B6FEE7042269461648FFF7D5F89B
:1029800008B172B6FEE7082269461248FFF7CDF893
:1029900008B172B6FEE70C2269460E48FFF7C5F88B
:1029A00008B172B6FEE70794089409944FF40050FA
:1029B0000A94CDE90B4007A906480E94FEF75EFE87
:1029C00008B172B6FEE70348FFF784F816B010BDF1
:1029D00000000140DC00002010B586B0002416483D
:1029E000009401940294039404944FF08041059460
:1029F000C0E900141149C0E90241802104618161EC
:102A0000FEF7AEFE08B172B6FEE74FF480500090BC
:102A100069460948FEF73CFF08B172B6FEE7049428
:102A200004A905480594FEF753FE002801D072B6AC
:102A3000FEE706B010BD0000240100208032020035
:102A400030B518212DED108BE5B090ED02EB90ED37
:102A5000049B90ED068B90ED0ACB90ED0CBB90EDB6
:102A60000EAB5CA8FDF722FD602136A8FDF71EFD28
:102A70002022FC491EA8FDF7E7FC202116A8FDF73F
:102A800015FD202106A8FDF711FD20214EA8FDF718
:102A90000DFD50A9B0EE4E1AF0EE6E1AB0EE492AB6
:102AA000F0EE692AB0EE483AF0EE683A81EC061B87
:102AB0009DED4E0B01F086FE9FEDEB1B51EC100BD4
:102AC00053EC112B02F0B6FB7ED04EA801F0BBFEFA
:102AD000202126A8FDF7EAFC8DED28CB8DED2ABB41
:102AE0008DED2CABB6EE000A26A802F066F81EA803
:102AF00090EC100B01F05DFF26A880EC080B9DED1B
:102B0000228B9DED1E9B53EC182B51EC190B02F000
:102B1000CDFB9DED24AB9DED20BB41EC1C0B53EC9C
:102B20001A2B51EC1B0B02F0C1FB53EC1C2B02F0D7
:102B300093FD9FEDCFCB53EC1C2B02F0B7FB9DED2B
:102B4000501B53EC112B02F087FD41EC1E0B53EC94
:102B50001A2B8DED5CEB51EC180B02F0A7FB41EC4E
:102B60001D0B53EC1B2B51EC190B02F09FFB53EC8C
:102B70001D2B02F053F953EC1C2B02F097FB9DED3B
:102B8000521B53EC112B02F067FD41EC1D0B53EC73
:102B9000182B8DED5EDB51EC180B02F087FB41EC3E
:102BA0001F0B53EC1B2B51EC1B0B02F07FFB9FED1B
:102BB000B21B53EC112B02F077FC53EC1F2B02F0ED
:102BC0004BFD53EC1C2B00E048E102F06FFB9DED48
:102BD000541B53EC112B02F03FFD41EC1F0B8DED0C
:102BE00060FB9FEDA70B51EC180B53EC102B02F080
:102BF0005DFB41EC100B53EC1C2B8DED360B8DED7A
:102C0000560B51EC1A0B02F051FB0D4645EC100B24
:102C100004468DED380B8DED100B9FED990B51ECAB
:102C2000190B53EC102B02F041FB41EC100B53EC51
:102C30001C2B8DED3A0B8DED2E0B51EC1B0B02F086
:102C400035FB0B4643EC1A0B53EC1C2B8DED3CABC8
:102C500041EC1A0B51EC190B8DED3EAB02F026FB4B
:102C600041EC100B45EC194B8DED400B8DED580BE5
:102C70008DED429B53EC1C2B51EC180B02F016FB14
:102C800041EC100B8DED440B8DED0E0B9FED76CBD3
:102C90008DED46CB9FED7C0B51EC1B0B53EC102BB9
:102CA00002F004FB41EC100B8DED480B8DED020B97
:102CB0009FED750B51EC180B53EC102B02F0F6FA4C
:102CC00041EC100B53EC1F2B8DED4A0B8DED5A0B85
:102CD0008DED4CCB51EC1C0B02F0E8FA0D4604468E
:102CE00045EC180B53EC1D2B51EC1A0B02F0DEFADD
:102CF0009DED560B41EC1B0B53EC1E2B51EC100BB6
:102D000002F0D4FA53EC1B2B02F088F853EC182B8A
:102D100002F084F8CDE906019DED020B53EC1F2B68
:102D200051EC100B02F0C2FA9DED580B41EC180B60
:102D300053EC1D2B51EC100B02F0B8FA9DED109BDB
:102D400041EC1B0B53EC1E2B51EC190B02F0AEFAAD
:102D500053EC1B2B02F062F853EC182B02F05EF8D8
:102D6000CDE908019DED5A0B53EC1F2B51EC100BD4
:102D700002F09CFA41EC180B53EC1D2B51EC190B93
:102D800002F094FA9DED2E0B41EC190B53EC1E2B27
:102D900051EC100B02F08AFA53EC192B02F03EF8BA
:102DA00053EC182B02F03AF8CDE90A019DED0E0B19
:102DB00045EC184B53EC1D2B51EC100B02F076FA3E
:102DC00041EC190B53EC1E2B51EC1A0B02F06EFA6E
:102DD00053EC192B02F022F853EC182B02F01EF8DA
:102DE000CDE90C0106A801F02EFD9FED290B01F0A5
:102DF0003DFB9FED291B51EC100B53EC112B02F006
:102E000055FA9FED271B53EC112B02F04FFA01F0FE
:102E1000D3FF00EE100A06A801F0CFFE26A890EC22
:102E2000080B06A890EC084B16A801F0FFFE9FEDDA
:102E30001E0A16A801F0C1FE1EA90A4891EC080B53
:102E400016A991EC084B01F045FD064801F0FBFC8A
:102E50000449164891EC080B01F05CFB65B0BDEC31
:102E6000108B30BD2000002000000000000000009A
:102E70000000000000000040000000000000E03FF3
:102E800000000000000000C000000000000010C0B2
:102E9000000000000000E83F112D4454FB210940D0
:102EA00000000020C7719C3F6F12033B50000020C0
:102EB0002DE9F04F18212DED108BADF51D7D90ED16
:102EC0000A0B90ED02FB90ED04EB90ED06DB8DED2F
:102ED0001E0B90ED0CCB90ED0EBB90ED12AB90ED78
:102EE000149B90ED168B3EA8FDF7E0FA60214CA8EC
:102EF000FDF7DCFA182184A8FDF7D8FA602164A850
:102F0000FDF7D4FA2022FE4936A8FDF79DFA2021CC
:102F10002EA8FDF7CBFA202116A8FDF7C7FA20212D
:102F200022A8FDF7C3FA24A9B0EE4F1AF0EE6F1AEB
:102F3000B0EE4E2AF0EE6E2AB0EE4D3AF0EE6D3A5B
:102F400081EC061B9DED220B01F03CFC9FEDEDDBBF
:102F500051EC100B53EC1D2B02F06CF925D022A87C
:102F600001F071FC202144A8FDF7A0FA46A8B0EEBC
:102F70004A1AF0EE6A1AB0EE492AF0EE692AB0EE6B
:102F8000483AF0EE683A80EC061B9DED440B01F0E8
:102F900019FC9FEDDC1B51EC100B53EC112B02F0D4
:102FA00049F908D1D948FFF74BFD0DF51D7DBDEC62
:102FB000108BBDE8F08F44A801F045FC36A890ECDA
:102FC000080B01F0C6FC44A8B0EE404AF0EE604A9F
:102FD000B0EE415AF0EE615AB0EE437AF0EE637A09
:102FE000B0EE426AF0EE626A90EC080B01F0E1FC90
:102FF00036A8B0EE437AF0EE637AB0EE426AF0EEB5
:10300000626AB0EE415AF0EE615AB0EE404AF0EE1C
:10301000604A90EC080B01F0CCFCB0EE418AF0EE77
:10302000618AB0EE429AF0EE629AB0EE43DAF0EEC8
:1030300063DA20217CA8FDF739FA53EC192B51EC07
:10304000190B02F033F941EC190B53EC182B51EC2E
:10305000180B02F02BF953EC192B01F0DFFE41ECB9
:10306000100B01F003FA8DED7E0B8DED82DBB0EEDF
:1030700040FAF0EE60FA8DED20DB202106A8FDF786
:1030800015FA9DED1E0B8DED080B8DED0ACB8DED28
:103090000CBB9DED3A8B9DED36CB53EC182B51ECD0
:1030A0001C0B02F003F92A919DED3C9B9DED38BB72
:1030B000074641EC1A0B53EC192B51EC1B0B02F099
:1030C000F5F88A464AEC100B064653EC1A2B51ECE5
:1030D000100B02F0C1FA9FED8EAB53EC1A2B02F0ED
:1030E000E5F89DED241B53EC112B02F0B5FACDE968
:1030F0003E0153EC192B51EC180B02F0D7F88B461C
:1031000005464BEC1E0B53EC1B2B51EC1C0B02F039
:10311000CDF853EC1E2B01F081FE53EC1A2B02F07C
:10312000C5F89DED261B53EC112B02F095FACDE965
:10313000400153EC182B51EC180B02F0B7F88946FC
:10314000044649EC1E0B53EC1B2B51EC1B0B02F0FD
:10315000ADF89FED711B53EC112B02F0A5F953EC68
:103160001E2B02F079FA53EC1A2B02F09FF89DED1A
:10317000281B53EC112B02F06FFA9FED69EBCDE9A0
:10318000420153EC1E2B51EC180B02F08FF8CDE9E5
:103190004C0153EC1A2B51EC190B02F087F82C91CF
:1031A0008046CDE94E0153EC1E2B51EC1C0B02F076
:1031B0007DF8CDE9500153EC1A2B51EC1B0B02F0BA
:1031C00075F8CDE95201CDE9540153EC1A2B51ECBD
:1031D0001C0B02F06BF8CDE956012C9953EC1A2B1D
:1031E000CDE9588151EC180B02F060F89FED45EBEA
:1031F000CDE95A018DED5CEB9FED4BCB51EC1B0BF8
:1032000053EC1C2B02F052F8CDE95E0153EC1C2B61
:1032100051EC180B02F04AF8CDE960018DED62EB3C
:103220002A994AEC106B41EC117B51EC100B53ECDA
:10323000112B02F011FA41EC1B0B53EC1A2B51EC41
:103240001D0B02F033F88A464AEC100B804653EC13
:103250001B2B51EC100B02F029F841EC1B0B53EC2B
:10326000192B51EC190B02F021F849EC104B9FED92
:103270002A1B41EC1C0B53EC112B51EC100B02F0F0
:1032800013F953EC1C2B02F0E7F941EC1C0B53EC47
:103290001A2B51EC1F0B02F009F853EC1C2B02F017
:1032A00005F853EC1B2B01F0B9FD9DED461B53ECCB
:1032B000112B02F0D1F9CDE984019DED38BB9DEDD4
:1032C00036CB4BEC1D5B53EC1B2B51EC1C0B01F074
:1032D000EDFF53EC1D2B01F0A1FD9DED82DB9FED79
:1032E0000C0B41EC1E0B53EC102B51EC1D0B01F0A1
:1032F000DDFF0D46044645EC100B53EC1E2B17E08A
:10330000000000200000000000000000B0010020CC
:103310000000000000000040000000000000E03F4E
:1033200000000000000000C000000000000010C00D
:1033300051EC100B01F0BAFF41EC1F0B53EC192BB1
:1033400051EC1C0B01F0B2FF41EC1A0B53EC182BA3
:1033500051EC1B0B01F0AAFF53EC1A2B02F07CF985
:103360009DED7EAB1FED160B41EC1E0B53EC102BAD
:1033700051EC1A0B01F09AFF0F4647EC100B064672
:1033800053EC1E2B51EC100B01F090FF53EC1F2B54
:1033900001F044FD9DED481B53EC112B02F05CF94C
:1033A000CDE9860153EC182B51EC180B01F07EFF90
:1033B00041EC1E0B53EC1B2B51EC1B0B01F076FF69
:1033C0001FED2B1B53EC112B02F06EF853EC1E2B50
:1033D00002F042F941EC110B45EC104B53EC112B70
:1033E00051EC100B01F062FF41EC1E0B53EC192B5A
:1033F00051EC1B0B01F05AFF41EC1F0B53EC182B47
:1034000051EC1C0B01F052FF53EC1F2B01F006FD99
:1034100041EC100B47EC116B53EC102B51EC110BE2
:1034200001F044FF53EC1E2B01F0F8FC9DED4A1B0C
:1034300053EC112B02F010F941EC1E0B8DED88EBD3
:103440001FED49FB51EC1D0B53EC1F2B01F02EFF20
:1034500053EC182B01F02AFF45EC104BCDE9640129
:1034600053EC192B51EC100B01F020FF45EC104BE5
:10347000CDE9660153EC1C2B51EC100B01F016FF4B
:1034800041EC1C0B1FED580B51EC1A0B53EC102B9D
:1034900001F00CFF0F4647EC100B064653EC182BBF
:1034A00051EC100B01F002FF53EC1C2B02F0D4F88E
:1034B00045EC104BCDE9680153EC1B2B51EC100B84
:1034C00001F0F4FE47EC106B41EC180B53EC192B98
:1034D00051EC100B01F0EAFE53EC182B01F09EFCAE
:1034E00045EC104BCDE96A0153EC1B2B51EC100B52
:1034F00001F0DCFE41EC180B53EC1F2B51EC1A0BC6
:1035000001F0D4FE53EC192B01F0D0FE53EC182B34
:1035100001F084FCCDE96C019DED20DB1FED848B77
:10352000574647EC108B9DED36AB464653EC1A2BB5
:1035300051EC100B01F0BAFE9DED7ECB41EC190B66
:1035400053EC182B51EC1C0B01F0B0FE0D4645EC72
:10355000100B9DED3A8B044653EC182B51EC100BDD
:1035600001F0A4FE53EC192B01F058FCCDE96E01DB
:1035700047EC106B9DED3CBB51EC100B53EC1B2B3F
:1035800001F094FE45EC104B9DED389B41EC1F0B78
:1035900053EC192B51EC100B01F088FE53EC1F2B50
:1035A00001F03CFC47EC106BCDE9700153EC182B9B
:1035B00051EC100B01F07AFE41EC1F0B1FEDA80B34
:1035C00051EC1C0B53EC102B01F070FE53EC1A2B3A
:1035D00001F06CFE53EC1F2B01F020FC45EC104B6E
:1035E000CDE9720153EC182B51EC100B01F05EFE8B
:1035F00041EC1C0B8DED74CB9FEDFD0B51EC1D0BC5
:1036000053EC102B01F052FE0E4646EC100B074611
:1036100053EC192B51EC100B01F048FE45EC104B0C
:1036200041EC1D0B53EC1B2B51EC100B01F03EFE3B
:1036300053EC1D2B02F010F841EC1B0B46EC107BF9
:103640008DED76BB53EC182B51EC100B01F02EFED8
:1036500045EC104B41EC180B53EC1A2B51EC100BB2
:1036600001F024FE53EC182B01F0F6FF45EC104B53
:10367000CDE9780153EC192B51EC100B01F016FE3B
:10368000CDE97A019DED880B51EC1C0B53EC102B0E
:1036900001F00CFE9DED861B9DED6C0B41EC1D0BAE
:1036A00053EC112B51EC100B01F000FE9DED841B2F
:1036B0009DED640B41EC190B53EC112B51EC100BED
:1036C00001F0F4FD9DED421B9DED5C0B41EC1C0BEC
:1036D00053EC112B51EC100B01F0E8FD9DED401B5C
:1036E0009DED540B41EC180B53EC112B51EC100BCE
:1036F00001F0DCFD9DED3E1B9DED4C0B41EC1A0BEA
:1037000053EC112B51EC100B01F0D0FD53EC1A2BA4
:1037100001F084FB53EC182B01F080FB53EC1C2BC5
:1037200001F07CFB53EC192B01F078FB53EC1D2BC3
:1037300001F074FBCDE9160153EC1E2B51EC1B0B71
:1037400001F0B4FD9DED86CB9DED6E0B41EC1F0BA2
:1037500053EC1C2B51EC100B01F0A8FD41EC110BAC
:103760008DED2C1B9DED84BB9DED660B53EC1B2B4F
:1037700051EC100B01F09AFD41EC110B8DED8A1B01
:103780009DED42AB9DED5E0B53EC1A2B51EC100BF3
:1037900001F08CFD41EC110B8DED8C1B9DED409BE0
:1037A0009DED560B53EC192B51EC100B01F07EFDE7
:1037B0009DED3E8B9DED4E0B41EC1D0B53EC182BFC
:1037C00051EC100B01F072FD53EC1D2B01F026FBA8
:1037D0009DED8C1B53EC112B01F020FB9DED8A1B02
:1037E00053EC112B01F01AFB9DED2C1B53EC112B0C
:1037F00001F014FB53EC1F2B01F010FBCDE9180175
:103800009DED780B53EC1E2B51EC100B01F04EFD8F
:1038100041EC100B53EC1C2B8DED2A0B9DED700B26
:1038200051EC100B01F042FD41EC100B53EC1B2B43
:103830008DED2C0B9DED680B51EC100B01F036FD5E
:1038400041EC100B53EC1A2B8DED8A0B9DED600BA8
:1038500051EC100B01F02AFD9DED580B41EC1F0BB4
:1038600053EC192B51EC100B01F020FD9DED500B8A
:1038700041EC1D0B53EC182B51EC100B01F016FD15
:1038800053EC1D2B01F0CAFA53EC1F2B01F0C6FAC2
:103890009DED8A0B53EC102B01F0C0FA9DED2C0B23
:1038A00053EC102B01F0BAFA9DED2A0B53EC102BC0
:1038B00001F0B4FACDE91A019DED7A0B53EC1E2B01
:1038C00051EC100B01F0F2FC9DED720B41EC1D0B65
:1038D00053EC1C2B51EC100B01F0E8FC9DED6A0B36
:1038E00041EC1C0B53EC1B2B51EC100B01F0DEFCDC
:1038F0009DED620B41EC1B0B53EC1A2B51EC100BA2
:1039000001F0D4FC9DED5A0B41EC1A0B53EC192B32
:1039100051EC100B01F0CAFC9DED520B41EC190B60
:1039200053EC182B51EC100B01F0C0FC53EC192B8D
:1039300001F074FA53EC1A2B01F070FA53EC1B2BC4
:1039400001F06CFA53EC1C2B01F068FA53EC1D2BC0
:1039500001F064FACDE91C0116A800F074FF36A846
:1039600090EC080B00F0F5FF16A890EC084B01F066
:1039700020F80EA880EC080B9FED1F0A01F01DF93E
:103980001E4C0EA804F1180190EC084B04F118002D
:1039900091EC080B00F09EFF9FED190A04F118004E
:1039A00001F00BF9183406A894EC084B90EC080BC6
:1039B00001F03CF9B6EE000A06A801F0FEF836A8C0
:1039C00090EC080B06A890EC084B00F0F2FF06A85C
:1039D00080EC080B9FED0B0B00F048FD9FED0B1BDF
:1039E00051EC100B53EC112B01F060FC12E00000C5
:1039F00000000000000010406F12833B50000020C8
:103A00008FC2753C000000000000E83F112D4454B7
:103A1000FB2109409FED191B53EC112B01F046FCD3
:103A200001F0CAF900EE100A16A801F0C6F806A8BF
:103A300090EC080B16A890EC084B2EA801F0F6F8B5
:103A40009FED100A2EA801F0B8F836A90E4891ECA7
:103A5000080B2EA991EC084B00F03CFF0A4800F03F
:103A6000F2FE0949A4F1180091EC080B00F052FD98
:103A70000DF51D7DBDEC108BBDE8F08F0000002022
:103A8000C7719C3F6F12033B00000020FEE7FEE77A
:103A900070477047FDF7A0BA30B593B03021684643
:103AA000FCF704FD14210CA8FCF700FD1C480024C1
:103AB000016841F080510160006800F08050119071
:103AC0001848016841F4804101600068022500F453
:103AD00080401190012003901020049000950695DD
:103AE0000820CDE907404820CDE9090504200B90C6
:103AF0006846FDF7F7FB08B172B6FEE70F20CDE987
:103B00000C054FF48050CDE90E4002210CA8109412
:103B1000FDF7FCFA002801D072B6FEE713B030BD05
:103B200040380240007000400248016841F47001D2
:103B30000160704788ED00E00148FDF718BF000004
:103B400024010020F0B50268254C264D264E274F53
:103B5000274B4FF0804CA04209D0604507D0A842C7
:103B600005D0B04203D0B84201D0984204D122F02F
:103B7000700E4A6842EA0E02A0421BD0604519D07E
:103B8000A84217D0B04215D0B84213D0984211D0F5
:103B9000184DA8420ED0184DA8420BD0174DA84280
:103BA00008D0174DA84205D0164DA84202D0164D98
:103BB000A84203D122F44075CA682A434D6922F015
:103BC00080022A4302608A68C2620A688262A04256
:103BD00001D0984201D10969016301214161F0BD21
:103BE000000001400004004000080040000C0040BC
:103BF00000040140004001400044014000480140F1
:103C000000180040001C00400020004010B58468EF
:103C100042EA032224F47F440A432243826010BD17
:103C2000826822F070020A4342F007018160704707
:103C3000F0B5026A22F001020262036A42688469F6
:103C4000124E24F073050C682C4323F002058B6898
:103C50002B430D4DA84201D0B04205D123F00807F7
:103C6000CB683B4323F00403A84201D0B04205D106
:103C70004D6922F4407215438A692A434260846187
:103C8000496841630362F0BD000001400004014047
:103C9000F0B5026A22F010020262026A4368846987
:103CA0000D6824F4E64444EA05248D6822F02002DD
:103CB00042EA05120F4D104EA84201D0B04206D183
:103CC000CF6822F0800242EA071222F04002A842A6
:103CD00001D0B04207D14D6923F4406343EA850324
:103CE0008D6943EA850343608461496881630262A8
:103CF000F0BD00000000014000040140F0B5026A80
:103D000022F480720262026A4368C46922F400727B
:103D100024F073050C68124E2C438D6842EA05228C
:103D20000E4DA84201D0B04206D1CF6822F4006205
:103D300042EA072222F48062A84201D0B04207D1B1
:103D40004D6923F4405343EA05138D6943EA051393
:103D50004360C4614968C1630262F0BD0000014074
:103D60000004014030B5026A22F480520262046A03
:103D70004268C3690D6823F4E64343EA05238D686E
:103D800024F4005444EA0534084DA84202D0084DFA
:103D9000A84204D14D6922F4804242EA8512426071
:103DA000C36149680164046230BD00000000014045
:103DB0000004014010B5036A046A24F0010404629F
:103DC000846924F0F00444EA021423F00A020A434E
:103DD0008461026210BD10B5036A23F01003036210
:103DE0008369046A23F4704343EA023224F0A00397
:103DF00043EA01118261016210BD10B5806B0021A0
:103E0000C185C184FDF744FF10BD01680C3151E844
:103E1000002F22F4907241E80023002BF5D10168B5
:103E2000143151E8002F22F0010241E80023002B59
:103E3000F5D1016B012909D101680C3151E8002F3E
:103E400022F0100241E80023002BF5D1202180F858
:103E50003E1000210163704708B590F83E102229FA
:103E600001D0022008BD82684FF480539A4201D1EC
:103E7000016921B1816A9A421BD04AB10AE0026805
:103E8000816A5268C2F308020A80816A891C08E0CC
:103E9000026972B10268526802F07F020A70816A98
:103EA000491C8162C18D491E0904090CC18503D0DA
:103EB00019E002685268F1E70168CA6822F020023E
:103EC000CA600168CA6822F48072CA6001684A69DF
:103ED00022F001024A61202180F83E10016B012985
:103EE00003D0FEF779F8002008BD002101630168C6
:103EF0000C3151E8002F22F0100241E80023002B82
:103F0000F5D101680A68D20602D50A6849680091AD
:103F1000818DFDF7BCFEE6E770B5044600680169D7
:103F2000E26821F44051114301612169A068E2690E
:103F300008436169114308432168CA6849F20C6368
:103F40009A430243CA6020684169A26921F4407122
:103F50001143416131492068884202D0304988428A
:103F600002D1FDF77DF901E0FDF76AF9E26900236E
:103F7000192164253226B2F5004F626828D0A0FBD3
:103F80000101930F9200FCF773F90146B0FBF5F0C5
:103F90006FF01802504301EB800006EB0010B0FBFD
:103FA000F5F000F0F002B1FBF5F002EB0012B1FB0E
:103FB000F5F06FF01803584301EB800006EB00109A
:103FC000B0FBF5F000F00F0021681044886070BD70
:103FD000A0FB010192185B41FCF74AF90146B0FBD6
:103FE000F5F00201B1FBF5F06FF01803584301EB57
:103FF000800006EBC000B0FBF5F000F0F80002EB2B
:104000004002B1FBF5F0584301EB800006EBC00025
:10401000B0FBF5F000F00700D6E70000001001400B
:10402000001401402DE9F041984617460E4604461B
:10403000069D27E0681C25D02DB1FCF783FCA0EB82
:104040000800A8421ED920680C3050E8001F21F457
:10405000D07140E80012002AF5D12068143050E8F1
:10406000001F21F0010140E80012002AF5D12020B4
:1040700084F83D0084F83E00002084F83C000320D2
:10408000BDE8F0812068006836EA000004D0002016
:10409000B842CFD00020F3E70120F9E70148FDF74F
:1040A000F9BD00006C010020FEE74100080218BFC6
:1040B00004200A0E18BF40F001004FF07F4232EAA0
:1040C000010108BF40F00200012808BF0520704729
:1040D0000907090E002804DB00F1E02080F8001435
:1040E000704700F00F0000F1E02080F8141D7047C9
:1040F00010B54FF00E402DED028BB0EE408A18EE59
:10410000104A00EB4400B0F1506F4AD84FF0FC4029
:10411000B0EB440F22D2B0EEC80AF7EE000A30EE40
:10412000C00AF6EE000A60EE208A18EE900A00F04F
:1041300017FE01EE100A14F0004F1DBFDFED2D0A2F
:104140009FED2D0AB1EE411ADFED2C0A08BF9FED5D
:104150002C0AF8EE001A21EE218A05E0DFED290A8B
:1041600068EE088AB0EE600A9FED271ADFED271A85
:1041700030EE080A48EE811A9FED251A08EEA11AC2
:10418000DFED241A48EE811A9FED231A08EEA11ADA
:1041900068EE281ABDEC028B01EE810A30EE200A8F
:1041A00010BD4FF0E440B0EB440F0CD918EE100AEC
:1041B000FFF77BFF042808BF00F0A4F9B0EE480A1F
:1041C000BDEC028B10BD4FF07F40B0EB440F07D227
:1041D000B0EE480ABDEC028BBDE8104000F083B998
:1041E0000120FCF792F9BDEC028BBDE8104000F015
:1041F00081B900000000C9BF22AAFDB90000C93F73
:1042000022AAFD390000000024FE1C3DC78AD83CCC
:104210001E67383D1B93993DAFAA2A3E10EE100A47
:1042200010B510EE901A4FF0684202EB40032DEDEE
:10423000028BB3F1654F3CBF02EB4102B2F1654F17
:104240007CD200BFC0F3C753C1F3C7529A1A1B2ACE
:1042500009DD10F0004F14BF9FED6E0A9FED6E0A4E
:10426000BDEC028B10BD12F11A0F1BDA11F0004FDA
:1042700009D010F0004F0CBF9FED680A9FED680A4F
:10428000BDEC028B10BD80EE208A18EE100AFFF7FD
:104290000CFF042808BF00F035F9B0EE480ABDEC69
:1042A000028B10BD4200B2EB410F37D910F0004F26
:1042B00019BFDFED5C1A9FED5C1ADFED5C1A9FED14
:1042C0005C1AB0EE602A0A46F1EE400A80F0004126
:1042D000B0EE420A10460A1A5200B2F1807F34D280
:1042E000484010F0004FDFED532A9FED533A1DBFB9
:1042F000BEEE002A71EEE21A31EE431AB6EE002A43
:1043000004BF71EEA21A31EE031AF0EE402A42EE1B
:10431000602A40EE020A82EEA02A18E011F0004F57
:1043200004BF9FED461AF0EE411AD4D010F0004FB2
:104330001CBFDFED431A9FED431A00E026E004BFE7
:10434000DFED411A9FED411AC5E780EE202A22EEEB
:10435000020ADFED3F0ADFED3F2ABDEC028B40EEA3
:10436000202ADFED3D0A40EE220ADFED3C2A40EE36
:10437000202ADFED3B0A40EE220A22EE000A00EE80
:10438000201A31EE020A30EE210A10BD4FF07F42B2
:10439000B2EB400F28BFB2EB410F05D2BDEC028B50
:1043A000BDE8104000F0A2B840EA01035B0008BF7E
:1043B00041F0FF410BD0B2EB400F08BFB2EB410F11
:1043C00008D120F0804000EE100A21F0804100EE7C
:1043D000901A37E7B2EB400F12BF5FEA410240F09C
:1043E000FF4001F000413FF42DAF4A0092EA400344
:1043F0003FF528AF002AACBF9FED1A1A9FED1A1A9D
:1044000020EE010A60EE810A10EE100A10EE901AFA
:1044100018E70000DB0FC9BFDB0FC93FDB0F4940C6
:10442000DB0F49C00000C9BF22AAFDB90000C93F87
:1044300022AAFD390060ED3EC30ACE37000000001D
:10444000000049C022AA7DBA0000494022AA7D3A54
:104450002DAD65BD8FB8D53D0FB511BE61C84C3EC1
:10446000A8AAAABE0000804F0000802F00B52DED45
:10447000048BB0EE409AF0EE609A83B051EC190BC9
:1044800001F01EF841EC180B18EE100A18EE901A05
:104490008DED008B002818BF0120084320F000405C
:1044A000C0F17F6000F1E040C00F14D019EE101A87
:1044B00019EE900A8DED009B002918BF01210843D9
:1044C00020F00040C0F17F6000F1E040C00F04BF69
:1044D0000120FCF71AF8B0EE480A03B0F0EE680AC3
:1044E000BDEC048B00BD30EE000A704730EE200AB0
:1044F00070470000DFED020A80EEA00A704700005E
:10450000000000009FED020A20EE000A7047000044
:10451000000000102DE9F04105462DED108BB0EEA6
:1045200041AAF0EE61AAB0EE409AF0EE609AB0EEC9
:1045300042BAF0EE62BAB0EE438AF0EE638A9FEDC3
:1045400071CB51EC1A0B53EC1C2B00F0AFFE8846DC
:1045500048EC100B064653EC1A2B51EC100B00F0F4
:10456000A5FE41EC1D0B53EC1C2B51EC190B00F07C
:104570009DFE0F4647EC100B044653EC192B51ECF3
:10458000100B00F093FE53EC1D2B00F047FC9FED49
:104590005FFB53EC1F2B01F05FF800F00DFC47ECC4
:1045A000104B0DEE100A53EC182B51EC100B00F0D1
:1045B0007DFE48EC106B41EC1E0B53EC1B2B51ECB9
:1045C000100B00F073FE53EC1E2B01F045F800F0C9
:1045D000F3FB00EE100AF0EE4D0AFFF71FFE10EE9F
:1045E000100A01F023F947EC104BC5E9040153EC24
:1045F0001B2B51EC100B00F059FE48EC106B41ECFA
:104600001D0B53EC182B51EC100B00F04FFE53EC2C
:104610001D2B00F003FC00F0CFFB00EE100AFFF7AB
:1046200067FDB1EE400A10EE100A01F0FFF8C5E98F
:10463000020153EC1C2B51EC180B00F037FE53EC2D
:10464000182B00F033FE47EC104B41EC1D0B53ECE4
:10465000192B51EC100B00F029FE53EC1D2B00F030
:10466000DDFB53EC1F2B00F0F7FF00F0A5FB47EC40
:10467000104B0DEE100A53EC1A2B51EC100B00F0FE
:1046800015FE41EC190B53EC1C2B51EC1B0B00F0ED
:104690000DFE53EC182B00F009FE53EC192B00F023
:1046A000DBFF00F089FB00EE100AF0EE4D0AFFF789
:1046B000B5FD10EE100A01F0B9F895ED040B9FED71
:1046C000158B41EC190B53EC182B51EC100B00F02F
:1046D000EDFDC5E9040195ED020B53EC182B51ECEF
:1046E000100B00F0E3FDC5E9020153EC182B51EC6F
:1046F000190B00F0DBFDC5E90001BDEC108BBDE836
:10470000F0810000000000000000004000000000F8
:104710000000F03F00C2631ADCA54C40FCF764FCCB
:10472000FFF7BAF9FEF78CF823482249002401600C
:104730002249C0E901144FF48041C0E903414461BA
:104740008461C4610462FCF703F908B172B6FEE744
:10475000FEF7C6F8FEF740F917481949E430016042
:104760004FF4E131C0E901140C21C460C0E90441F7
:104770008461C461FDF7C2FB08B172B6FEE700F0C8
:1047800095FA0D48FDF7EFFE0128FAD00A48FDF72B
:10479000CAFE00F08BFA0848FDF77AFC0648FDF7E0
:1047A00040FF0548FDF788FE03489C30FDF730F8D0
:1047B000FEE700000054004088000020801A060038
:1047C0000014014010B553EC132B2DED088BB0EE07
:1047D000408AF0EE608AB0EE419AF0EE619AB0EE57
:1047E00042AAF0EE62AA51EC130B00F05FFD41EC1F
:1047F0001B0B53EC1A2B51EC1A0B00F057FD41EC3C
:104800001A0B53EC192B51EC190B00F04FFD41EC36
:10481000190B53EC182B51EC180B00F047FD53EC1F
:10482000192B00F0FBFA53EC1A2B00F0F7FA53ECBB
:104830001B2B00F0F3FABDEC088B41EC100BBDE82C
:104840001040FFF713BE70B5044690EC080BFFF75D
:10485000B9FF51EC100B00F0AFFA054600F0E6FF8F
:1048600041EC100B94ED001B53EC102B51EC110B91
:1048700000F088FBC4E90001284600F0D7FF41ECB6
:10488000100B94ED021B53EC102B51EC110B00F0AC
:1048900079FBC4E90201284600F0C8FF41EC100B87
:1048A00094ED041B53EC102B51EC110B00F06AFB40
:1048B000C4E90401284600F0B9FF41EC100B94ED67
:1048C000061B53EC102B51EC110B00F05BFBC4E901
:1048D000060170BD10B504462DED0C8BB0EE458A77
:1048E000F0EE658AB0EE469AF0EE669AB0EE47AA10
:1048F000F0EE67AAB0EE41BAF0EE61BAB0EE42CA8D
:10490000F0EE62CAB0EE43DAF0EE63DA53EC142B49
:1049100051EC100B00F082FAC4E9000153EC182BA3
:1049200051EC1B0B00F07AFAC4E9020153EC192B8D
:1049300051EC1C0B00F072FAC4E9040153EC1A2B81
:1049400051EC1D0B00F06AFAC4E90601BDEC0C8BBA
:1049500010BD10B551EC110B2DED088BB0EE40BA27
:10496000F0EE60BAB0EE428AF0EE628AB0EE439AA0
:10497000F0EE639A00F013FA41EC1A0B51EC180BAD
:1049800000F00DFA41EC180B51EC190B00F007FA8E
:10499000B0EE4B0AF0EE6B0AB0EE4A1AF0EE6A1A6D
:1049A000B0EE482AF0EE682ABDEC088B41EC130B00
:1049B00010BD00B52DED108BB0EE47FAF0EE67FAA2
:1049C000B0EE43EAF0EE63EA9BB0B0EE449AF0EE4C
:1049D000649AB0EE45BAF0EE65BAB0EE46DAF0EEA3
:1049E00066DAB0EE408AF0EE608AB0EE41AAF0EEF0
:1049F00061AAB0EE42CAF0EE62CA53EC1F2B51EC32
:104A00001E0B00F053FC41EC100B53EC1D2B8DEDF5
:104A1000040B51EC1C0B00F049FC41EC100B53EC67
:104A20001B2B8DED020B51EC1A0B00F03FFC41ECFF
:104A3000100B53EC192B8DED000B51EC180B00F003
:104A400035FC9DED000B53EC102B00F005FE9DEDA9
:104A5000020B53EC102B00F0FFFD9DED040B53EC0B
:104A6000102B00F0F9FD41EC100B53EC1D2B8DEDDC
:104A7000000B51EC1E0B00F019FC41EC100B53EC39
:104A80001F2B8DED160B51EC1C0B00F00FFC41ECB5
:104A9000100B53EC192B8DED040B51EC1A0B00F09D
:104AA00005FC41EC100B53EC1B2B8DED020B51EC74
:104AB000180B00F0FBFB9DED020B53EC102B00F0EC
:104AC000ADF99DED040B53EC102B00F0A7F99DED13
:104AD000160B53EC102B00F0BFFD41EC100B53EC08
:104AE0001B2B8DED020B51EC1E0B00F0DFFB41EC9C
:104AF000100B53EC192B8DED180B51EC1C0B00F027
:104B0000D5FB41EC100B53EC1F2B8DED160B51EC2C
:104B10001A0B00F0CBFB41EC100B53EC1D2B8DED71
:104B2000040B51EC180B00F0C1FB9DED040B53EC92
:104B3000102B00F091FD9DED160B53EC102B00F0A7
:104B40006DF99DED180B53EC102B00F067F941EC5B
:104B5000100B53EC192B8DED040B51EC1E0B00F0D8
:104B6000A5FB41EC190B53EC1B2B51EC1C0B00F07B
:104B70009DFB41EC1B0B53EC1D2B51EC1A0B00F071
:104B800095FB41EC1A0B53EC1F2B51EC180B00F06A
:104B90008DFB53EC1A2B00F041F953EC1B2B00F06A
:104BA0005BFD53EC192B00F039F99DEC060B1BB0A3
:104BB00041EC130BBDEC108B00BD10B504462DED80
:104BC000028BB0EE408A18EE100A00F02FFE94ED32
:104BD000001B53EC112B00F069FBC4E9000118EE37
:104BE000100A00F023FE94ED021B53EC112B00F091
:104BF0005DFBC4E9020118EE100A00F017FE94ED07
:104C0000041B53EC112B00F051FBC4E9040118EE16
:104C1000100A00F00BFE94ED061B53EC112B00F074
:104C200045FBC4E90601BDEC028B10BD10B504467E
:104C30002DED0C8BB0EE458AF0EE658AB0EE469A0B
:104C4000F0EE669AB0EE47AAF0EE67AAB0EE41BA6F
:104C5000F0EE61BAB0EE42CAF0EE62CAB0EE43DAEC
:104C6000F0EE63DA53EC142B51EC100B00F0F4FC73
:104C7000C4E9000153EC182B51EC1B0B00F0ECFCC9
:104C8000C4E9020153EC192B51EC1C0B00F0E4FCBD
:104C9000C4E9040153EC1A2B51EC1D0B00F0DCFCB1
:104CA000C4E90601BDEC0C8B10BD000010B592B03C
:104CB0001C216846FBF7FAFB1BA01C220068119020
:104CC0001AA107A8FBF7C0FB1FA20EAC07CA84E815
:104CD000070064231A2207A91E48FDF77FF9012463
:104CE0001C48610005230322E438FBF7F5FE18B1E8
:104CF0006423042211A907E0224617A16846FBF7A6
:104D00002FFB6423192269461248FDF767F9641CDA
:104D1000E4B2802CE4D364230B220EA90D48FDF7E6
:104D20005DF912B010BD0000202D20005374617297
:104D300074696E6720493243205363616E6E696EF9
:104D4000673A200D0A000000446F6E6521200D0AAD
:104D50000D0A00006C01002030782558000000008A
:104D600010B500EE100A2DED028BB1EEC08A18EEE0
:104D7000100A20F00040C0F1FF40C00F0AD010EE32
:104D8000100A20F00040C0F1FF40C00F04BF012016
:104D9000FBF7BBFB18EE100ABDEC028B10BD81F0D7
:104DA0000041704780F00040704721F0004170479B
:104DB00020F000407047000021F00042A2F1605254
:104DC000B2F5801F01F0004328BFD2F17F6C0BD9F0
:104DD0005FEA001C43EAC20242EB507018BF704702
:104DE00028BF20F001007047B2F5801FBCBF1846F5
:104DF00070474FEA410C1CF5001F02D2084600F034
:104E00008BBD70B500F0FCFA00000089FFF7F6BF1B
:104E10004FF00040A0F580007047000010B591EA07
:104E2000030F48BF83F0004300F11E84841A71EB26
:104E3000030C05D2121943EB0C03001B61EB0C01B0
:104E4000DFF824E14FEA1154A4EB135C1EEA430F90
:104E500018BF9EEA445F73D023EA0E03DCF1200EF4
:104E600021EA045143F4801332D322FA0CFE10EBF2
:104E70000E0023FA0CFE41EB0E01CCF1200E03FADA
:104E80000EFE10EB0E0051F10001B1F5801FCCF1C8
:104E9000200E32D201EB045112FA0EF2BDE810409E
:104EA00058BF7047401C38BF5FEA420218BF7047C6
:104EB000002814BF20F0010041F100014FEA410336
:104EC00013F5001F38BF7047A1F1C04100F0E6BAEA
:104ED000012A43EB0302ACF1200CDCF11F0E32BFC0
:104EE0004FF0000E23FA0CF310EB030041EB0451DA
:104EF000B4EB115FD0D0A1EB045101F5801149084A
:104F00005FEA300001EB04510ED350F1000038BFCE
:104F100012FA0EFE08D1BDE81040C9E7401C38BFA8
:104F20005FEA4202CAD1C3E7BDE810404FEA41033D
:104F300013F5001F38BF7047A1F1C04100F0AEBAB1
:104F40009EEA445F08D011EA5E0FBDE8104004BF3E
:104F500001F0004100207047BDE8104070B500F03E
:104F60004FFA00BF64FBBE3E0000E0FF491058BF8F
:104F7000C1F140415B1058BFC3F140438B42EFF396
:104F8000008070472DE9C04130B4DFF8A0C23CEA90
:104F9000111418BF3CEA131400F0EC8081EA0305F9
:104FA0001CEA111444EAD57418BF1CEA131500F06A
:104FB000C780A4EB05044FF0004545EAC12145EA4E
:104FC000C32341EA505143EA525304F17F7499429A
:104FD00004F500344FEAC0204FEAC22208BF9042D5
:104FE00000F09C804FEA13650FF24016765D4FEAA1
:104FF000134506FB05F7C7F1807706FB07F74FEA75
:10500000D737A7FB03687642C8F58038A7FB06CEE2
:1050100038BFA8F1010807FB08E64FF0000EA6FB19
:10502000028CE6FB03CEDCF1000CCEF1004E38BF63
:10503000AEF1010EA6FB0C584FF000074FF0000533
:10504000E6FB0E87A1FB08C6A0FB07CE16EB0E06FB
:1050500045F10005E1FB076515F1E04E7EBFA4F5C3
:1050600080345FEA46066D4116F1800745F1000580
:105070004FEA17274FEA066647EA0567A6F1DE46BC
:10508000B6F1805F4FEA15251FD9384624F0010C90
:1050900005EBC471BCF1FE6F01EB0C1102D8F0BC42
:1050A000BDE8008124425CBF01F5801E9EEAC47FFA
:1050B00002D4F0BCBDE80081244238D4F0BCA1F198
:1050C000C041BDE8004100F0E9B94FEAD22242EA0E
:1050D00043524FEAD323A7FB02864FEAD02040EA8F
:1050E000415007FB03661EEA0E0F4FEAD12105FB74
:1050F000026658BFA6EB0056B6EB00564FEA520EBA
:105100004EEAC37E18EB0E0E56EB530EBDD518EBD0
:1051100002085E417F1C55F10005B6E74FF480158B
:105120004FF000074FF000064FF00008ADE7F0BC6D
:105130004FF0000001F1C04101F00041BDE80081E5
:1051400011EA0C1F0CEA131500D00CE013EA0C1F37
:1051500000F025804FF00000F0BC81EA030101F06F
:105160000041BDE80081F0BCBDE8004181EA0301D7
:1051700000F094B9F0BCBDE8004170B500F040F912
:10518000097EFC3E00F007B881EA03014FF0000001
:1051900001F00041704781EA030100F07FB9F0BCE3
:1051A000BDE800414FF0000021497047FFFDFBF9C9
:1051B000F7F5F4F2F0EEEDEBE9E8E6E4E3E1E0DE4A
:1051C000DDDBDAD8D7D5D4D3D1D0CFCDCCCBCAC8BC
:1051D000C7C6C5C4C2C1C0BFBEBDBCBBBAB9B8B7E3
:1051E000B6B5B4B3B2B1B0AFAEADACABAAA9A8A8D6
:1051F000A7A6A5A4A3A3A2A1A09F9F9E9D9C9C9BA4
:105200009A9999989797969595949393929191904E
:105210008F8F8E8E8D8C8C8B8B8A898988888787DF
:105220008685858484838382828181800000FF0754
:105230000000F87F51EA030C17D41CF5801F58BFFB
:10524000BCF5801F00F10680994218BF704708BF67
:105250009042704707D711F5801F58BF13F5801F84
:1052600019D499427047894270471CF5801F08D5B0
:10527000BCF5801FF7D58B4218BF704708BF82422C
:1052800070474FF4001C1CEB410F38BF1CEB430F61
:1052900001D28B42704770B500F0B2F892244900F9
:1052A0004FF000514FF08053FFF760BEDFF848C168
:1052B00070B51CEA111E1EBF1CEA13159EEA0C0FE6
:1052C00095EA0C0F00F06F8081EA030423EA4C1387
:1052D0004EEAD47E21EA4C1141F4801143F480134C
:1052E000AE44A1FB024CA0FB0365AEF17F7E3619F4
:1052F00055EB0C05A1FB034C4CF10003A0FB021C79
:1053000016EB0C06654153F10003094218BF46F045
:10531000010613F4007F0BD14FEA03314FEA053049
:10532000340341EA155140EA16506FF003020AE0D7
:105330004FEAC3214FEAC520F40241EA555140EA41
:1053400056506FF0020202EB2E4201EB025585EA45
:10535000CE710AD05FEA440C18BF24F0004450F12B
:10536000000041F1000120EAD47040F2FE7C624569
:1053700000D270BDA84214BF4FF080444FF04044AB
:10538000002E08BF0024BEF1806FA8BFA1F1C0416C
:10539000BDE8704080F282804FF0000001F1C04112
:1053A00001F0004170479EEA0C0F0CEA131518BF7C
:1053B00095EA0C0F06D04FF0000081EA030E0EF0C4
:1053C000004170BD00F01CF88900013E00F007B8F4
:1053D00000F009B84FEA430C5FEA5C5C08D081EA50
:1053E000030100F05BB84FEA410C5FEA5C5CF6D168
:1053F0004FF00000014970470000FF070000F87FF0
:105400000EF1020E2EF0030E5EF8046B364205D448
:10541000012A43EB030515F5001F12D8012841EBC3
:10542000010C1CF5001F0CD80ED14FEAD17C15F5EC
:10543000001F0CEB4C0C0CF1020C08BF4CEBD37CA6
:1054400004E04FF0080C01E04FEAD37C0CEB4C0574
:1054500026FA05F606F00706B6F1040C06D20EEBA6
:10546000860CBDE870404CF0010C6047DFE80CF0A2
:10547000090B02024FF000414FF00000A1F500219E
:1054800070BD19461046012851EB010418BFD4F530
:10549000001484BF002001F0004170BD0808A0F591
:1054A00000114FEA3101704791EA030F10B581F006
:1054B00000413FF5BBAC83F0004300F0D5B80000DD
:1054C0002DE9F04101F5801CBCF5001FC0F2A98058
:1054D0004FEA115C21EA0C510CF1FD0C41F48011F2
:1054E0005FEA5C0C0CF5C07C01D34000494130A45C
:1054F000890241EA905187028E0E0A0CA45D04FBDA
:1055000004F602FB06F6C6F14046A4FB0662F60D61
:1055100046EA422606FB06F4A4FB01235242C3F1ED
:10552000404338BF5B1EA6FB02420024E6FB032477
:10553000D20B42EA4446A6FB0623A1FB02E2A3FBF0
:1055400007E4E3FB61426442C2F1404E38BFAEF172
:10555000010EA6FB04234FF00002E6FB0E32A2FB75
:1055600003463400E2FB6264A1FB06E6A4FB07E805
:10557000E4FB61687642C8F1405838BFA8F10108E1
:10558000A2FB06E4A3FB08E5E2FB6854A1FB05E6E9
:10559000A7FB04E8E1FB648618F1200556F100063C
:1055A000A809A8F11B08B10908F03F08B8F10A0FD3
:1055B00040EA86601CD901EB0C51BDE8F08100BFC8
:1055C000FCF5EEE8E2DDD8D3CFCBC7C3C0BDB9B69A
:1055D000B4B1AEACA9A7A5A3A19F9D9B9A9896959F
:1055E0009392908F8D8C8B89888786858483828126
:1055F000A0FB006800FB01F208EB4208B8EB87282B
:1056000007D5341858EB0104D5D5401C51F10001E1
:10561000D1E7341A78EB0104CDD4401E71F10001BA
:10562000C9E75FEA4C0C5FEA9C5C0DD105D34FF0F3
:10563000000001F00041BDE8F081BDE8F04170B527
:10564000FFF7DEFE6DDBFFBEBDE8F0414FF000006E
:10565000004970470000F87F10B591EA030F48BF7A
:1056600083F000433FF5E2AB841A71EB030C07D2E1
:1056700012198CF0004C43EB0C03001B61EB0C0186
:10568000DFF8A4E14FEA1154A4EB135C1EEA430FC8
:1056900018BF9EEA445F00F0B08023EA6E035242D6
:1056A00021EA0451C3EB6E0338BF5B1EDCF1200E10
:1056B00025D322FA0CFE10EB0E0043FA0CFE41EB50
:1056C0000E01CCF1200E03FA0EFE10EB0E0051F18C
:1056D0000001CCF1200E29D412FA0EF201EB045194
:1056E000BDE8104058BF7047401C1CBFB2F1004FCE
:1056F000704700280CBF491C20F00100704712EBD6
:10570000020E43EB030218BF4FF0010E4EEA4202B5
:10571000ACF1200CDCF11E0E54D943FA0CFE10EB58
:105720000E0051F1FF31CCF11E0ED5D50EF1010E58
:1057300012FA0EFE404141EB010101EB445C5FEACD
:105740005C5C10D910EBDE7001EB045138BFBEF188
:10575000004FBDE8104018BF704700280CBF491C1F
:1057600020F00100704730D24FEAD42C11F500111F
:1057700024F400641BD0B1FA81F20B3AA41AA41EDF
:10578000D2F12003914030FA03F31943904001EB2A
:10579000CC71002C01EB0451BDE81040A8BF70474C
:1057A00001F1C0414FF0000001F000417047B0FA34
:1057B00080F310FA03F100D110BDE41A173C48053C
:1057C000C90AE4E701EB045110BD491001EB045193
:1057D000BDE810404FEA300002E04FF00001704792
:1057E0004A0008BF0042F8D0B2F5001F28BF70473A
:1057F00001F000414FF0000070479EEA445F07D07F
:1058000011EA5E0FBDE8104004BF00210020704780
:10581000BDE8104070B5FFF7F3FD00BF40DFF63E76
:1058200083F00041104670470000E0FF43004FEA5C
:10583000D30C4FEA3C0C43401FBF40070CF16051B2
:1058400013F0FE4F70471CF0006F03D100200CF0E6
:10585000004170470CF0004343EA507010B540EA35
:10586000CC0000F00EF800BF000000924FEA0001EB
:10587000FFF714BE4FF000414FF00000A1F50021EA
:1058800070470EF1020E2EF0030E5EF8044B244218
:1058900004D44FEA4102B2F17F4F11D84FEA4003DE
:1058A000B3F17F4F0CD80ED14FEAD07CB2F17F4FCD
:1058B0000CEB4C0C0CF1020C08BF4CEBD17C04E05F
:1058C0004FF0080C01E04FEAD17C0CEB4C0324FABA
:1058D00003F404F00704B4F1040C06D20EEB840CBC
:1058E000BDE810404CF0010C6047DFE80CF0070801
:1058F00002024FF00040A0F5800010BD08464200B3
:1059000018BFD2F1807288BF00F0004010BD4FF088
:105910004070E1EE100A7047FF2141EAD050C00507
:1059200070470000000000000000010203040607A9
:10593000080900000000010203043031323334351D
:1059400036373839414243444546403058003031BB
:1059500032333435363738396162636465664030D6
:10596000780000008459000800000020500000006A
:10597000C4010008D4590008500000202808000085
:10598000E0010008000000000000F03F00000000FF
:105990000000000000000000000000000000000007
:1059A00000000000000000000000F03F00000000C8
:1059B00000000000000000000000000000000000E7
:1059C00000000000010000001000000000000000C6
:0459D0000024F400BB
:040000050800018965
:00000001FF
