:020000040800F2
:10000000A007002029020008751700086D170008D6
:1000100071170008D5030008711A000800000000DD
:100020000000000000000000000000007D17000834
:10003000D9030008000000007917000881170008A4
:10004000430200084302000843020008430200087C
:10005000430200084302000843020008430200086C
:10006000430200084302000843020008430200085C
:10007000430200084302000843020008430200084C
:10008000430200084302000843020008430200083C
:10009000430200084302000843020008430200082C
:1000A000430200084302000843020008430200081C
:1000B000430200084302000843020008430200080C
:1000C00043020008430200084302000843020008FC
:1000D00043020008430200084302000843020008EC
:1000E00043020008430200084302000843020008DC
:1000F00043020008430200084302000843020008CC
:1001000043020008430200084302000843020008BB
:1001100043020008430200084302000843020008AB
:10012000430200084302000843020008430200089B
:10013000430200084302000843020008430200088B
:10014000430200084302000843020008430200087B
:10015000430200084302000843020008430200086B
:10016000430200084302000843020008430200085B
:100170004302000843020008430200080000000098
:10018000430200084302000800F002F800F03CF8C7
:100190000AA090E8000C82448344AAF10107DA45E2
:1001A00001D100F031F8AFF2090EBAE80F0013F0F8
:1001B000010F18BFFB1A43F001031847241C00006D
:1001C000441C0000103A24BF78C878C1FAD85207FE
:1001D00024BF30C830C144BF04680C6070470000C1
:1001E0000023002400250026103A28BF78C1FBD840
:1001F000520728BF30C148BF0B6070471FB501F0E0
:10020000D5FD1FBD10B510BD00F0A9F81146FFF7D0
:10021000F5FF01F02FFC00F0C7F803B4FFF7F2FF81
:1002200003BC00F0CFF800000948804709480047A8
:10023000FEE7FEE7FEE7FEE7FEE7FEE7FEE7FEE796
:10024000FEE7FEE704480549054A064B70470000F3
:100250003118000889010008A0010020A007002033
:10026000A0030020A003002053EA020C00F06980E4
:100270002DE9F04B4FF00006002B1FBFB3FA83F5BA
:1002800003FA05F424FA05F65E4012BF1643B2FAEB
:1002900082F502FA05F4C5F120051EBF22FA05FC1D
:1002A00044EA0C04203556EA044C4FEA144418BFC3
:1002B000641C4FF000084FF00009904271EB030CF2
:1002C00039D3002919BFB1FA81F701FA07F6B0FA5C
:1002D00080F700FA07F6C7F120071EBF20FA07FCD7
:1002E00046EA0C062037B6FBF4FCA7EB0507103FE7
:1002F00007F01F0BCBF120062CFA06F60CFA0BFBCD
:1003000044BFB3460026202FA4BF5E464FF0000B2B
:100310005BEA060C08BF4FF0010B19EB0B0948EB29
:100320000608ABFB027C06FB02CC0BFB03CCC01B1C
:1003300071EB0C01C1E70B46024641464846BDE859
:10034000F08B13B5084318BF4FF0FF300146AFF3F1
:100350000080BDE81C407047704770477047754685
:1003600000F02CF8AE4605006946534620F0070021
:10037000854618B020B5FFF765FFBDE820404FF077
:1003800000064FF000074FF000084FF0000BAC469E
:10039000ACE8C009ACE8C009ACE8C009ACE8C009E9
:1003A00021F007018D46704710B50446AFF3008079
:1003B0002046BDE81040FFF730BF000000487047FE
:1003C0001000002001491820ABBEFEE72600020005
:1003D00070470000FEE7000070470000B0B504461B
:1003E00000F0EAF8054640F20000C2F20000007892
:1003F000611C18BF044400BF00F0DEF8401BA0429F
:10040000FAD3B0BD2DE9F04F82B000F13E4241F683
:10041000004502F1FF77C4F20205082243F6004EC0
:100420004FEAB726A84208BF0722C4F2010E072EE2
:1004300038BF4FEAB7220125002600274FF00008F9
:10044000009208E008F101080437B8F1100F06F136
:10045000020600F0A7800C6805FA08F914EA090FF3
:10046000F0D0D1F804B003220BF0030CACF101047E
:10047000B240012C6FEA020A10D88268CC6802EA06
:100480000A02B440224382604268CBF3001422EA9D
:10049000090204FA08F42243426005E0BCF1030FAC
:1004A00002D14FF0030C20E0C2688C6802EA0A0215
:1004B000B4402243BCF1020FC26016D16FF00302B8
:1004C00002EA58020244D2F820C007F01C050F23AC
:1004D0000C69AB402CEA030304FA05F52B431362C5
:1004E000D1F804B001250BF0030C02680CFA06F3F6
:1004F00002EA0A021A431BF4403F0260A2D0002223
:1005000043F644030192C4F202031A684FF6084C02
:1005100042F480421A601A68CFF6FF7C02F48042EF
:100520000192019A28F00302724452F80C3007F04D
:100530000C050F24AC40A343009C04FA05F52B43A3
:1005400042F80C30DEF808204B6842EA090543F611
:100550000C4CDC0258BF22EA0905CEF80850C4F260
:10056000010CDCF800209C0242EA090558BF22EA8F
:100570000905CCF80050DEF804209C0342EA090586
:1005800058BF22EA0905CEF80450DEF80020DB034C
:1005900042EA090558BF22EA0905CEF800500125B4
:1005A00050E700BF02B0BDE8F08F0000002A08BF8E
:1005B000090481617047000040F29810C2F2000007
:1005C0000068704770B5B8B3044690F83D0028B98C
:1005D000002084F83C00204600F0B0F8242084F885
:1005E0003D002068016821F001010160016841F4CB
:1005F00000410160016821F40041016000F02AFA25
:1006000048F28041C0F21E0140F60013D4F804E025
:1006100088424FF00001C0F23D0348F2A16C4FF058
:10062000000238BF01219842C0F2010C38BF0122FC
:10063000E64538BF0A460AB1012070BD4DF6836118
:10064000C4F21B31A0FB01122168950C4B684FF4DA
:10065000967623F03F0343EA9243754344F6D3561C
:100660004B60C1F262060B6AA5FB0656B50923F082
:100670003F03E64538BF950C6A1C1A430A62CA69F3
:1006800048F2A0664CF6FF73C0F20106B64522EAB6
:1006900003020BD801384FEA4E03B0FBF3F00130F0
:1006A0006FF31F30042898BF04201EE0A3680138B0
:1006B00063B119230EFB03F3B0FBF3F001306FF3CA
:1006C0001F3078B100F5804008E000BF0EEB4E030C
:1006D000B0FBF3F001306FF31F3028B100F500409C
:1006E00003E000BF012000E001201043C86108685A
:1006F000D4E9072320F0C00010431843086088683D
:1007000048F2FF3204F10C0690434CCE18431043DC
:10071000A5698860C86820F0FF0030432843C8609E
:10072000086840F00100086000202021206484F85F
:100730003D10206384F83E0070BD0000B0B586B067
:10074000016845F20040C4F20000814202D006B0C8
:10075000B0BD00BF002443F630050194C4F2020589
:10076000296800F5D83041F002012960296801F0BC
:10077000020101910199C02101911221CDE90214D8
:10078000032104910421059101A9FFF73BFE009488
:10079000286940F400102861286900F400100090D6
:1007A000009806B0B0BD000040F2000040F2981181
:1007B000C2F20000C2F2000100780A68104408602A
:1007C0007047000080B543F60040C4F202000168A3
:1007D00041F400710160016841F4806101600168C9
:1007E00041F480710160032000F074F80F2000F0E4
:1007F00005F800F027F8002080BD000070B540F239
:100800000006C2F2000640F208013278C2F200018E
:100810004FF47A730968B3FBF2F20446B1FBF2F1CC
:10082000084600F02FFB0F2C4FF0010508D838B90F
:100830004FF0FF3021460022002500F01FF87460C1
:10084000284670BD82B0002043F640010190C4F2FA
:1008500002014A6842F480424A604A6802F48042D7
:100860000192019A0090086840F080500860086882
:1008700000F080500090009802B0704710B54EF61E
:100880000C5CCEF2000CDCF80030C3F3022E8EF0CC
:100890000704042C28BF0424BEF103034FF0FF3EDD
:1008A0000EFA04F438BF0023A14399400EFA03F373
:1008B0009A43114300F00F0200F160430901043A2A
:1008C00003F564436244002848BF02F10C03197029
:1008D00010BD00004EF60C51CEF200010A684FF632
:1008E000FF031A4060F30A2242F0806040F0FD707E
:1008F000086070472DE9F041002800F08B8043F636
:100900000808C4F202080446D8F8F8030D4600F0BF
:100910000700884207D288F8F853D8F8F80300F0A7
:100920000700A84276D12068810717D5410705D571
:10093000D8F8001041F4E051C8F80010010705D5BF
:10094000D8F8001041F46041C8F80010D8F8001041
:10095000A26821F0F0011143C8F80010C0073FD190
:10096000D8F8F80300F00700A84207D988F8F85330
:10097000D8F8F80300F00700A8424BD120684107DF
:1009800007D5D8F80010E26821F4E0511143C8F807
:100990000010000708D5D8F80000216920F4604055
:1009A00040EAC100C8F8000000F07CF8D8F8001058
:1009B00041F6C652C1F30311C0F60002515C40F289
:1009C000080220FA01F140F20400C2F200000068BF
:1009D000C2F200021160FFF711FF0020BDE8F081B4
:1009E0006068811E022907D258F8081C89015CBF83
:1009F0000120BDE8F08111E0012807D158F8081C5A
:100A000089035CBF0120BDE8F08107E058F8081CAD
:100A1000890703D40120BDE8F08100BFD8F8001099
:100A200021F003010843C8F80000FFF7C5FD0646A2
:100A300041F28837D8F80000616800F00C00B0EB94
:100A4000810F8DD0FFF7B8FD801BB842F2D903208B
:100A5000BDE8F08140F2080043F60801C2F2000050
:100A6000C4F202010068096841F6D652C1F382213E
:100A7000C0F60002515CC8407047000040F2080018
:100A800043F60801C2F20000C4F2020100680968DE
:100A900041F6D652C1F34231C0F60002515CC84063
:100AA0007047000010B543F60404C4F20204606805
:100AB00000F00C0008280BD0042819BF42F20040B7
:100AC000C0F2F40047F64000C0F27D1010BD00BF38
:100AD000206821682368490247F64001C0F27D1171
:100AE00000F03F02C3F388105CBF42F20041C0F245
:100AF000F401A1FB00010023FFF7B6FB21680222ED
:100B0000C1F3014102EB4101B0FBF1F010BD000067
:100B10002DE9F04182B0002868D00446007843F601
:100B20000006C007C4F202060BD0B06800F00C004B
:100B3000042840F09F803068800302D56068002858
:100B400054D0207880071AD5B06810F00C0F09D067
:100B5000B06800F00C00082840F0A68070684002E1
:100B600000F1A2803068800702D5E06801283DD1FD
:100B70003068216920F0F80040EAC1003060207838
:100B8000000737D4207840074CD4A56955B3B06826
:100B900000F00C00082840F0BB80012D26D07068C2
:100BA000E16900F480028A4220D1216A00F03F020C
:100BB0008A421BD147F6C071626A0140B1EB821FC5
:100BC00014D1A16A4FF6FF73C903994300F4403270
:100BD000A1F580318A4209D1E16A00F07060B0EB82
:100BE000016F03D1002002B0BDE8F081012002B006
:100BF000BDE8F0816069002840F20000C4F247209F
:100C000076D00121C0F8801EFFF7D6FC054600BF54
:100C1000706F8007B6D4FFF7CFFC401B0228F7D9CE
:100C2000DDE000BF306C10F080580AD10020019048
:100C3000306C40F080503064306C00F08050019097
:100C4000019847F20007C4F200073868C00541D494
:100C5000386840F480703860FFF7AEFC054600BF8E
:100C60003868C00536D4FFF7A7FC401B0228F7D927
:100C7000B5E000BFB06800F00C00082803D1706830
:100C800040023FF558AF6068B0F5803F07D0B0F53F
:100C9000A02F40F08D80306840F4802030603068B4
:100CA00040F4803030608DE0E068002852D00020B1
:100CB000C4F2472001210160FFF77EFC054600BF1A
:100CC000306880073FF554AFFFF776FC401B0228E1
:100CD000F6D984E0A068012805D005284ED1306FF0
:100CE00040F004003067306F40F0010030674FE0A3
:100CF0000021C0F8801EFFF75FFC0546706F80077B
:100D00007FF540AFFFF758FC401B0228F6D966E09C
:100D10000027C4F2472700203866FFF74DFC022D5C
:100D200005460BD1306880015ED5FFF745FC401BBE
:100D300002284FF00300F5D955E700BF3068800165
:100D40007FF550AFFFF738FC401B02284FF003003F
:100D5000F4D948E70020C4F2472000210160FFF7E2
:100D60002BFC0546306880077FF509AFFFF724FCB0
:100D7000401B02284FF00300F4D934E7316F0028FC
:100D800021F001013167316F21F0040131674DD04D
:100D9000FFF712FC054641F2883700BF306F80072D
:100DA00056D4FFF709FC401BB842F7D917E000BF43
:100DB0003168002821F480313160316821F48021CC
:100DC00031604FD0FFF7F8FB054600BF3068800365
:100DD0003FF5B7AEFFF7F0FB401B6428F6D90320C0
:100DE00002B0BDE8F08100BF04F11C052FCD08431F
:100DF00040EA8210D9034FF6FF729143A1F580318A
:100E000040EA05600843706001203866FFF7D4FBB4
:100E1000044600BF306880013FF5E4AEFFF7CCFB2D
:100E2000001B02284FF00300F4D9DCE6FFF7C4FBF7
:100E3000054641F2883700BF306F800708D5FFF7BD
:100E4000BBFB401BB8424FF00300F5D9CBE600BF17
:100E5000B8F1000F7FF499AE306C20F08050306410
:100E600093E600BFFFF7A8FB054600BF306880038C
:100E70007FF567AEFFF7A0FB401B64284FF003002F
:100E8000F4D9B0E6411E0020B0EB116F1CBF012069
:100E900070474EF21002CEF2000251604EF623511E
:100EA000CEF20001F0230B700721906011607047B3
:100EB000B0B590F83C20012A04BF0220B0BD01F17A
:100EC00008053CCDD1E900CE23F47C5322F47052C6
:100ED0001A432EF4F0431A432CF4E0431A4324F44B
:100EE000C0431A432A43C96922F48042036811436C
:100EF0005964002180F83C100846B0BD10B590F848
:100F00003C20012A4FF0020251D080F83D200268B7
:100F1000D2F804E0D2F808C00C682EF07003234326
:100F200041F2FF74C4F20004A24253600EDC40F2AE
:100F3000FF73C4F200039A4216DCB2F1804F2BD04B
:100F400040F20043C4F2000324E000BF40F2FF334C
:100F5000C4F201039A4213DC41F60003C4F2000319
:100F60009A4219D0002313E040F60003C4F20003B4
:100F70009A4211D040F60043C4F200030AE000BFD9
:100F800044F20003C4F201039A4205D040F2004348
:100F9000C4F201039A4204D149682CF0800319433A
:100FA00091600121002280F83D1080F83C2010461D
:100FB00010BD0000002804BF0120704710B5044692
:100FC00090F83D0028B9002084F83C00204600F04D
:100FD0001FF8022084F83D002068211D00F032FC3B
:100FE000012084F8460084F83E0084F83F0084F82D
:100FF000400084F8410084F8420084F8430084F8FB
:10100000440084F8450084F83D00002010BD000035
:1010100082B00068B0F1804F16D00021C4F2010107
:10102000884220D10020019043F64000C4F2020023
:10103000416841F001014160406800F00100019009
:10104000019802B0704700BF0020009043F64000B6
:10105000C4F20200016841F001010160006800F083
:1010600001000090009802B07047000090F83D1019
:1010700001291CBF01207047022180F83D10006843
:1010800041F2FF72C168C4F20002904241F00101D6
:10109000C1600DDC40F2FF71C4F20001884215DC32
:1010A000B0F1804F2AD040F20041C4F2000123E0A9
:1010B00040F2FF31C4F20101884213DC41F6000125
:1010C000C4F20001884219D0002113E040F600016B
:1010D000C4F20001884211D040F60041C4F2000180
:1010E0000AE000BF44F20001C4F20101884205D0C9
:1010F00040F20041C4F20101884206D1816801F04A
:101100000701062904BF00207047016841F0010172
:10111000016000207047000080B590F83C20012A53
:101120004FF0020200F0C28080F83D20D0F800C0ED
:101130004FF67772DCF8083023EA0202CCF8082078
:101140000B684F2B28DC1F2B44DD202B45D0302B88
:1011500043D0402B40F0AC80D1F804E0C968DCF803
:101160002030DCF8202022F00102CCF82020DCF82E
:10117000182022F0F00242EA011123F00A0242EAAA
:101180000E02CCF81810CCF82020DCF8081041F042
:10119000470121F0300180E06F2B27DDB3F5005FC0
:1011A00048D0B3F5805F7AD0702B40F08180D1E9D0
:1011B00001E3C968DCF8082043EA0E0322F47F4209
:1011C00043EA01211143CCF80810DCF8081041F083
:1011D000770162E00BB1102B6AD1DCF8081021F026
:1011E0007001194341F0070157E000BF502B35D083
:1011F000602B5DD1D1F804E0C968DCF8203023F021
:101200001003CCF82030DCF81830DCF8202023F470
:10121000704322F0A00243EA013142EA0E12CCF8F8
:101220001810CCF82020DCF8081041F0670121F0FC
:10123000100132E0D1E901E3C968DCF8082043EA93
:101240000E0322F47F4243EA01211143CCF8081037
:10125000DCF8081041F480411FE000BFD1F804E041
:10126000C968DCF82030DCF8202022F00102CCF83C
:101270002020DCF8182022F0F00242EA011123F0CD
:101280000A0242EA0E02CCF81810CCF82020DCF852
:10129000081041F0570121F02001CCF8081000227D
:1012A000012180F83D10002180F83C10104680BDDF
:1012B0000122F5E780B586B001680020C4F2010084
:1012C000814201D006B080BD002143F63002019179
:1012D000C4F20202136800F5883043F01003136073
:1012E000126802F010020192019A4FF4D442019266
:1012F0000222CDE9022104910121059101A9FFF704
:1013000081F806B080BD00002DE9F04390F83C3034
:10131000012B04BF0220BDE8F0834FEAB202032A8A
:1013200000F2FC80DFE802F0023E7EBE036840F27D
:1013300000471A6A43F4806522F001021A621C6AAF
:101340001A46D3F804E052F818CF8E6824F002044D
:10135000C4F20107BD4244EA060405D1CE6824F078
:101360000C0426F0040634430E68BD4207D1D1E9CF
:1013700005572EF4407E45EA0E0545EA070E2CF08F
:1013800073073743C3F804E09F614F6809695F63DF
:101390001C629F6947F008079F619F6927F0040757
:1013A0009F61B1E0036840F200481A6A43F4806527
:1013B00022F010021A621C6A1A46D3F804C052F8CE
:1013C00018EF8F6824F02004C4F20108454544EA70
:1013D000071407D1CF686FF0400624F0C00406EA76
:1013E00007163443D1F80090454506D1D1E905569A
:1013F0002CF440672E4347EA860C2EF4E64747EA72
:101400000927C3F804C09F614F6809699F631C6284
:101410009F6947F400679F619F6927F480679F6118
:1014200071E000BF036840F200481A6A43F4806527
:1014300022F480721A621C6A1A46D3F804C052F869
:101440001CEF8F6824F40074C4F20108454544EA97
:10145000072408D1CF6840F2FF463F0224F44064DD
:1014600027EA06063443D1F80090454506D1D1E974
:1014700005562CF440572E4347EA061C2EF07307FE
:1014800047EA0907C3F804C0DF614F680969DF63F1
:101490001C62DF6947F00807DF61DF6927F0040796
:1014A000DF6131E0036840F200451A6A43F4806767
:1014B00022F480521A621A46D3F820C05C6852F8AF
:1014C0001CEFD1F800808E68C4F20105AF4204D150
:1014D0004D6924F4804444EA85142CF4005747EA0B
:1014E00006372EF4E64646EA08265C60DE614E6862
:1014F00009691E641F62DF6947F40067DF61DF6905
:1015000027F48067DF610902136819431160002125
:10151000002280F83C200846BDE8F083012100222B
:1015200080F83C200846BDE8F0830000002804BF96
:101530000120704710B5044690F83D0028B90020FE
:1015400084F83C00204600F01FF8022084F83D009B
:101550002068211D00F076F9012084F8460084F807
:101560003E0084F83F0084F8400084F8410084F88D
:10157000420084F8430084F8440084F8450084F86D
:101580003D00002010BD00007047000041B1082957
:1015900010D0042914BF00F1410200F13F020BE01A
:1015A00090F83E20012A1CBF01207047022280F8DB
:1015B0003E2013E000F140021278012A1CBF0120F6
:1015C00070470222082907D0042914BF80F841205F
:1015D00080F83F2002E000BF80F84020006801F062
:1015E0001F010122036A02FA01F123EA01020262E9
:1015F000026A114341F2FF72C4F20002904201629A
:101600000CDC40F2FF71C4F20001884214DCB0F13E
:10161000804F37D040F2004116E000BF40F2FF316A
:10162000C4F20101884215DC41F60001C4F2000158
:10163000884227D0002115E040F60001C4F20001E5
:1016400088421FD040F60041C4F20001884219D000
:101650001FE000BF44F20001C4F20101884211D032
:1016600040F20041C4F20101884212D1416C40F2C3
:10167000004340F48062C4F2010341F400419A4205
:10168000416406D1816801F00701062904BF0020EA
:101690007047016841F001010160002070470000BF
:1016A000002804BF0120704710B5044690F83D00A3
:1016B00028B9002084F83C00204600F021F82420BE
:1016C00084F83D002068C16821F40051C1602046C3
:1016D00000F056F92068016921F4904101614169E7
:1016E00021F02A014161C16841F40051C16000202C
:1016F0002021206484F83D1084F83E1010BD0000C5
:1017000080B586B0016841F20040C4F20100814218
:1017100002D006B080BD00BF002143F63002019127
:10172000C4F20202536900F5744043F02003536190
:10173000536903F020030193019B0191136843F067
:1017400004031360126802F004020192019AC0229D
:1017500001920222CDE90221032104910821059181
:1017600001A9FEF74FFE06B080BD0000FEE70000B5
:10177000FEE70000FEE70000704700007047000031
:10178000FFF712B8B0B592B0002443F640000B94B6
:10179000CDE90944CDE907440594CDE90344CDE9F9
:1017A00001440094C4F202000168022541F0805116
:1017B0000160006800F080500090009847F200003F
:1017C0000094C4F20000016841F4804101600068A7
:1017D00000F48040009000980120099010200A90A9
:1017E00008200E904820CDE90F050420119006A88E
:1017F0000695CDE90C54FFF78BF928B1EFF3108073
:1018000072B600BFFEE700BF0F20CDE901054FF41F
:101810008050CDE9040401A802210394FFF76AF87F
:1018200020B1EFF3108072B6FEE700BF12B0B0BD7A
:101830004EF68850CEF20000016841F4700101605C
:101840007047000010B540F6FF3E0368C4F2000E7A
:1018500040F2004C7045C4F2010C27DCB0F1804F1F
:1018600031D040F20042C4F2000290422BD040F648
:101870000002C4F20002904225D041F6FF72C4F289
:101880000002904229DC70453CDCB0F1804F5FD013
:1018900040F20042C4F20002904259D040F60002E9
:1018A000C4F20002904253D056E000BF40F600421E
:1018B000C4F20002904206D0604504D00022C4F277
:1018C00001029042D9D14A6823F07003134341F6D4
:1018D000FF72C4F200029042D5DD43F6FF72C4F2FB
:1018E0000102904222DC42F20002C4F20002904265
:1018F0002ED00022C4F20102904229D0604527D0A8
:101900002AE000BF40F60042C4F2000290421FD01D
:1019100041F60002C4F20002904219D041F60042A2
:10192000C4F20002904213D016E000BF44F200025D
:10193000C4F2010290420BD044F60002C4F201024C
:10194000904205D044F20042C4F20102904203D119
:10195000CA6823F44073134323F080024B69D1F823
:1019600000E08C681A430260C46240F48062C0F8F0
:1019700028E0624504BF096901630121416110BD8E
:1019800010B504460068D4E902C22369016921F454
:10199000405111430161626943EA0C01E36911435B
:1019A000C268194349F20C639A431143C16041690B
:1019B000A26921F4407141F20043114340F4806276
:1019C000C4F201039A42416102D1FFF757F801E0E6
:1019D000FFF740F8E16963681922B1F5004FA0FBF9
:1019E000020123D15A00DB0FFEF73EFC48F21F51E3
:1019F000C5F2EB11A0FB01235A094FF69C73C0F608
:101A0000FF7303F1805302FB0300322303EBC0009A
:101A1000A0FB01014FF4F87000EA111000EB021076
:101A2000C1F3421108442168886010BD9A009B0FE1
:101A3000FEF71AFC48F21F51C5F2EB11A0FB01237F
:101A40005A094FF69C73C0F6FF7302FB0300322362
:101A500003EB0010A0FB0101F02000EA511000EBA5
:101A60000210C1F3431108442168886010BD0000D2
:101A7000FEE7000096B040F60044C4F20204FEF710
:101A8000A1FEFFF77FFE002543F630000495089580
:101A9000C4F202000168002241F080010160016887
:101AA0004FF4704601F0800108910899089501688B
:101AB00041F010010160016801F0100108910899DE
:101AC0000895016841F008010160016801F0080112
:101AD000089108990895016841F0040101600168C6
:101AE00001F00401089108990895016841F001018D
:101AF0000160016801F001010891089908950168E9
:101B000041F00201016000684FF4704100F00200F2
:101B1000089008982046FEF749FD0120CDE901050F
:101B20006946204600960395FEF76CFC40F2700073
:101B3000A4F5DC31C2F2000041F680224FF480436C
:101B4000C0F2060280E82600C0E90353C0E905554B
:101B5000C0E90755FEF736FD20B1EFF3108072B6ED
:101B6000FEE700BF40F2C400A4F58631C2F20000D7
:101B700044F620631595CDE91355CDE91055CDE90F
:101B80000655CDE90455CDE90255CDE90055482269
:101B900080E82600C0E90335C0E90555FFF70AFAD9
:101BA00020B1EFF3108072B6FEE700BF4FF4805013
:101BB000129040F2C400C2F2000012A9FFF7ACFA82
:101BC00020B1EFF3108072B6FEE700BF40F2C40010
:101BD000C2F20000FFF7AAFC20B1EFF3108072B64A
:101BE000FEE700BF40F2C400C2F2000010A9FFF7F8
:101BF00085F928B1EFF3108072B600BFFEE700BF91
:101C0000602008904FF47A7009900020CDE90A0016
:101C1000CDE90C000E9040F2C400C2F2000008A909
:101C20000022FFF771FB28B1EFF3108072B600BFFE
:101C3000FEE700BF40F2C400C2F2000008A904227F
:101C4000FFF762FB20B1EFF3108072B6FEE700BF32
:101C500040F2C400C2F2000008A90822FFF754FBBA
:101C600020B1EFF3108072B6FEE700BF40F2C4006F
:101C7000C2F2000008A90C22FFF746FB20B1EFF3E7
:101C8000108072B6FEE700BF4FF40050059040F29E
:101C9000C4000026C2F2000069460496CDE902663F
:101CA000CDE900660796FFF703F928B1EFF310803E
:101CB00072B600BFFEE700BF40F2C405C2F20005E5
:101CC0002846FFF7F7FA40F20C104AF20022C2F25F
:101CD00000004FF08041C0F24A420396CDE9016610
:101CE000CDE90866C0E90016C0E9026206618661B6
:101CF000FFF760F920B1EFF3108072B6FEE700BF86
:101D00004FF48050009040F20C10C2F2000069467F
:101D1000FFF702FA20B1EFF3108072B6FEE700BFC2
:101D200040F20C10C2F2000008A9FFF7E7F818B162
:101D3000EFF3108072B6FEE740F25410A4F578413C
:101D4000C2F2000000230C264FF4E13280E80E00BE
:101D5000C0E90333C0E90563C361FFF7A1FC18B113
:101D6000EFF3108072B6FEE72846FFF77FF92846AA
:101D70000021FFF70BFC28684FF4487444632846A1
:101D80000421FFF703FC2868082184632846FFF735
:101D9000FDFB28680C21C4632846FFF7F7FB286881
:101DA00004644FF47A70FEF719FBFEE7F1EE100AB7
:101DB0004FF6FF71C0F2C03120EA010040F04070E0
:101DC000E1EE100A70470000000000000000010270
:101DD00003040607080900000000010203040000D4
:101DE000001E00080000002010000000C4010008D0
:101DF000101E00081000002090070000E0010008FD
:101E000001000000100000000024F40000000000A9
:040000050800018965
:00000001FF
