:020000040800F2
:100000005009002029020008693F00081522000855
:10001000653F0008F1030008B1430008000000003C
:10002000000000000000000000000000B1400008D7
:10003000F5030008000000006D3F0008B54000080F
:10004000430200084302000843020008430200087C
:10005000430200084302000843020008430200086C
:10006000430200084302000843020008430200085C
:10007000430200084302000843020008430200084C
:10008000430200084302000843020008430200083C
:10009000430200084302000843020008430200082C
:1000A000430200084302000843020008430200081C
:1000B0007941000843020008430200084302000897
:1000C00043020008430200084302000843020008FC
:1000D00043020008430200084302000843020008EC
:1000E00043020008430200084302000843020008DC
:1000F00043020008430200084302000843020008CC
:1001000043020008430200084302000843020008BB
:1001100043020008430200084302000843020008AB
:10012000430200084302000843020008430200089B
:10013000430200084302000843020008430200088B
:10014000430200084302000843020008430200087B
:10015000430200084302000843020008430200086B
:10016000430200084302000843020008430200085B
:100170004302000843020008430200080000000098
:10018000430200084302000800F002F800F03CF8C7
:100190000AA090E8000C82448344AAF10107DA45E2
:1001A00001D100F031F8AFF2090EBAE80F0013F0F8
:1001B000010F18BFFB1A43F001031847FC6D000044
:1001C0001C6E0000103A24BF78C878C1FAD85207D4
:1001D00024BF30C830C144BF04680C6070470000C1
:1001E0000023002400250026103A28BF78C1FBD840
:1001F000520728BF30C148BF0B6070471FB506F0DB
:100200005CFD1FBD10B510BD00F0BCF81146FFF736
:10021000F5FF04F0FDF800F0DAF803B4FFF7F2FFA1
:1002200003BC00F0DDF8000009488047094800479A
:10023000FEE7FEE7FEE7FEE7FEE7FEE7FEE7FEE796
:10024000FEE7FEE704480549054A064B70470000F3
:100250006541000889010008500300205009002072
:10026000500500205005002053EA020C00F0698080
:100270002DE9F04B4FF00006002B1FBFB3FA83F5BA
:1002800003FA05F424FA05F65E4012BF1643B2FAEB
:1002900082F502FA05F4C5F120051EBF22FA05FC1D
:1002A00044EA0C04203556EA044C4FEA144418BFC3
:1002B000641C4FF000084FF00009904271EB030CF2
:1002C00039D3002919BFB1FA81F701FA07F6B0FA5C
:1002D00080F700FA07F6C7F120071EBF20FA07FCD7
:1002E00046EA0C062037B6FBF4FCA7EB0507103FE7
:1002F00007F01F0BCBF120062CFA06F60CFA0BFBCD
:1003000044BFB3460026202FA4BF5E464FF0000B2B
:100310005BEA060C08BF4FF0010B19EB0B0948EB29
:100320000608ABFB027C06FB02CC0BFB03CCC01B1C
:1003300071EB0C01C1E70B46024641464846BDE859
:10034000F08B13B5084318BF4FF0FF300146AFF3F1
:100350000080BDE81C40704770477047704710B57B
:1003600000F008F8006810BD10B5044600F002F86F
:10037000046010BD004870476000002000487047CE
:10038000600000207546FFF7F9FFAE46050069469C
:10039000534620F00700854618B020B5FFF752FFFE
:1003A000BDE820404FF000064FF000074FF0000876
:1003B0004FF0000BAC46ACE8C009ACE8C009ACE8B3
:1003C000C009ACE8C00921F007018D46704710B59F
:1003D0000446AFF300802046BDE81040FFF71DBF84
:1003E00001491820ABBEFEE726000200704700005E
:1003F000FEE70000704700000068DDF800C04163C0
:100400008263C363C0F840C070470000EFF3108000
:1004100072B600BFFEE70000B0B5044600F0F2F887
:10042000054640F25000C2F200000078611C18BF7F
:10043000044400BF00F0E6F8401BA042FAD3B0BD70
:100440002DE9F04F82B000F13E4241F6004502F145
:10045000FF77C4F20205082243F6004E4FEAB726A2
:10046000A84208BF0722C4F2010E072E38BF4FEA88
:10047000B7220125002600274FF00008009208E06F
:1004800008F101080437B8F1100F06F1020600F078
:10049000A7800C6805FA08F914EA090FF0D0D1F822
:1004A00004B003220BF0030CACF10104B240012CA8
:1004B0006FEA020A10D88268CC6802EA0A02B440E5
:1004C000224382604268CBF3001422EA090204FA54
:1004D00008F42243426005E0BCF1030F02D14FF063
:1004E000030C20E0C2688C6802EA0A02B44022438E
:1004F000BCF1020FC26016D16FF0030202EA58028B
:100500000244D2F820C007F01C050F230C69AB4051
:100510002CEA030304FA05F52B431362D1F804B067
:1005200001250BF0030C02680CFA06F302EA0A023A
:100530001A431BF4403F0260A2D0002243F644035A
:100540000192C4F202031A684FF6084C42F480424A
:100550001A601A68CFF6FF7C02F480420192019A79
:1005600028F00302724452F80C3007F00C050F24F7
:10057000AC40A343009C04FA05F52B4342F80C3031
:10058000DEF808204B6842EA090543F60C4CDC0211
:1005900058BF22EA0905CEF80850C4F2010CDCF875
:1005A00000209C0242EA090558BF22EA0905CCF85E
:1005B0000050DEF804209C0342EA090558BF22EAF5
:1005C0000905CEF80450DEF80020DB0342EA0905F5
:1005D00058BF22EA0905CEF80050012550E700BFB8
:1005E00002B0BDE8F08F0000426902EA01039143C6
:1005F00041EA034181617047002A08BF0904816113
:100600007047000040F24830C2F2000000687047B6
:1006100070B5B8B3044690F83D0028B9002084F8BE
:100620003C00204600F056FB242084F83D00206862
:10063000016821F001010160016841F4004101609D
:10064000016821F40041016000F0E4FC48F28041BF
:10065000C0F21E0140F60013D4F804E088424FF0C7
:100660000001C0F23D0348F2A16C4FF0000238BF18
:1006700001219842C0F2010C38BF0122E64538BF83
:100680000A460AB1012070BD4DF68361C4F21B31E8
:10069000A0FB01122168950C4B684FF4967623F06D
:1006A0003F0343EA9243754344F6D3564B60C1F28D
:1006B00062060B6AA5FB0656B50923F03F03E64523
:1006C00038BF950C6A1C1A430A62CA6948F2A066D0
:1006D0004CF6FF73C0F20106B64522EA03020BD8BE
:1006E00001384FEA4E03B0FBF3F001306FF31F30D7
:1006F000042898BF04201EE0A368013863B11923C1
:100700000EFB03F3B0FBF3F001306FF31F3078B151
:1007100000F5804008E000BF0EEB4E03B0FBF3F0A5
:1007200001306FF31F3028B100F5004003E000BF37
:10073000012000E001201043C8610868D4E90723C4
:1007400020F0C000104318430860886848F2FF3268
:1007500004F10C0690434CCE18431043A569886001
:10076000C86820F0FF0030432843C860086840F0A4
:100770000100086000202021206484F83D102063DF
:1007800084F83E0070BD00002DE9F04784B0984623
:1007900017460E460446FFF735FF94F83D10202912
:1007A00023D1054620688169890719D5FFF72AFFFB
:1007B000401B1928F6D900202021206384F83D1021
:1007C00084F83E00206C04F13C0940F020002064D5
:1007D0000220002189F8001004B0BDE8F08700BFB6
:1007E000A14619F83C1F012904D1022004B0BDE83C
:1007F000F08700BF012289F800200368DDE90D1AA7
:100800000C9ADB0703D1036843F00103036003681C
:1008100023F400630360222084F83D00402084F824
:100820003E000020206462626185608D3146208533
:100830000020CFF6FF70E06220463A464346CDF8EE
:1008400000A0019501F0E8FC20B1012004B0BDE852
:10085000F08700BF208DA8B102282BD0012835D108
:1008600021680A6822F480620A60002203924A69C1
:1008700003928A690392039A0A6842F400720A603A
:100880002CE000BF0020039020684169039181693A
:1008900003910399016841F400710160202084F8FC
:1008A0003D00002084F83E00002189F8001004B0CB
:1008B000BDE8F08721680A6822F480620A600A684D
:1008C00042F400620A600022039202E000210391D8
:1008D00021684A6903928969039103990AF1010623
:1008E00080B2032818D8022842D0012856D1BAF184
:1008F000000F00F0AB802068014651F8142F52061B
:1009000000F1A8800868C00600F1E280FFF77AFED7
:10091000401B5045EFD9D0E0BAF1000F10D000BF16
:100920002068014651F8142F52060ED40868C006FC
:1009300000F1CE80FFF766FE401B5045F0D9BCE0C9
:1009400020684169490640F1B1800069616A087018
:10095000606A2268411C208D616201382085638DA8
:10096000013B638553695B0740F18080106973E048
:1009700020684169490747D4002E59D0BAF1000FC9
:1009800000F09980FFF73EFE401B504500F2958035
:10099000206841694907F5D536E000BF2068416904
:1009A00049070FD4002E65D0BAF1000F00F0838004
:1009B000FFF728FE401B504500F27F802068416908
:1009C0004907F5D5016821F4806101600069616A19
:1009D0000870606A218D01300139606221852068CC
:1009E000618D01396185416949070DD4002E4FD0D1
:1009F000BAF1000F5FD0FFF705FE401B50455CD8F1
:100A0000206841694907F6D5016841F40071016029
:100A10000069616A0870606A2268411C6162218D08
:100A200001392185618D013961851169417014E0B9
:100A300041694907E8D4416949075CBF41695FEAF8
:100A40004171E1D441694907F2D5DDE72068416988
:100A500049062BD50069616A0870606A218D0130F2
:100A60006062481E2085618D0139618501047FF433
:100A700037AF13E741694907A4D4416949075CBF0F
:100A800041695FEA41719DD441694907F2D599E70F
:100A900041694907B8D4416949075CBF41695FEAC8
:100AA0004171B1D441694907F2D5ADE750F8141F3F
:100AB000C90601460CD4FFF7A5FD002020212063C4
:100AC00084F83D1084F83E00206C40F020000AE0DD
:100AD0006FF01000086000202021206384F83D1092
:100AE00084F83E00206C20640120002189F8001069
:100AF00004B0BDE8F08700002DE9F04383B09946CB
:100B000016460F460446FFF77DFD94F83D10202958
:100B10001CD1054620688169890713D5FFF772FD4E
:100B2000401B1928F6D900202021206384F83D10AD
:100B300084F83E00216C41F02001216484F83C00DF
:100B400004E000BF94F83C10012903D1022003B057
:100B5000BDE8F083012284F83C200368DDE90B182E
:100B60000A9ADB0703D1036843F0010303600368BB
:100B700023F400630360212084F83D00402084F8C2
:100B80003E000020206462626185608D39462085C8
:100B90000020CFF6FF70E062204632464B46CDF88B
:100BA0000080019501F0C8FC20B1012003B0BDE830
:100BB000F08300BF208D002850D0206808F1010686
:100BC000014651F8142F12062CD49EB1B8F1000F33
:100BD0005AD000BF086840055ED4FFF713FD401BE4
:100BE000404556D82068014651F8142F1206F1D519
:100BF00018E000BF0A6852054ED40A68120611D4E4
:100C00000A68520548D40A6812060BD40A685205CD
:100C100042D40A68120605D40A6852053CD40A6810
:100C20001206E7D5626A114611F8013B0361238D74
:100C30006162591E2185678D013F678547697F077E
:100C40000AD50F0408D051780161911C6162991E88
:100C50002185628D013A62850904B1D12046414661
:100C60002A4601F0A3FD38BB2068016841F40071F9
:100C70000160202084F83D00002084F83E0084F8C4
:100C80003C0003B0BDE8F0830868400504D4FFF7DA
:100C9000B9FC202004E000BF6FF4806008600420ED
:100CA00000212022216384F83D2084F83E10226C2C
:100CB0001043206484F83C10206C04287FF475AF46
:100CC0002068016841F400710160012003B0BDE8B3
:100CD000F0830000B0B586B0016845F20040C4F270
:100CE0000000814202D006B0B0BD00BF002443F630
:100CF00030050194C4F20205296800F5D83041F0AE
:100D000002012960296801F00201019101994FF463
:100D1000407101911221CDE90214032104910421B3
:100D2000059101A9FFF78CFB0094286940F400109D
:100D30002861286900F400100090009806B0B0BD4A
:100D400040F2500040F24831C2F20000C2F200010D
:100D500000780A68104408607047000080B543F6C8
:100D60000040C4F20200016841F4007101600168B2
:100D700041F480610160016841F4807101600320E9
:100D800000F088F80F2000F005F800F027F80020A8
:100D900080BD000070B540F25006C2F2000640F27D
:100DA00058013278C2F200014FF47A730968B3FB3C
:100DB000F2F20446B1FBF2F1084600F0D3FB0F2C2F
:100DC0004FF0010508D838B94FF0FF302146002216
:100DD000002500F033F87460284670BD82B0002012
:100DE00043F640010190C4F202014A6842F4804295
:100DF0004A604A6802F480420192019A00900868B1
:100E000040F080500860086800F080500090009822
:100E100002B07047002848BF7047C1B200F01F0001
:100E2000012202FA00F04EF20012CEF2000242EA73
:100E3000D10121F0030108607047000010B54EF6A3
:100E40000C5CCEF2000CDCF80030C3F3022E8EF006
:100E50000704042C28BF0424BEF103034FF0FF3E17
:100E60000EFA04F438BF0023A14399400EFA03F3AD
:100E70009A43114300F00F0200F160430901043A64
:100E800003F564436244002848BF02F10C03197063
:100E900010BD00004EF60C51CEF200010A684FF66C
:100EA000FF031A4060F30A2242F0806040F0FD70B8
:100EB000086070472DE9F041002800F08B8043F670
:100EC0000808C4F202080446D8F8F8030D4600F0FA
:100ED0000700884207D288F8F853D8F8F80300F0E2
:100EE0000700A84276D12068810717D5410705D5AC
:100EF000D8F8001041F4E051C8F80010010705D5FA
:100F0000D8F8001041F46041C8F80010D8F800107B
:100F1000A26821F0F0011143C8F80010C0073FD1CA
:100F2000D8F8F80300F00700A84207D988F8F8536A
:100F3000D8F8F80300F00700A8424BD12068410719
:100F400007D5D8F80010E26821F4E0511143C8F841
:100F50000010000708D5D8F80000216920F460408F
:100F600040EAC100C8F8000000F07CF8D8F8001092
:100F700046F6A072C1F30311C0F60002515C40F2C4
:100F8000580220FA01F140F25400C2F20000006859
:100F9000C2F200021160FFF7FDFE0020BDE8F08103
:100FA0006068811E022907D258F8081C89015CBFBD
:100FB0000120BDE8F08111E0012807D158F8081C94
:100FC00089035CBF0120BDE8F08107E058F8081CE8
:100FD000890703D40120BDE8F08100BFD8F80010D4
:100FE00021F003010843C8F80000FFF70BFB064699
:100FF00041F28837D8F80000616800F00C00B0EBCF
:10100000810F8DD0FFF7FEFA801BB842F2D9032082
:10101000BDE8F08140F2580043F60801C2F200003A
:10102000C4F202010068096846F6B072C1F3822179
:10103000C0F60002515CC8407047000040F2580002
:1010400043F60801C2F20000C4F202010068096818
:1010500046F6B072C1F34231C0F60002515CC8409E
:101060007047000010B543F60404C4F2020460683F
:1010700000F00C0008280BD0042819BF42F20040F1
:10108000C0F2F40047F64000C0F27D1010BD00BF72
:10109000206821682368490247F64001C0F27D11AB
:1010A00000F03F02C3F388105CBF42F20041C0F27F
:1010B000F401A1FB00010023FFF7D6F8216802220A
:1010C000C1F3014102EB4101B0FBF1F010BD0000A2
:1010D0002DE9F04182B0002868D00446007843F63C
:1010E0000006C007C4F202060BD0B06800F00C0086
:1010F000042840F09F803068800302D56068002893
:1011000054D0207880071AD5B06810F00C0F09D0A1
:10111000B06800F00C00082840F0A680706840021B
:1011200000F1A2803068800702D5E06801283DD137
:101130003068216920F0F80040EAC1003060207872
:10114000000737D4207840074CD4A56955B3B06860
:1011500000F00C00082840F0BB80012D26D07068FC
:10116000E16900F480028A4220D1216A00F03F0246
:101170008A421BD147F6C071626A0140B1EB821FFF
:1011800014D1A16A4FF6FF73C903994300F44032AA
:10119000A1F580318A4209D1E16A00F07060B0EBBC
:1011A000016F03D1002002B0BDE8F081012002B040
:1011B000BDE8F0816069002840F20000C4F24720D9
:1011C00076D00121C0F8801EFFF71CFA054600BF4B
:1011D000706F8007B6D4FFF715FA401B0228F7D9C5
:1011E000DDE000BF306C10F080580AD10020019083
:1011F000306C40F080503064306C00F080500190D2
:10120000019847F20007C4F200073868C00541D4CE
:10121000386840F480703860FFF7F4F9054600BF85
:101220003868C00536D4FFF7EDF9401B0228F7D91E
:10123000B5E000BFB06800F00C00082803D170686A
:1012400040023FF558AF6068B0F5803F07D0B0F579
:10125000A02F40F08D80306840F4802030603068EE
:1012600040F4803030608DE0E068002852D00020EB
:10127000C4F2472001210160FFF7C4F9054600BF11
:10128000306880073FF554AFFFF7BCF9401B0228D8
:10129000F6D984E0A068012805D005284ED1306F2A
:1012A00040F004003067306F40F0010030674FE0DD
:1012B0000021C0F8801EFFF7A5F90546706F800772
:1012C0007FF540AFFFF79EF9401B0228F6D966E094
:1012D0000027C4F2472700203866FFF793F9022D54
:1012E00005460BD1306880015ED5FFF78BF9401BB6
:1012F00002284FF00300F5D955E700BF30688001A0
:101300007FF550AFFFF77EF9401B02284FF0030036
:10131000F4D948E70020C4F2472000210160FFF71C
:1013200071F90546306880077FF509AFFFF76AF964
:10133000401B02284FF00300F4D934E7316F002836
:1013400021F001013167316F21F0040131674DD087
:10135000FFF758F9054641F2883700BF306F800724
:1013600056D4FFF74FF9401BB842F7D917E000BF3A
:101370003168002821F480313160316821F4802106
:1013800031604FD0FFF73EF9054600BF306880035B
:101390003FF5B7AEFFF736F9401B6428F6D90320B6
:1013A00002B0BDE8F08100BF04F11C052FCD084359
:1013B00040EA8210D9034FF6FF729143A1F58031C4
:1013C00040EA05600843706001203866FFF71AF9AB
:1013D000044600BF306880013FF5E4AEFFF712F924
:1013E000001B02284FF00300F4D9DCE6FFF70AF9EE
:1013F000054641F2883700BF306F800708D5FFF7F8
:1014000001F9401BB8424FF00300F5D9CBE600BF0D
:10141000B8F1000F7FF499AE306C20F0805030644A
:1014200093E600BFFFF7EEF8054600BF3068800383
:101430007FF567AEFFF7E6F8401B64284FF0030026
:10144000F4D9B0E670B538B10446406A30B1002036
:10145000206104F1140007E0012070BD6068B0F560
:10146000827F03D004F11C00002101600026A662E7
:1014700094F8510020B9204684F8506000F03CF800
:10148000022084F8510094E80F0001F4827105688D
:1014900002F4044225F040050560114403F40062A3
:1014A0002369114403F002026369114403F001024D
:1014B000A369E569114403F40072114405F0380290
:1014C000256A114405F08002A56A114305F4005213
:1014D00011430160626A042101EA134102F0100223
:1014E00011444160C16921F40061C1610120666558
:1014F00084F85100304670BD80B586B0016843F273
:101500000000C4F20100814202D006B080BD00BFDD
:10151000002143F630020191C4F20202536900F542
:10152000504043F480535361536903F48053019353
:10153000019B0191136843F001031360126802F0EC
:1015400001020192019AE02201920222CDE90221D8
:10155000032104910521059101A9FEF771FF06B051
:1015600080BD0000411E0020B0EB116F1CBF0120A8
:1015700070474EF21002CEF2000251604EF6235137
:10158000CEF20001F0230B700721906011607047CC
:101590007047000070470000B0B590F83C20012A69
:1015A00004BF0220B0BD01F108053CCDD1E900CE59
:1015B00023F47C5322F470521A432EF4F0431A435E
:1015C0002CF4E0431A4324F4C0431A432A43C96964
:1015D00022F48042036811435964002180F83C10D2
:1015E0000846B0BD10B590F83C20012A4FF0020229
:1015F00051D080F83D200268D2F804E0D2F808C04B
:101600000C682EF07003234341F2FF74C4F200040F
:10161000A24253600EDC40F2FF73C4F200039A4210
:1016200016DCB2F1804F2BD040F20043C4F200032D
:1016300024E000BF40F2FF33C4F201039A4213DCFE
:1016400041F60003C4F200039A4219D0002313E0CC
:1016500040F60003C4F200039A4211D040F6004362
:10166000C4F200030AE000BF44F20003C4F2010325
:101670009A4205D040F20043C4F201039A4204D1D9
:1016800049682CF08003194391600121002280F801
:101690003D1080F83C20104610BD0000002804BF1B
:1016A0000120704710B5044690F83D0028B900208D
:1016B00084F83C00204600F01FF8022084F83D002A
:1016C0002068211D02F05EFD012084F8460084F8A8
:1016D0003E0084F83F0084F8400084F8410084F81C
:1016E000420084F8430084F8440084F8450084F8FC
:1016F0003D00002010BD000080B582B00068B0F150
:10170000804F15D00021C4F2010188420ED1002083
:10171000019043F64000C4F20200416841F001012B
:101720004160406800F001000190019802B080BD66
:101730000020009043F64000C4F20200016800223D
:1017400041F0010101600068002100F001000090FB
:1017500000981C20FFF772FB1C2002B0BDE88040FF
:10176000FFF758BB90F83D1001291CBF01207047BE
:10177000022180F83D10006841F2FF72C168C4F296
:101780000002904241F00101C1600DDC40F2FF71A6
:10179000C4F20001884215DCB0F1804F2AD040F23B
:1017A0000041C4F2000123E040F2FF31C4F2010124
:1017B000884213DC41F60001C4F20001884219D0CE
:1017C000002113E040F60001C4F20001884211D06C
:1017D00040F60041C4F200010AE000BF44F20001FB
:1017E000C4F20101884205D040F20041C4F2010177
:1017F000884206D1816801F00701062904BF002054
:101800007047016841F0010101600020704700004D
:1018100080B590F83C20012A4FF0020200F0C2800F
:1018200080F83D20D0F800C04FF67772DCF8083021
:1018300023EA0202CCF808200B684F2B28DC1F2B70
:1018400044DD202B45D0302B43D0402B40F0AC80E2
:10185000D1F804E0C968DCF82030DCF8202022F060
:101860000102CCF82020DCF8182022F0F00242EA35
:10187000011123F00A0242EA0E02CCF81810CCF84B
:101880002020DCF8081041F0470121F0300180E011
:101890006F2B27DDB3F5005F48D0B3F5805F7AD0BA
:1018A000702B40F08180D1E901E3C968DCF80820A1
:1018B00043EA0E0322F47F4243EA01211143CCF8AC
:1018C0000810DCF8081041F0770162E00BB1102B32
:1018D0006AD1DCF8081021F07001194341F00701CA
:1018E00057E000BF502B35D0602B5DD1D1F804E01C
:1018F000C968DCF8203023F01003CCF82030DCF885
:101900001830DCF8202023F4704322F0A00243EAD0
:10191000013142EA0E12CCF81810CCF82020DCF885
:10192000081041F0670121F0100132E0D1E901E334
:10193000C968DCF8082043EA0E0322F47F4243EA38
:1019400001211143CCF80810DCF8081041F4804163
:101950001FE000BFD1F804E0C968DCF82030DCF8F3
:10196000202022F00102CCF82020DCF8182022F000
:10197000F00242EA011123F00A0242EA0E02CCF818
:101980001810CCF82020DCF8081041F0570121F0A5
:101990002001CCF808100022012180F83D10002120
:1019A00080F83C10104680BD0122F5E7704700002A
:1019B00010B5016804460869800744BFC8685FEA3B
:1019C000807039D40869400744BFC8685FEA407036
:1019D0003ED40869000744BFC8685FEA007045D478
:1019E0000869C00644BFC8685FEAC0604AD4086995
:1019F000C0071CBFC8685FEAC07051D10869000603
:101A000044BFC8685FEA006052D40869400644BF1A
:101A1000C8685FEA406053D40869800646BFC8685A
:101A20005FEA806010BD6FF0200220460A61BDE8C9
:101A30001040FFF7AFBD00BF6FF00200086101204A
:101A400020778869800743D02046FFF7AFFF45E045
:101A50006FF00400086102202077886910F4407F4D
:101A600040D02046FFF7A2FF42E000BF6FF0080021
:101A7000086104202077C86980073DD02046FFF721
:101A800095FF3FE06FF01000086108202077C869DB
:101A900010F4407F3AD02046FFF788FF3CE000BFBB
:101AA0006FF001000861204600F00AFA2168A5E7FE
:101AB0006FF0800008612046FFF76AFD2168A4E707
:101AC0006FF040000861204600F00CFB2168A3E79E
:101AD000204600F025F8204600F066F92168002035
:101AE00020776FE7204600F01BF8204600F05CF9F5
:101AF0002168002020776CE7204600F011F820468E
:101B000000F052F921680020207769E7204600F0B4
:101B100007F8204600F048F921680020207766E7A2
:101B2000704700002DE9F04390F83C30012B04BFD2
:101B30000220BDE8F0834FEAB202032A00F2FC80E3
:101B4000DFE802F0023E7EBE036840F200471A6AF8
:101B500043F4806522F001021A621C6A1A46D3F827
:101B600004E052F818CF8E6824F00204C4F2010792
:101B7000BD4244EA060405D1CE6824F00C0426F0E8
:101B8000040634430E68BD4207D1D1E905572EF44F
:101B9000407E45EA0E0545EA070E2CF073073743F1
:101BA000C3F804E09F614F6809695F631C629F6925
:101BB00047F008079F619F6927F004079F61B1E024
:101BC000036840F200481A6A43F4806522F010026C
:101BD0001A621C6A1A46D3F804C052F818EF8F68CC
:101BE00024F02004C4F20108454544EA071407D153
:101BF000CF686FF0400624F0C00406EA07163443AD
:101C0000D1F80090454506D1D1E905562CF440673E
:101C10002E4347EA860C2EF4E64747EA0927C3F825
:101C200004C09F614F6809699F631C629F6947F404
:101C300000679F619F6927F480679F6171E000BF23
:101C4000036840F200481A6A43F4806522F4807207
:101C50001A621C6A1A46D3F804C052F81CEF8F6847
:101C600024F40074C4F20108454544EA072408D16D
:101C7000CF6840F2FF463F0224F4406427EA06069C
:101C80003443D1F80090454506D1D1E905562CF4EE
:101C900040572E4347EA061C2EF0730747EA090710
:101CA000C3F804C0DF614F680969DF631C62DF6944
:101CB00047F00807DF61DF6927F00407DF6131E0E3
:101CC000036840F200451A6A43F4806722F48052A8
:101CD0001A621A46D3F820C05C6852F81CEFD1F89B
:101CE00000808E68C4F20105AF4204D14D6924F42E
:101CF000804444EA85142CF4005747EA06372EF452
:101D0000E64646EA08265C60DE614E6809691E64A4
:101D10001F62DF6947F40067DF61DF6927F48067CE
:101D2000DF6109021368194311600021002280F865
:101D30003C200846BDE8F0830121002280F83C20C9
:101D40000846BDE8F0830000002804BF012070476A
:101D500010B5044690F83D0028B9002084F83C00F6
:101D6000204600F01FF8022084F83D002068211D65
:101D700002F008FA012084F8460084F83E0084F856
:101D80003F0084F8400084F8410084F8420084F861
:101D9000430084F8440084F8450084F83D000020A6
:101DA00010BD0000704700007047000041B10829D5
:101DB00010D0042914BF00F1410200F13F020BE0F2
:101DC00090F83E20012A1CBF01207047022280F8B3
:101DD0003E2013E000F140021278012A1CBF0120CE
:101DE00070470222082907D0042914BF80F8412037
:101DF00080F83F2002E000BF80F84020006801F03A
:101E00001F010122036A02FA01F123EA01020262C0
:101E1000026A114341F2FF72C4F200029042016271
:101E20000CDC40F2FF71C4F20001884214DCB0F116
:101E3000804F37D040F2004116E000BF40F2FF3142
:101E4000C4F20101884215DC41F60001C4F2000130
:101E5000884227D0002115E040F60001C4F20001BD
:101E600088421FD040F60041C4F20001884219D0D8
:101E70001FE000BF44F20001C4F20101884211D00A
:101E800040F20041C4F20101884212D1416C40F29B
:101E9000004340F48062C4F2010341F400419A42DD
:101EA000416406D1816801F00701062904BF0020C2
:101EB0007047016841F00101016000207047000097
:101EC00070B58EB040F2BC21C2F200010068096812
:101ED000884201D00EB070BD40F60040C4F202004E
:101EE0004FF48051FEF780FB40F2C81440F24015D9
:101EF000C2F20004C2F200052046294600F064FF49
:101F000040F2D806C2F2000606F13001204601F088
:101F1000ABF840F28414C2F200040D9405F11000F5
:101F200050F8042B694641F8042B50F8042B41F873
:101F3000042B50F8042B41F8042B50F8042B41F8E3
:101F4000042B50F8042B41F8042B50F8042B41F8D3
:101F5000042B50F8042B41F8042B50F8042B41F8C3
:101F6000042B50F8042B41F8042B50F8042B41F8B3
:101F7000042B50F8042B41F8042B50F8042B41F8A3
:101F8000042B50F8042B41F8042B95E80F0000F0C7
:101F90009FFD96ED190ADFED520AB8EEC00A301D1A
:101FA00000F05EFD06F118000D9004F1100050F8ED
:101FB000042B694641F8042B50F8042B41F8042BFC
:101FC00050F8042B41F8042B50F8042B41F8042B53
:101FD00050F8042B41F8042B50F8042B41F8042B43
:101FE00050F8042B41F8042B50F8042B41F8042B33
:101FF00050F8042B41F8042B50F8042B41F8042B23
:1020000050F8042B41F8042B50F8042B41F8042B12
:1020100050F8042B41F8042B94E80F0000F094FDD5
:1020200040F20005C2F200052046294601F030FCCE
:1020300095EC040A06F1240001F09AFF706804F0A0
:10204000CBFD41EC100B9FED241B02F0B5F930687D
:1020500086ED040BF0B195ED040A95ED051A95EDAA
:102060000B2A30EE010A95ED0C3A95ED0D4ABDEEC6
:10207000C00A10EE101ABDEEC20A10EE102A33EE9E
:10208000040A95ED131ABDEEC00A10EE103ABDEE2B
:10209000C10A15E095ED070A95ED0B1A95ED0F2A8B
:1020A000BDEEC00A95ED133A10EE101ABDEEC10A4E
:1020B00010EE102ABDEEC20A10EE103ABDEEC30AB1
:1020C00040F2742010EE106AC2F200000096FEF793
:1020D00093F90EB070BD00BF00000000D0BCF84006
:1020E0009A99993E70470000002804BF012070476C
:1020F00010B5044690F83D0028B9002084F83C0053
:10210000204600F021F8242084F83D002068C168B2
:1021100021F40051C160204602F0D2F82068016924
:1021200021F490410161416921F02A014161C168B6
:1021300041F40051C16000202021206484F83D104A
:1021400084F83E1010BD000080B586B0016841F2F1
:102150000040C4F20100814202D006B080BD00BF41
:10216000002143F630020191C4F20202536900F5E6
:10217000744043F020035361536903F0200301933B
:10218000019B0191136843F004031360126802F08D
:1021900004020192019AC02201920222CDE9022199
:1021A000032104910821059101A9FEF749F906B020
:1021B00080BD00002DE9F04184B0044618208DF860
:1021C0000F00642501260DF10F0720463C21002257
:1021D0000123CDE9007602954FF00008FEF78CFC54
:1021E00020208DF80F0020463C2101220123CDE95B
:1021F00000760295FEF780FC20463C210222012356
:102200008DF80F80CDE900760295FEF775FC04B0DD
:10221000BDE8F081FEE700002DE9F04383B00446FD
:10222000006899460368904643F480620260026841
:102230000B9D42F48072026042690A9ED2070F46EB
:102240001DD1711C11D0002E00F03681FEF7DAF995
:10225000401BB04200F2328120684169C907F5D0C5
:102260000DE000BF4169C90709D14169C90706D11D
:102270004169C90704BF41695FEAC171F2D007F043
:10228000FE0707614169890738D44169721C01F46E
:10229000806111D049BB002E00F03A81FEF7B2F9FF
:1022A000401BB04200F2368120684169890725D47D
:1022B00041694905F2D518E0B9B9416989071DD4CA
:1022C0004169490511D44169890717D44169490514
:1022D0000BD44169890711D44169490505D4416985
:1022E00089070BD441694905E7D5016841F40071BC
:1022F00001606FF48061416104200CE100210291D2
:10230000014651F8142F02924A680292029A0A6812
:10231000120620D4002E00F0AB80721C51D10A6846
:10232000520500F1AD800A68120614D40A685205FD
:1023300000F1A6800A6812060DD40A68520500F161
:102340009F800A68120606D40A68520500F1988038
:102350000A681206E3D5B9F1010F45D04FEA1821FA
:102360000161014651F8142F12063DD4002E00F0F1
:102370007F80721C2AD10A68520500F181800A68A8
:10238000120631D40A6852057AD40A6812062BD490
:102390000A68520574D40A68120625D40A685205E0
:1023A0006ED40A681206E6D51EE000BFFEF72AF9D1
:1023B000401BB04261D82068014651F8142F120624
:1023C000C9D408684005F1D55AE000BF0868400547
:1023D00056D4FEF717F9401BB0424ED8206801468C
:1023E00051F8142F1206F1D55FFA88F10161014608
:1023F00051F8142F12061AD4D6B3721C33D10A68BE
:1024000052053DD40A68120611D40A68520537D421
:102410000A6812060BD40A68520531D40A681206FB
:1024200005D40A6852052BD40A681206E7D501685C
:10243000002241F48071016020464FF001113346C3
:10244000009500F007FA002850D02068006844E0AA
:10245000FEF7D8F8401BB0420FD82068014651F86B
:10246000142F1206E3D408684005F1D508E000BF38
:102470000868400504D4FEF7C5F8202004E000BF3A
:102480006FF480600860042000212022216384F81A
:102490003D2084F83E10226C1043206484F83C10E8
:1024A000206C042843D12068016841F40071016068
:1024B000012003B0BDE8F083FEF7A4F8002020213E
:1024C000206384F83D1084F83E00216C41F0200127
:1024D0002164216884F83C000868C00544BF4FF4BB
:1024E00000702064032003B0BDE8F083206847F04B
:1024F000010101610221C0F20101204632462B4652
:1025000000F050FA002818BF012003B0BDE8F083A6
:10251000FEF778F8202000212022216384F83D2056
:1025200084F83E10226C1043206484F83C10012093
:1025300003B0BDE8F08300002DE9F04381B004460C
:10254000006890460268099D42F480720260426908
:10255000089E9946D2070F461DD1711C11D0002E3E
:1025600000F0D280FEF74EF8401BB04200F2CE8061
:1025700020684169C907F5D00DE000BF4169C9076E
:1025800009D14169C90706D14169C90704BF416939
:102590005FEAC171F2D007F0FE010161416989076C
:1025A00038D44169721C01F4806111D049BB002EFE
:1025B00000F0E880FEF726F8401BB04200F2E4800D
:1025C00020684169890725D441694905F2D518E099
:1025D000B9B9416989071DD44169490511D44169D7
:1025E000890717D4416949050BD44169890711D47A
:1025F0004169490505D4416989070BD441694905F9
:10260000E7D5016841F4007101606FF480614161B8
:102610000420BAE000210091014651F8142F0092E5
:102620004A680092009A0A6812061ED4002E00F032
:102630008580721C4DD10A68520500F187800A68B6
:10264000120612D40A68520500F180800A68120648
:102650000BD40A68520579D40A68120605D40A68B0
:10266000520573D40A681206E5D5B9F1010F43D0BB
:102670004FEA18210161014651F8142F12063BD48C
:10268000002E5BD0721C29D10A6852055ED40A68FC
:10269000120631D40A68520558D40A6812062BD49F
:1026A0000A68520552D40A68120625D40A685205EF
:1026B0004CD40A681206E7D51EE000BFFDF7A2FF62
:1026C000401BB0423FD82068014651F8142F120633
:1026D000CBD408684005F1D538E000BF0868400554
:1026E00034D4FDF78FFF401BB0422CD82068014640
:1026F00051F8142F1206F1D55FFA88F1016100201C
:1027000001B0BDE8F08300BFFDF77CFF0020202171
:10271000206384F83D1084F83E00216C41F02001D4
:102720002164216884F83C000868C00544BF4FF468
:1027300000702064032001B0BDE8F0830868400504
:1027400004D4FDF75FFF202004E000BF6FF4806039
:102750000860042000212022216384F83D2084F8B1
:102760003E10226C1043206484F83C10206C042836
:1027700017D12068016841F400710160012001B0A7
:10278000BDE8F083FDF73EFF2020002120222163D9
:1027900084F83D2084F83E10226C1043206484F8B5
:1027A0003C10012001B0BDE8F083000070B5036863
:1027B000044653F8140F400737D40E46F1B1701C8D
:1027C00024D100BF1868400532D4186840072CD4C3
:1027D000186840052CD41868400726D418684005AE
:1027E00026D41868400720D41868400520D41868FB
:1027F00040074FF0000048BF70BDE3E71868400590
:1028000016D4FDF7FFFE202016E000BF154600BFDE
:10281000186840050CD4FDF7F5FE401BB042F2D815
:10282000236853F8140F4007F2D5002070BD00BF95
:102830006FF480601860042000212022216384F856
:102840003D2084F83E10226C10432064012084F85F
:102850003C1070BD2DE9F04105461446DDF81880A6
:1028600001F47F002A681E46B0F5803F8FB241D147
:1028700050693840C01BB0FA80F04009A0427BD1BB
:10288000701C2DD0002E7BD0FDF7BCFEA0EB080005
:10289000B04277D8286840693840C01BB0FA80F051
:1028A0004009A042F0D00020BDE8F08150693840D6
:1028B000C01BB0FA80F04009A0425DD15069384099
:1028C000C01BB0FA80F04009A04255D15069384091
:1028D000C01BB0FA80F04009A0424FF000005FD169
:1028E00050693840C01BB0FA80F04009A042DDD0EA
:1028F00042E000BF90693840C01BB0FA80F0400948
:10290000A04239D1701C1FD0D6B300BFFDF77AFEAC
:10291000A0EB0800B04235D8286880693840C01B59
:10292000B0FA80F04009A042F0D00020BDE8F0816C
:1029300090693840C01BB0FA80F04009A0424FF0C7
:10294000000018BFBDE8F08190693840C01BB0FAA4
:1029500080F04009A0420FD190693840C01BB0FA06
:1029600080F04009A04207D190693840C01BB0FAFE
:1029700080F04009A042DBD00020BDE8F08100BF1C
:10298000FDF740FE00202021286385F83D1085F8E2
:102990003E00296C41F02001296485F83C000120AB
:1029A000BDE8F081F0B581B0044600681D4643697A
:1029B0008FB203EA0701B94202D1002001B0F0BD95
:1029C00041691646013201F480610FD059BB9EB3B4
:1029D000FDF718FE401BB04230D8206841693940ED
:1029E000B942EAD041694905F2D51CE0D9B941693B
:1029F0003940B942E1D04169490514D441693940AF
:102A0000B942DAD0416949050DD441693940B9422A
:102A1000D3D04169490506D441693940B942CCD087
:102A200041694905E3D5016841F4007101606FF423
:102A300080614161042002E0FDF7E4FD20200021D7
:102A40002022216384F83D2084F83E10226C10433C
:102A5000206484F83C10012001B0F0BD00000000AB
:102A600010B52DED028B044610EE900AB0EE408AB0
:102A700004F0B2F89FED120B53EC102B03F0B2FDF3
:102A800041EC100B02F05CF953EC102B9FED0E0B98
:102A900051EC100B03F0B2FF03F09EFA94ED001A14
:102AA00000EE100A38EE412A22EE000A30EE010A4A
:102AB000606084ED000ABDEC028B10BD00BF00BF5A
:102AC000BC718BB665BC89BF000000000000F03F00
:102AD00084B000901198CDE902239DED020A90ED9B
:102AE000021A9FED173A30EE410A20EE030A90EDEC
:102AF000032A30EE010A9DED031A90ED044A31EEEF
:102B0000421A21EE031A31EE021A9DED042A07AB98
:102B100001910ECB32EE442A00F11C0C22EE032A66
:102B20008CE80E000CAB32EE042A0ECB80ED020ACC
:102B300080ED031A80ED042A30300EC004B07047D7
:102B40005B52CB3C0000000084B070B52DED068BCD
:102B50000D939DED0D9ACDE90A011B9E19EE100A09
:102B60000C9204F039F89DED0EAA41EC180B1AEE08
:102B7000100A04F031F841EC110BB0EE480AF0EE07
:102B8000680A01F0DDFF51EC100B9FED1D0B54ECBA
:102B9000105B2A46234603F025FD03F01DFA0C992D
:102BA000306081F0004004F017F82AEE0A0A29EE9E
:102BB000091A31EE000A41EC180B10EE100A04F06D
:102BC0000BF841EC100B03F097F8B0EE401AB0EEA2
:102BD000480AF0EE601AF0EE680A01F0B1FF51EC1D
:102BE000100B2A46234603F0FDFC03F0F5F9002103
:102BF000C6E90101BDEC068BBDE8704004B070472A
:102C0000B694631ADCA54C40F0B585B004469E200E
:102C10008DF81300642501260DF113072046D021FD
:102C200025220123CDE900760295FDF765FF0320FB
:102C30008DF813002046D02126220123CDE900760D
:102C40000295FDF759FF86208DF813002046D0210C
:102C500027220123CDE900760295FDF74DFF20469E
:102C6000D021672201238DF81360CDE9007602950B
:102C7000FDF742FF05B0F0BDF0B585B00446002079
:102C80008DF81300642501260DF113072046D0218D
:102C90006A220123CDE900760295FDF72DFF02207F
:102CA0008DF813002046D02137220123CDE900768C
:102CB0000295FDF721FF05B0F0BD00002DE9F041C0
:102CC00084B0044601250DF10F006426CDE900050E
:102CD0002046D021752201230296FDF755FD9DF86F
:102CE0000F00682848D10DF10E072046D0216B2235
:102CF00001238DF80E50CDE900750296FDF7FCFE1C
:102D00004FF000082046D021192201238DF80E80B3
:102D1000CDE900750296FDF7EFFE2046D0211A227C
:102D200001238DF80E50CDE900750296FDF7E4FE03
:102D300018208DF80E002046D0211B220123CDE95A
:102D400000750296FDF7D8FE2046D0211C220123F3
:102D50008DF80E80CDE900750296FDF7CDFE0D20B1
:102D60008DF80E002046D02124220123CDE90075E4
:102D70000296FDF7C1FE0025284604B0BDE8F081AB
:102D8000F0B585B0044600208DF8130064250126B7
:102D90000DF113072046D02137220123CDE900761B
:102DA0000295FDF7A9FE20208DF813002046D021C2
:102DB0006A220123CDE900760295FDF79DFE05B05C
:102DC000F0BD0000000000002DE9F04F81B02DEDB6
:102DD000028B88B00C46142103AA6427CDE9002198
:102DE000D0213B2201230297FDF7CEFCBDF80C1049
:102DF000BDF80E20C8BA09BA090C2180D1BA12BA9E
:102E0000BDF81070120C6280FBBA3ABABDF81470AB
:102E100000EE100A9FED4E1A120CB8EEC00AA28006
:102E2000FABA20EE010A84ED020A00EE102A9FEDA4
:102E3000498AB8EEC00A80EE080A3FBABDF81660AB
:102E40003F0CBDF81C00A782F7BA36BABDF818507F
:102E5000360C02EE101A90FAB0F900BABDF81E1046
:102E6000E68295FAB5FA2EBABDF81A50000C360C67
:102E700003EE103AA08508BA26832EBAB8EEC22A0D
:102E8000B8EEC33A000C360C22EE012A23EE011AEA
:102E9000608510EE100A95FAB5F8268591FAB1FB17
:102EA00084ED032A84ED041A03F096FE9FED260BB1
:102EB00055EC106B32462B4603F094FB03F08CF874
:102EC00000EE107AB8EEC00A80EE080AE06110EE5B
:102ED000100A03F081FE32462B4603F083FB03F019
:102EE0007BF800EE10AAB8EEC00A80EE080A206255
:102EF00010EE100A03F070FE32462B4603F072FB10
:102F000003F06AF800EE108A9FED131A02EE10BA71
:102F100003EE109AB8EEC00AB8EEC22AB8EEC33A71
:102F200080EE010A82EE012A83EE011A606284EDCE
:102F30000C0A84ED0D2A84ED0E1A08B0BDEC028B4C
:102F400001B0BDE8F08F00BF11DD52A246DF913F16
:102F50000000803833338341004088442DE9F0413C
:102F600084B00C464FF0640802270DF10E06EE21E6
:102F7000A02201230546CDE90067CDF80880FDF7C2
:102F800003FCBDF80E00EE2100BA000CA08128461B
:102F9000A2220123CDE90067CDF80880FDF7F4FBFC
:102FA000BDF80E00EE2100BA000C20802846A422B5
:102FB0000123CDE90067CDF80880FDF7E5FBBDF8FA
:102FC0000E00EE2100BA000C60802846A6220123E4
:102FD000CDE90067CDF80880FDF7D6FBBDF80E00FF
:102FE000EE2100BA000CA0802846A8220123CDE9DA
:102FF0000067CDF80880FDF7C7FBBDF80E00EE2195
:1030000000BA000CE0802846AA220123CDE900671F
:10301000CDF80880FDF7B8FBBDF80E00EE2100BA30
:10302000000C20812846AC220123CDE90067CDF8B1
:103030000880FDF7A9FBBDF80E00EE2100BA000CD8
:1030400060812846AE220123CDE90067CDF80880D3
:10305000FDF79AFBBDF80E0000BA010C0120E181DA
:1030600004B0BDE8F08100002DE9F04F85B040F2DA
:10307000C007C2F200070C4679680546481C0229C1
:103080007860C0F2888038784FF0000A00284FF04E
:1030900064084FF00300C7F804A053D00DF10D01F0
:1030A000CDE900102846EE2100220123CDF808804A
:1030B0004FF00109FDF768FB9DF80E109DF80D001B
:1030C0009DF80F20090241EA00401044606103A806
:1030D000CDE900092846EE21462201238DF80CA0F7
:1030E000CDF80880FDF708FD60692189A388A0EB71
:1030F0000120E18887F800A0A1FB00126788C909B8
:1031000041EA4261A3FB0035D20911EB0749668908
:1031100042F1000821881A0A42EA056246434FF448
:10312000FA6B2B0A12EBC13E43F10002B6F1FF3FEE
:103130000BEBE65B34DD0023002700254FF0000C8D
:1031400045E000BF0DF11101CDE900102846EE2148
:1031500000220123CDF808804FF00109FDF714FB90
:103160009DF812109DF811009DF81320090241EA04
:1031700000401044206104A800902846EE21562209
:1031800001238DF810A0CDF80880CDF80490FDF74C
:10319000B3FC87F80090012005B0BDE8F08F00BFB8
:1031A000A0FB0013C90F41EA430AABF5FA6149439A
:1031B00001EB8101CE1701EBD173002501EB967174
:1031C000A5EB6303A5EBA105DF174FEAE57C13EB45
:1031D000090348EB07061EEB05072569A061ABEB69
:1031E0000A00A7FB05E1206342EB0C00EA1707FB8E
:1031F00002114FEA5E5200FB0511E062481542EAF7
:10320000C121C91AB041C90B41EA4040C4E908369E
:10321000A7626063012005B0BDE8F08FB0B584B04F
:10322000054600200C468DF80F0001200DF10F011E
:103230004FF0640CCDE900102846EE211E22012338
:10324000CDF808C0FDF758FC0420FDF7E5F8284646
:103250002146FFF783FE012004B0B0BD2DE9F04107
:1032600086B0002643F63000CDE904660096C4F22D
:103270000200016840F6004441F0800101600168ED
:10328000C4F2020401F080010091009900960168E7
:10329000002241F00101016001684FF4704801F023
:1032A0000101009100990096016841F01001016050
:1032B000016801F01001009100990096016841F049
:1032C00008010160016801F0080100910099009671
:1032D000016841F004010160016801F004010091FE
:1032E00000990096016841F00201016000684FF406
:1032F000704100F00200009000982046FDF77CF934
:1033000001AD0127A4F540602946CDE90176039778
:10331000FDF796F820462946CDE90187CDE90366F9
:10332000FDF78EF806B0BDE8F081000080B540F2F0
:10333000C81045F20041C2F20000C4F2000141F69B
:10334000802200234FF4804CC0F2060280E80E0079
:10335000C0E9033CC0E90533C0E90733FDF758F97C
:10336000002808BF80BDBDE88040FDF74FB80000D1
:1033700080B540F21C2043F20001C2F20000C4F20A
:1033800001014FF4827200234FF4007C80E80E00AC
:103390000A21C0E90333C0E9053CC361C0E9083331
:1033A000C0E90A31FEF74EF8002808BF80BDBDE82D
:1033B0008040FDF72BB80000B0B59CB0002540F26E
:1033C0007420C4F201050021C2F20000482244F634
:1033D000206380241691CDE914111191CDE90F11CC
:1033E000CDE90D11CDE90B11CDE90911CDE9071199
:1033F000CDE90511CDE90311CDE90111C0E9005274
:10340000C0E90213C0E904118461FEF747F90028FE
:1034100018BFFCF7FBFF4FF48050139040F274206C
:10342000C2F2000013A9FEF7F3F9002818BFFCF759
:10343000EDFF40F27420C2F20000FEF785FC002888
:1034400018BFFCF7E3FF40F274200024C2F2000032
:1034500010A9CDE91044FEF7C5F8002818BFFCF705
:10346000D5FF6020099040F2BB30CDE90A0440F25C
:103470007420C2F2000009A90022CDE90C44CDE974
:103480000E44FEF74FFB002818BFFCF7BFFF40F2C9
:103490007420C2F2000009A90422FEF743FB0028B1
:1034A00018BFFCF7B3FF40F27420C2F2000009A974
:1034B0000822FEF737FB002818BFFCF7A7FF40F2F1
:1034C0007420C2F2000009A90C22FEF72BFB002891
:1034D00018BFFCF79BFF40F2742400204FF400510A
:1034E000C2F200040590CDE90300CDE90100069188
:1034F000089001A92046FEF74FF8002818BFFCF7F6
:1035000085FF2068A84201D01CB0B0BD002043F662
:1035100030011790C4F202010A6842F010020A60FA
:10352000096801F01001179117994FF4D4411791D0
:103530000221CDE918101A9001201B9005F5883062
:1035400017A9FCF77DFF1CB0B0BD000080B586B0A8
:1035500040F2BC2043F280230021C2F200004FF071
:103560008042C0F202030591CDE90311CDE90011BB
:10357000C0E90021C0E9021301618161FEF78EF804
:10358000002818BFFCF742FF4FF48050029040F231
:10359000BC20C2F2000002A9FEF73AF9002818BFC9
:1035A000FCF734FF40F2BC20C2F200006946FEF78F
:1035B00019F8002818BFFCF729FF06B080BD0000ED
:1035C00080B540F2043041F20041C2F20000C4F282
:1035D000010100234FF00C0C4FF4E13280E80E00A3
:1035E000C0E90333C0E905C3C361FEF77DFD0028D0
:1035F00008BF80BDBDE88040FCF708BF00000000A8
:103600002DE9F0412DED108B90ED021A90ED030A9B
:1036100090ED042A21EE013A20EE004A34EE033AFE
:1036200022EE024A34EE033AB1EEC33AB5EE403A26
:10363000F1EE10FA04D1BDEC108BBDE8F08100BFB3
:1036400081EE031A80EE030A90ED085A90ED096AA4
:1036500091ED008A91ED019A90ED074AB6EE007A5D
:1036600091ED02AA25EE075A26EE076A91ED03BAFC
:1036700024EE074AC2EE03AA29EE052A28EE063AEE
:1036800033EE022A2AEE043A32EE43FA2AEE082AF0
:1036900029EE0B3A33EE422A29EE447A6AEE050A05
:1036A00032EE022A37EE607A6BEE060A72EE418A3B
:1036B0002BEE0A1A28EE092A37EE60CA28EE047AA1
:1036C0006AEE060A32EE011A30EE877A6BEE050AD0
:1036D00031EE011A37EE60DA26EE097A68EE050A55
:1036E00071EE409A29EE090A30EEC77A6BEE040AB1
:1036F00010EE100A0C4630EE87EA03F06DFA9FEDEB
:10370000600B02460B4651EC100B03F077F92AEEE2
:103710000A0A054610EE100A0E4603F05DFA02464C
:103720000B462846314603F069F905461AEE900A21
:103730000E4603F051FA07468846284631462A4687
:10374000334602F07BFC3A46434603F057F902F059
:1037500043FCB8EE000A2AEE001A39EE092A22EEDE
:10376000293A21EE281A31EE031A38EE083A3BEED8
:103770000B4A28EE000A23EE293A24EE285AB9EE25
:10378000006A24EE294A20EE280A35EE033A05EEB7
:10379000100A30EE040A2AEE064A29EE067A24EED2
:1037A000054A27EE057A34EE000A3AEE0A4A37EE69
:1037B000033A24EE294A22EE282A32EE042A23EE86
:1037C000034A21EE015A35EE044A20EE005A35EE46
:1037D000044A22EE025A35EE044AB1EEC44A81EEA2
:1037E000041A83EE043A80EE040A82EE042A9FED66
:1037F000264A21EE041A23EE043A20EE040A22EEB1
:10380000042A9FED224A3CEE411A3DEE433A3EEE39
:10381000400A21EE041A23EE043A3FEE422A20EE3B
:10382000040A38EE011A39EE033A22EE042A3AEE7F
:10383000000A23EE034A21EE015A3BEE022A35EE3E
:10384000044A20EE005A35EE044A22EE025A35EEC2
:10385000044AB1EEC44A81EE041A83EE043A80EEC3
:10386000040A82EE042A84ED001A84ED013A84ED04
:10387000020A84ED032ABDEC108BBDE8F08100BF85
:10388000000000000000E03F0DC79A3D6F12033BAF
:103890002DE9F04F81B02DED108B92B090ED021A12
:1038A00090ED030A90ED042A21EE013A20EE004A41
:1038B00034EE033A22EE024A34EE033AB1EEC33A52
:1038C000B5EE403AF1EE10FA06D112B0BDEC108B15
:1038D00001B0BDE8F08F00BF90ED0C4A90ED0D5A9D
:1038E00090ED0E6A24EE047A65EE050A30EE877AD2
:1038F00066EE060A30EE877AB1EEC77AB5EE407A08
:10390000F1EE10FA0CD112B0BDEC108B01B0BDE895
:10391000F04FFFF775BE00BF000000000000E03F61
:1039200084EE07DAC5EE07CAC6EE079A91ED01AA42
:1039300091ED029A91ED038A91ED00BA81EE031A9E
:10394000C2EE03EA80EE030A2BEE09CA2AEE0D4A04
:103950002CEE895A35EE044A29EE885A35EE044A8F
:103960002BEE0D5A2CEE886A35EE465A29EE896AFE
:1039700036EE055A2DEE086A2CEE8B7A37EE066A83
:1039800029EE8A7A36EE476A2DEE097A6CEE8A0ABB
:1039900030EEC77A69EE8B0A30EE877A6AEE040A57
:1039A0006BEE051A71EEA00A69EE071A71EEA00A15
:1039B00068EE061A70EEE10A67EE0A1A6BEE062A46
:1039C00072EEE11A69EE042A72EEA11A68EE052A77
:1039D00072EEA11A21EEA12A20EEA03A33EE022ABD
:1039E000F1EEC2DA2AEE082A72EE4CAA2AEE066A34
:1039F0002BEE077A37EE066A29EE055A36EE455A5F
:103A000028EE044A74EE05BACDED05DA8DED072AED
:103A10003AEEAA2A32EE41FA29EE081A2BEE0A2AC9
:103A200032EE01EA3EEE0E1A71EE408A90ED070A80
:103A30008DED0F0A90ED080A8DED100A90ED090A40
:103A40008DED110A2AEE0A0A10EE100A069103F013
:103A5000C3F81FED4F0B02460B4651EC100BCDE99E
:103A6000011002F0CBFF29EE090A054610EE100AFC
:103A70000C4603F0B1F883468946284621465A464B
:103A80004B4602F0BBFF06461EEE900A0F4603F0BF
:103A9000A3F805460C463046394632463B46049666
:103AA000039702F0CBFA2A46234602F0A7FF02F062
:103AB00093FA00EE100A8DED0C0AB8EE000A29EE1A
:103AC000000A8DED080A38EE080A8DED0B0A3BEE70
:103AD0000B0A7DEEADFA8DED090A39EE090AB9EE51
:103AE000001A1FEE901A8DED0E0A2AEE010A8DEDD6
:103AF0000A0A29EE010A08467AEE0ADA8DED0D0A65
:103B000003F06AF880468A46DDE901105A464B46C2
:103B100002F074FF28EE080A044610EE100A0E4662
:103B200003F05AF802460B462046314602F066FF83
:103B30007BEEABEA2AEEAE0A044610EE100A0E4601
:103B400003F04AF807460D464046514622463346A2
:103B500002F048FD3A462B4602F070FA04461DEE8C
:103B6000100A0D4603F038F802460B462046294657
:103B700002F044FF02F030FA28EE0B0A2AEE091A8E
:103B800031EE400A2EEE2E1A2FEE800A31EE000A98
:103B900030EE6CDA9DED070A3CEE000A20EE2F0AAB
:103BA00010EE101A0CEE100A084603F015F8044641
:103BB0001EEE900A0D4603F00FF8DDE9033202F025
:103BC00011FD22462B4602F039FA044619EE900AFE
:103BD0000D4603F001F802460B462046294602F046
:103BE0000DFF02F0F9F99DED053AB9EE007AB8EE55
:103BF000006A23EE070A23EE063A2AEE2E1A20EE7A
:103C0000082A23EE084A32EE012A34EE011A23EE86
:103C10000B3A29EE2E4A2BEE875A33EE043A2BEE5E
:103C2000864A2AEE056A2FEE887A37EE066A29EE72
:103C3000055A2FEE8B7A37EE055A9DED087A6DEE18
:103C4000A80A27EE0F7A29EE044A37EE207A24EEEE
:103C50000C4A34EE074A21EE0D1A31EE041A20EE1A
:103C6000090A2BEE2E4A2FEE897A00EE900ADDED3E
:103C7000095ADDED0B4A30EE440A37EE044A27EECE
:103C8000207A37EE011A25EEA87A64EE8F1A31EE0B
:103C9000877ADDED0C3ADDED0A1A24EE0D4A61EE6D
:103CA000A31A31EE877A68EE2E1A61EE8C2A32EE74
:103CB000877A34EE074A26EE206A36EE044A24EE6E
:103CC000A86A25EE8F7A36EE476A9DED0D7A20EED2
:103CD0000C0A27EE237A37EE066A30EE060A2FEE3C
:103CE0008A6A36EE217A27EE0D7A37EE000A25EE43
:103CF000205A35EE005A9DED0E0A2DEE8F7A20EEF9
:103D0000280A37EE000A22EE0C2A32EE000A23EED1
:103D10000D2A32EE000A26EE202A32EE002A24EE88
:103D2000040A21EE013A33EE000A25EE053A33EE9D
:103D3000000A22EE023A33EE000AB1EEC06A40F207
:103D4000C000DFED841AC2F20000DDED112AF6EEAC
:103D5000003A84EE060A81EE063A85EE061A82EEF5
:103D6000062A2AEE004A2BEE035A35EE044A29EEC3
:103D7000015A35EE044A28EE025A35EE044A23EE83
:103D80000A5A2BEE006A36EE455A29EE026A35EEE3
:103D9000465A28EE016A36EE055A2AEE026A2BEEE2
:103DA000017A37EE066A29EE037A36EE476A28EE84
:103DB000007A36EE476A21EE0A7A6BEE020A30EE9E
:103DC000C77A69EE000A30EE877A68EE030A37EEAA
:103DD000607AD0ED020A24EE214A34EE204AD0ED7A
:103DE000030A25EE215A26EE216A27EE217AD0ED2C
:103DF000041A30EE855AD0ED050A31EE866ADFED01
:103E0000561A30EE877A24EE214A25EE215A26EE04
:103E1000216A27EE217ADDED0F0ADDED101A70EE32
:103E2000C50A71EEC61A72EEC72A60EEA30A61EEE9
:103E3000A31A62EEA32AFEEE003A64EE233A60EE85
:103E40008A4A6BEE235A75EEE44A69EE215A74EE03
:103E5000E54A68EE225A74EEE54A6AEE235A6BEEA2
:103E6000206A76EEA55A69EE226A76EEA55A68EEC9
:103E7000216A75EEE65A62EE8A6A6BEE217A77EE77
:103E8000E66A69EE237A6AEE211A6BEE222A77EE51
:103E9000A66A68EE207A72EEA11A69EE200ADFEDBA
:103EA0002F2A71EEE00A68EE231A71EEA00A23EEC3
:103EB000223A20EE220ADFED2A1A77EEA66A21EED8
:103EC000221A34EEC33A35EEC00A22EE222A36EE2A
:103ED000C11A23EE213A20EE210A30EEC22A21EE49
:103EE000211A3BEE033A3AEE000A22EE212A39EE7D
:103EF000011A60EE000A63EE031A38EE022A71EE30
:103F0000A00A61EE011A71EEA00A62EE021A71EEC9
:103F1000A00AF1EEE00A80ED024A80ED035A80ED3E
:103F2000046A80ED057A069883EE203A80EE200A36
:103F300081EE201A82EE202A80ED003A80ED010AFF
:103F400080ED021A80ED032A12B0BDEC108B01B097
:103F5000BDE8F08F6F12833B8FC2753C0DC79A3D51
:103F60006F12033BFEE70000FEE700007047000011
:103F70002DE9F0412DED108BB0EE40AAB0EE419A44
:103F800021EE210A2AEE201A31EE000A30EE000A54
:103F9000044610EE100AB0EE618AB0EE60BA02F08C
:103FA0001BFE2BEE0BDA2AEE0AEA3EEE4D0A29EE54
:103FB00049FA3FEE000A68EE089A39EE800A41ECB1
:103FC0001C0B10EE100A02F007FE41EC110BB0EED4
:103FD0004C0AF0EE6C0A00F0B3FD51EC100B01F04E
:103FE000FBFF28EE0B0A2AEE091A31EE400A30EEEA
:103FF000000A206010EE100A02F0EEFD41EC100BFA
:1040000000F082FA51EC100B01F0E6FF2BEE090AEA
:104010002AEE081A31EE000A30EE000A606010EE57
:10402000100A02F0D9FD3EEE0D0A3FEE000A30EE16
:10403000690A41EC180B10EE100A02F0CDFD41ECBC
:10404000110BB0EE480AF0EE680A00F079FD51EC71
:10405000100B01F0C1FF8046D4E9000502F0BCFD61
:104060009FED110B56EC107B3A46334602F0BAFA3C
:1040700001F0B2FF2060284602F0AEFD3A4633461A
:1040800002F0B0FA01F0A8FF6060404602F0A4FD23
:104090003A46334602F0A6FA01F09EFFA060BDEC5E
:1040A000108BBDE8F08100BFB694631ADCA54C40CC
:1040B00070470000FCF744BEB0B592B0002443F650
:1040C00040000B94CDE90944CDE907440594CDE9BE
:1040D0000344CDE901440094C4F2020001680225C2
:1040E00041F080510160006800F08050009000981D
:1040F00047F200000094C4F20000016841F48041DE
:104100000160006800F48040009000980120099050
:1041100010200A9008200E904820CDE90F050420B9
:10412000119006A80695CDE90C54FCF7D1FF28B1F3
:10413000EFF3108072B600BFFEE700BF0F20CDE99D
:1041400001054FF48050CDE9040401A80221039435
:10415000FCF7B0FE20B1EFF3108072B6FEE700BFAF
:1041600012B0B0BD4EF68850CEF20000016841F4A6
:10417000700101607047000040F2BC20C2F20000F4
:10418000FDF716BC10B540F6FF3E0368C4F2000E02
:1041900040F2004C7045C4F2010C27DCB0F1804FB6
:1041A00031D040F20042C4F2000290422BD040F6DF
:1041B0000002C4F20002904225D041F6FF72C4F220
:1041C0000002904229DC70453CDCB0F1804F5FD0AA
:1041D00040F20042C4F20002904259D040F6000280
:1041E000C4F20002904253D056E000BF40F60042B5
:1041F000C4F20002904206D0604504D00022C4F20E
:1042000001029042D9D14A6823F07003134341F66A
:10421000FF72C4F200029042D5DD43F6FF72C4F291
:104220000102904222DC42F20002C4F200029042FB
:104230002ED00022C4F20102904229D0604527D03E
:104240002AE000BF40F60042C4F2000290421FD0B4
:1042500041F60002C4F20002904219D041F6004239
:10426000C4F20002904213D016E000BF44F20002F4
:10427000C4F2010290420BD044F60002C4F20102E3
:10428000904205D044F20042C4F20102904203D1B0
:10429000CA6823F44073134323F080024B69D1F8BA
:1042A00000E08C681A430260C46240F48062C0F887
:1042B00028E0624504BF096901630121416110BD25
:1042C00010B504460068D4E902C22369016921F4EB
:1042D000405111430161626943EA0C01E3691143F2
:1042E000C268194349F20C639A431143C1604169A2
:1042F000A26921F4407141F20043114340F480620D
:10430000C4F201039A42416102D1FCF797FE01E039
:10431000FCF780FEE16963681922B1F5004FA0FB4C
:10432000020123D15A00DB0FFBF79EFF48F21F5119
:10433000C5F2EB11A0FB01235A094FF69C73C0F69E
:10434000FF7303F1805302FB0300322303EBC00031
:10435000A0FB01014FF4F87000EA111000EB02100D
:10436000C1F3421108442168886010BD9A009B0F78
:10437000FBF77AFF48F21F51C5F2EB11A0FB0123B6
:104380005A094FF69C73C0F6FF7302FB03003223F9
:1043900003EB0010A0FB0101F02000EA511000EB3C
:1043A0000210C1F3431108442168886010BD000069
:1043B000FEE700000000000080B551EC100B53EC4C
:1043C000112B01F0F7FE41EC100B9FED0B1B00F0E1
:1043D00063FE53EC102B9FED0A0B51EC100B02F017
:1043E0000DFB9FED090B53EC102B02F0FBF841EC99
:1043F000100B80BD00BF00BF00000060955BC83F90
:10440000000000000000F03F0000000040A5E54073
:10441000FCF7A4FCFFF750FEFEF720FFFEF786FF37
:10442000FEF7A6FFFEF7C8FFFFF790F8FFF7C8F802
:1044300040F2C814C2F200042046FEF73FFC0128F7
:10444000FAD040F2C814C2F200042046FEF714FC71
:104450002046FDF7AFFE2046FEF792FC2046FEF711
:10446000D3FB40F2D800C2F2000000F13001204638
:10447000FEF7D4FE40F27420C2F2000000F008F80B
:1044800040F2BC20C2F20000FDF76CF9FEE700002C
:10449000B0B50446FDF766F920460021FDF786FC1D
:1044A00020684FF44875456320460421FDF77EFCE3
:1044B0002068082185632046FDF778FC20680C21E0
:1044C000C5632046FDF772FC21684FF4FA600D6465
:1044D000BDE8B040FBF7A0BF03B4019841000098CD
:1044E00050EAC12018BF04204A0D18BF40F0010057
:1044F00040F2FF72B2EB515F08BF40F002000128AA
:1045000008BF052002B0704770B5C1482DED020B01
:104510002DED0E8B82B0119D25F000449FEDBEDB8A
:104520009FEDBFEB84423EDBA4F140511098A1F116
:104530007F6108430FD0BC48844202DC28D1109828
:1045400030B39DED100B02B0BDEC0E8B02B0BDE898
:10455000704001F0A5BC9DED100B53EC1D2B51ECF0
:10456000100B02F03FF89DED100B41EC180B53ECD3
:104570001E2B51EC100B02F035F853EC182B01F008
:104580005DFD41EC100B02B0BDEC0E8B02B070BDB6
:104590000120FBF7E9FE02B0BDEC0E8B02B0BDE8D6
:1045A000704001F091BCA1489FEDA18B844256DA86
:1045B0009DED100BB4F1795F0ADA51EC100BFFF7A7
:1045C0008BFF042808BF01F09FFC9DED100BDAE77C
:1045D00053EC102B51EC100B02F004F841EC190BCA
:1045E00095480621B0EE490AF0EE690A784401F0D8
:1045F000C0FB53EC192B51EC100B01F0F3FF41EC15
:104600001A0B8E48B0EE490AF0EE690A042178448C
:1046100001F0AFFB53EC192B51EC100B01F0E2FF52
:1046200053EC182B01F00AFD41EC100B51EC1A0B66
:1046300053EC102B01F0BEFDCDE900019DED000B08
:1046400053EC102B9DED100B51EC100B01F0CAFF39
:104650009DED101B53EC112B01F0F0FCD2E09DED11
:10466000100B51EC100B01F067FC53EC182B02F00F
:10467000EDF89FED730BCDE9000153EC102B9DED90
:10468000000B51EC100B01F0ADFF41EC190B6E4823
:104690000621B0EE490AF0EE690A784401F069FBA0
:1046A00053EC192B51EC100B01F09CFF41EC1B0B50
:1046B0006648B0EE490AF0EE690A0421784401F038
:1046C00058FB53EC192B51EC100B01F08BFF53EC02
:1046D000182B01F0B3FC41EC1C0B51EC190B01F051
:1046E00037FC41EC180B5A489FED5BABA04222DC33
:1046F00053EC1C2B51EC1B0B01F05CFDCDE90001D0
:104700009DED000B51EC180B53EC102B01F06AFFE0
:1047100053EC182B01F092FC53EC1A2B01F062FFC2
:1047200053EC1D2B02F06AF953EC1E2B02F08EF8AD
:1047300041EC100B5FE08DED008B002000909DEDB3
:10474000000B51EC180B53EC102B01F077FC9DED96
:10475000000B41EC1E0B53EC102B51EC100B01F035
:1047600041FF53EC192B02F071F853EC1E2B01F0B2
:1047700021FD41EC190B53EC1C2B51EC1B0B01F0F0
:1047800019FD41EC1B0B53EC1A2B51EC190B01F0EA
:1047900029FF53EC1D2B02F059F841EC190B53EC97
:1047A0001A2B51EC180B01F01DFF53EC1B2B01F0E1
:1047B00019FF53EC192B02F021F99DED000B41EC90
:1047C000180B53EC1A2B51EC100B01F00BFF9FED63
:1047D000249B53EC192B02F039F841EC100B51ECEF
:1047E000180B53EC102B02F009F953EC192B02F0C3
:1047F0002DF841EC100B002D3FF7C5AE51EC100B1E
:1048000001F0DDFB41EC100BBDE6000000000000F4
:104810000000F03F00000000075C143326A6913C26
:10482000182D4454FB21F93F0000F07F0000E03FC9
:10483000000000000000F03FE0270000EE2700002D
:10484000000000000000E03F322700004027000089
:104850003333EF3F00000000000000000000004084
:10486000182D4454FB21E93F70B59B482DED020BF8
:104870002DED068B079D25F00044A04218DC9748DB
:10488000844202DC0AD1069840B19DED060BBDECD6
:10489000068B02B0BDE8704001F002BB002DCCBF1A
:1048A0009FED8F0B9FED900BBDEC068B02B070BDA2
:1048B0008F48A04215DD8F48A042D8BF4FF0FF348B
:1048C00058DD9DED060B51EC100BFFF705FE04289B
:1048D00008BF01F019FB9DED060BBDEC068B02B085
:1048E00070BD9DED060B51EC100B01F025FBCDE9E1
:1048F000060181489FED828BA0423CDD8248A042A8
:104900001FDD00249FED82AB9DED060B53EC1A2BAF
:1049100051EC100B01F092FB9DED060B41EC190BD5
:1049200053EC1A2B51EC100B01F05CFE53EC182BDE
:1049300002F064F853EC192B01F03CFCCDE90601C0
:1049400049E09DED060B012453EC182B51EC100BA4
:1049500001F074FB9DED060B41EC190B53EC182B89
:1049600051EC100B02F04AF853EC192B01F022FC29
:10497000CDE906012FE06848A0421FDD02249FED2B
:10498000689B9DED060B53EC192B51EC100B01F0BD
:1049900029FE53EC182B01F051FB9DED060B41EC69
:1049A000180B53EC192B51EC100B02F027F853ECB9
:1049B000182B01F0FFFBCDE906010CE09DED060B85
:1049C000032453EC102B9FED580B51EC100B01F00E
:1049D000F1FBCDE906019DED060B53EC102B51ECDC
:1049E000100B01F0FFFD41EC180B53EC182B01F0FC
:1049F000F9FD41EC190B4E480621B0EE490AF0EEE4
:104A0000690A784401F0B5F953EC182B51EC100BFE
:104A100001F0E8FD41EC180B4648B0EE490AF0EE13
:104A2000690A0521784401F0A4F953EC192B51ECE3
:104A3000100B01F0D7FD41EC100B51EC180B53ECAF
:104A4000102B002C0EDA01F0F9FA9DED061B53EC49
:104A5000112B01F0C7FD9DED061B53EC112B01F04E
:104A6000F5FE35E001F0EAFA9DED061B53EC112B43
:104A700001F0B8FD41EC100B2F48784400EBC40066
:104A800090ED001B51EC100B53EC112B01F0B6FF15
:104A90009DED061B53EC112B01F0B0FF41EC100B08
:104AA0002648784400EBC40090ED001B51EC100B3D
:104AB00053EC112B01F0CAFE41EC100B002DA2BFEC
:104AC000BDEC068B02B070BD51EC100B01F077FA13
:104AD00041EC100B01E70000000010440000F07FE3
:104AE000182D4454FB21F93F182D4454FB21F9BFE4
:104AF0000000DC3F0000203E0000F33F000000000B
:104B0000000000000000F03F0000E63F0000000051
:104B10000000000000000040008003400000000092
:104B2000000000000000F83F000000000000F0BF9F
:104B30006225000018250000A22400005A2400006D
:104B400070B56F4E2DED040B2DED048B82B0DDF8AA
:104B500024C0DDE907235C422CF000411C4341EAFC
:104B6000D474069D22F00040B44205D86C422C4318
:104B700040EAD474B4420BD99DED081B9DED060BA1
:104B800002B0BDEC048B04B0BDE8704001F092B9F6
:104B9000ACF14054A4F17F641C430BD0022404EA1E
:104BA000AC7444EAD27405439FED578B9FED582BAC
:104BB00007D015E09DED060B51EC100B01F0B4F998
:104BC00042E0002C11BF012C9DED060B02B0BDECA4
:104BD000048B04BF04B070BD022C38D0032C3BD032
:104BE0000B439FED4D1B9FED4E0B0AD0B14218D1E8
:104BF000B04209D121F0804120F080400991079016
:104C00000FE0002A15DA10E0474B7B44002C08BF68
:104C100093ED000B0DD0012C10D0022C17D0032CDB
:104C20001AD0B0421DD1002A03DAB0EE410AF0EEEC
:104C3000610A02B0BDEC048B04B070BD93ED000BB3
:104C400051EC100B01F0BBF941EC100BF1E7B0EEA9
:104C5000480AF0EE680AECE7B0EE420AF0EE620AAB
:104C6000E7E7401A00159FED329B3C28C8BF8DED49
:104C7000000B17DCBCF1000FBCBF10F13C0F8DED39
:104C8000009B0FDB9DED080B53EC102B9DED060BED
:104C900051EC100B01F08EFA01F04EF901F044F9DD
:104CA000CDE90001B4B1012C10D0022C9FED220BF4
:104CB00053EC102B9DED000B51EC100B19D001F0B3
:104CC0009DFE53EC182B01F099FEBDE7019880F092
:104CD000004001909DED000B53EC192B51EC100B93
:104CE00001F0C2FB04BF0220FBF73EFB9DED000B71
:104CF0009FE701F083FE53EC182B01F0A7FDA3E71B
:104D00000000F07F00000000182D4454FB210940F2
:104D1000182D4454FB2109C0182D4454FB21F9BF20
:104D2000182D4454FB21F93F8A23000000000000A5
:104D30000000000000000000075C143326A6A13C20
:104D400070B52DED020B2DED0A8B82B00D98C40FBE
:104D500020F00045AE48854248D3AE48854219D37D
:104D60000C99C5F31300084309D09DED0C0B02B05C
:104D7000BDEC0A8B02B0BDE8704001F091B8002C88
:104D800014BF9FEDA50B9DED0C0B02B0BDEC0A8B83
:104D900002B070BD9FEDA20B53EC102B9DED0C0BE0
:104DA00051EC100B01F01CFD0AD20220FBF7DCFADB
:104DB00002B0BDEC0A8B02B0BDE8704001F094B8BF
:104DC0009FED990B53EC102B9DED0C0B51EC100B40
:104DD00001F0CCFB0AD20220FBF7C6FA02B0BDEC10
:104DE0000A8B02B0BDE8704001F08EB890489FED8C
:104DF00092BBA8425CD29248854219D2914878442D
:104E000000EBC40090ED000B53EC102B9DED0C0B50
:104E100051EC100B01F0F2FD41EC1A0B8A4878447A
:104E200000EBC40090ED009BC4F10100041B36E0D0
:104E30009FED870B53EC102B9DED0C0B51EC100BE1
:104E400001F0D0FB41EC100B8348784400EBC40028
:104E500090ED001B51EC100B53EC112B01F0EEF810
:104E600001F03EFB044601F06AFB41EC180B9FED9C
:104E70007C0B53EC102B01F0B5FB9DED0C1B53ECA0
:104E8000112B01F0E3FC41EC1A0B9FED770B51EC79
:104E9000180B53EC102B01F0A5FB41EC190B51EC56
:104EA0001A0B53EC192B01F0A9FDCDE90C011BE005
:104EB0006F48854217D29FED700B53EC102B9DED80
:104EC0000C0B51EC100B01F0B9F853EC1B2B01F05B
:104ED00087FC08D29DED0C0B53EC1B2B51EC100BF7
:104EE00001F0ACF86EE000249DED0C0B53EC102BA0
:104EF00051EC100B01F076FB41EC180B60480521DA
:104F0000B0EE480AF0EE680A784400F032FF53EC45
:104F1000182B51EC100B01F065FB9DED0C1B53ECB5
:104F2000112B01F093FC41EC180B9FED570B5CB378
:104F300053EC182B51EC100B01F060FD9DED0C0BA8
:104F400041EC1C0B53EC182B51EC100B01F04AFBFD
:104F500053EC1C2B01F02EF953EC192B01F076FCCD
:104F600053EC1A2B01F04AFD53EC1B2B01F06EFCA5
:104F7000CDE900016FF47F70844226DB01EB045021
:104F800001909DED000B00E753EC102B51EC180B3A
:104F900001F034FD9DED0C0B41EC190B53EC182B7B
:104FA00051EC100B01F01EFB53EC192B01F002F930
:104FB0009DED0C1B53EC112B01F020FD53EC1B2B32
:104FC00001F044FC41EC100BDFE608464FF07A514B
:104FD00001EB04519FED2E0B084453EC102B019074
:104FE0009DED000B51EC100B01F0FCFA0D4645EC69
:104FF000100B044651EC100BFFF76EFA042808BFA3
:1050000000F082FF45EC104BBFE6000000000000FE
:10501000422E86400000F07F0000000000000000EB
:10502000EF39FAFE422E864051302DD5104987C007
:10503000422ED63F00000000000000000000F03FBC
:10504000B2A2F03F2E2000001E2000000000000051
:10505000FE822B654715F73FD21F000000000000BD
:105060000000E0FE422EE63F763C7935EF39EA3D1E
:105070000000303E000000009C7500883CE4377E54
:10508000441F00000000000000000000000000407D
:1050900000000000000070012DE9F04D2DED040B23
:1050A0002DED0E8B94B0DDE92350259CDDF888A012
:1050B00025F0004624F00048BAF1000F14BF01218A
:1050C000002101EB4502FC4953184A1093422AD3B0
:1050D000002814BF0123002303EB44030B44F749CA
:1050E0008B4220D358EA00019FEDF5AB76D0DFF874
:1050F000D8B35D4503D1BAF1000F05D188E0BAF10C
:10510000000F08BF002100D0012101EB450111F57E
:10511000001F08D8002814BF0121002101EB440121
:1051200011F5001F0BD99DED241B9DED220B14B032
:10513000BDEC0E8B04B0BDE8F04D00F0BBBE002707
:10514000002DBCBFE149884521DAE1498845A8BF67
:1051500002271CDAC3451ADCDE4901EB2851142969
:1051600008DDC1F1340220FA02F101FA02F28242B2
:105170000DD108E058B9C1F1140228FA02F101FA80
:1051800002F2424503D101F00101C1F1020756EAE2
:105190000A0124D1002C22DA002D18BF022F01D0E1
:1051A000012F0AD00220FBF7DFF814B0BDEC0E8B04
:1051B00004B0BDE8F04D00F05BBE0220FBF7D4F870
:1051C00000F056FE51EC100B00F0F9FE41EC100B14
:1051D00014B0BDEC0E8B04B0BDE8F08D18E09FED6F
:1051E000BE9B9FEDBF8B002871D1B848804522D16E
:1051F00005F1804010F5801008BFBAF1000F07D00C
:10520000B3450ADC002CA8BF9DED240BE0DA0DE0CD
:10521000B0EE4A0AF0EE6A0ADAE7002C06DA9DEDF3
:10522000240B51EC100B00F0CAFE6FE0AE4878443E
:1052300090ED000BCCE7D8454DD1002C48DA2EB1CB
:1052400086423AD1BAF1000F42D126E0BAF1000FFE
:1052500013D00220FBF788F800F046FE8DED020B1C
:105260009DED220B8DED000B10EE900A039961F37A
:105270001E0003909DED020BAAE78DED029B9DEDB4
:10528000220B19EE901A10EE900A8DED000B61F3CF
:105290001E0003909DED020B9AE78DED028B9DEDB4
:1052A000220B18EE901A10EE900A8DED000B61F3B0
:1052B0001E0003909DED020B8AE709DA9DED220B9B
:1052C00051EC1A0B53EC102B00F074FF1EE020E0A1
:1052D0009DED220B7CE786421BDAB4F1804F0DD0A6
:1052E000A4F10050B0F1FF5013D1002D11DB9DED62
:1052F000220B51EC100B00F02BFE07E09DED220B72
:1053000053EC102B51EC100B00F0CABC41EC100B0D
:105310005EE79DED220B51EC100B00F00DFEBAF193
:10532000000FCDE90A0142D19FED710B46B3A6F102
:10533000E040B0F17F600CD05E4538D1002D00DA3E
:10534000A7B3022F0CBF01204FF0FF3001F0F7F898
:10535000DCE7002D01DD002C0DDA002D01DD002C35
:105360001FDB002D16DA002C14DB012F08BF9FED88
:10537000620B3FF42DAFB0EE490AF0EE690A27E761
:10538000022F18BF002D0CD0012F0AD1002DFFF6DF
:105390001FAF06E0002DB8BF002C08DA012F3FF444
:1053A00017AFB0EE480AF0EE680A11E71BE00120E3
:1053B00000EBE57050EA070115D0791EB0EE4A8A7D
:1053C000F0EE6A8A084308BF9FED4D8B4E480025DA
:1053D000804570DD4D494E48884514DDB0420DDBF7
:1053E000002C19DB2FE00120FAF7BEFF14B0BDEC52
:1053F0000E8B04B0BDE8F04D00F066BDB34502DC95
:10540000002C09DC1FE0864202DA002C1BDA03E0E4
:105410005E452BDD002C16DD0220FAF7A5FF00F01B
:1054200063FD8DED020B53EC192B51EC180B01F0C1
:10543000D9F8CDE900010399019861F31E000390AA
:105440009DED020BC4E60220FAF78EFF00F05CFD32
:1054500010EE901A18EE900A8DED020B8DED008B78
:1054600061F31E0003909DED020BB1E69DED0A0B6A
:1054700053EC1A2B51EC100B01F0C0FA9FED260BE8
:10548000CDE90A0153EC102B9DED0A0B51EC100BEA
:1054900001F0A8F89FED221B53EC112B01F0D6F977
:1054A0009DED0A1B53EC112B01F09CF89FED1E1B88
:1054B00053EC112B3CE08CE0FFFF1F00FFFF0F00BF
:1054C000000000000000F03F0000F03F0000F07F0F
:1054D0000000404301FCFFFF000000000000F07FDF
:1054E0000000000000000000661D00000000000039
:1054F0000000000000000080000000000000F0FF3D
:10550000000000000000F0BF0000E0410000F04398
:10551000FFFFEF3F00000000000000000000D03F50
:10552000555555555555D53F000000000000E03F4A
:1055300001F08CF99DED0A0B41EC190B53EC102B8B
:1055400051EC100B01F04EF853EC192B01F04AF816
:105550009DED0A0B41EC1B0B53EC102B9FEDFE0B4A
:1055600051EC100B01F03EF841EC190B9FEDFC0BD8
:1055700051EC1B0B53EC102B01F034F841EC1B0BDE
:105580009FEDF90B53EC102B9DED0A0B51EC100B1A
:1055900001F028F853EC1B2B01F030FA41EC1B0B07
:1055A00051EC190B53EC1B2B00F048FD0490CDE996
:1055B00004519DED040B53EC192B51EC100B01F031
:1055C0001DFA53EC1B2B01F041F941EC100B00F0DC
:1055D000A9B90020B6F5801F0EDA9FEDE50B53EC5C
:1055E000102B9DED0A0B51EC100B00F0FBFFCDE9E9
:1055F0000A016FF034000E4600EB2650A0F2FF3790
:10560000C6F31300DC4940F07F6646F040568842FE
:10561000D8BF002408DDD9498142C8BF012403DC7A
:105620000024A6F580167F1CD548784400EBC408FA
:105630000B9698ED000B53EC102B9DED0A0B51ECE3
:10564000100B01F0DBF998ED000B41EC1B0B53EC58
:10565000102B9DED0A0B51EC100B00F0EFFC41EC10
:10566000100B51EC1A0B53EC102B00F0A3FD41EC86
:105670001C0B51EC1B0B53EC1C2B00F0B3FF41EC4B
:10568000190BC0488DED0E9B78440E9590ED000BE4
:105690004FF0005040EA660000EB84408DED120BA5
:1056A00000F50020139098ED000B53EC102B9DEDAE
:1056B000120B51EC100B01F0A1F99DED0A1B53ECFC
:1056C000112B01F0C3F841EC100B53EC102B9DEDA6
:1056D0000E0B51EC100B00F085FF9DED120B41EC11
:1056E0001D0B53EC102B9DED0E0B51EC100B00F02D
:1056F00079FF53EC1B2B01F0A9F853EC1D2B01F0A3
:105700007DF953EC1C2B00F06DFF41EC1C0B53ECAE
:10571000192B51EC190B00F065FF41EC1B0B9A485B
:105720000621B0EE4B0AF0EE6B0A784400F021FB44
:10573000B0EE401AF0EE601AB0EE41DAF0EE61DA47
:1057400053EC1B2B51EC1B0B00F04CFF53EC1D2BAF
:1057500000F048FF9DED0E0B41EC1B0B53EC192B99
:1057600051EC100B00F06AFC53EC1C2B00F03AFFDC
:1057700053EC1B2B00F062FC9DED0E0B41EC1B0B60
:1057800053EC102B51EC100B00F02CFF41EC1D0BD7
:1057900053EC1D2B9FED7EEB51EC1E0B00F04EFCED
:1057A00053EC1B2B00F04AFC1290CDE912519DEDF9
:1057B000120B53EC1E2B51EC100B01F01FF953ECA4
:1057C0001D2B01F01BF953EC1B2B01F03FF89DED55
:1057D000120B41EC1D0B53EC102B9DED0E0B51ECFD
:1057E000100B00F0FFFE41EC1B0B53EC192B51EC9E
:1057F0001D0B00F0F7FE9DED120B41EC190B53EC65
:10580000102B51EC1C0B00F0EDFE53EC192B00F0AB
:1058100015FC41EC190B51EC1B0B53EC192B00F050
:105820000DFC0490CDE904519DED040B53EC1B2BB2
:1058300051EC100B01F0E2F853EC192B01F006F8D3
:105840009DED040B41EC190B53EC102B9FED520B0B
:1058500051EC100B00F0C6FE41EC1B0B9FED500B02
:1058600051EC190B53EC102B00F0BCFE9DED040B1A
:1058700041EC190B53EC102B9FED4B0B51EC100B23
:1058800000F0B0FE53EC192B00F0D8FB41EC100BEC
:105890004748784400EBC40090ED001B51EC100B1E
:1058A00053EC112B00F0CAFB41EC190B384600F009
:1058B00046FECDE90A0153EC192B51EC1B0B00F00D
:1058C000BDFB41EC100B3B48784400EBC40451ECA9
:1058D000100B94ED001B53EC112B00F0AFFB9DED72
:1058E0000A1B53EC112B00F0A9FB0490CDE90451E5
:1058F0009DED0A0B53EC102B9DED040B51EC100B9E
:1059000001F07CF894ED001B53EC112B01F076F8BC
:1059100053EC1B2B01F072F853EC192B00F096FF9F
:1059200041EC100B9DED241B53EC102B8DED001B57
:1059300000959DED240B51EC100B00F053FE9DEDF6
:10594000000B41EC190B53EC102B9DED240B51EC8B
:10595000100B01F053F82FE0000000604715F73FEF
:10596000FE822B654715F73F44DF5DF80BAE543ED2
:1059700000000000000040438E9803007AB60B0040
:105980004A1800000C1900007A17000000000000FF
:105990000000000000000840000000E009C7EE3FE2
:1059A000FD033ADC09C7EE3FF5015B14E02F3EBE74
:1059B00002160000BC1500009DED041B53EC112BDA
:1059C00000F010FE53EC192B00F038FB9DED040B9A
:1059D00041EC190B53EC102B9DED000B51EC100B0F
:1059E00000F000FECDE904019DED040B51EC190B14
:1059F00053EC102B00F022FBCDE902010C46AA4922
:105A00008C422FDB611A084318D19DED040B53EC37
:105A1000102B9DED020B51EC100B00F0EFFF41EC51
:105A20001B0B9FEDA30B51EC190B53EC102B00F04B
:105A300005FB53EC1B2B00F0D3FE2DD20220FAF70E
:105A400093FC00F051FA10EE901A18EE900A8DEDCA
:105A5000020B8DED008B61F31E0003909DED020B98
:105A6000FFF7B6BB944A24F00041914214D3934906
:105A7000214408437FF4E7AC9DED040B53EC102B5D
:105A80009DED020B51EC100B00F0B8FF53EC192BFD
:105A900000F0A6FE7FF6D7AC24F000408849894A82
:105AA000002601EB205182422BDA481C4FF4801172
:105AB00021FA00F02044844AC0F30A517A44A1F24A
:105AC000FF3192ED000B814A8DED0A0BCA4020EAAE
:105AD0000202C0F3130040F48010C1F1140120FA57
