:020000040800F2
:100000008809002029020008F53F0008B1270008F0
:10001000F13F0008F1030008094500080000000056
:10002000000000000000000000000000F140000897
:10003000F503000800000000ED400008F54000084E
:10004000430200084302000843020008430200087C
:10005000430200084302000843020008430200086C
:10006000430200084302000843020008430200085C
:10007000430200084302000843020008430200084C
:10008000430200084302000843020008430200083C
:10009000430200084302000843020008430200082C
:1000A000430200084302000843020008430200081C
:1000B000B941000843020008430200084302000857
:1000C00043020008430200084302000843020008FC
:1000D00043020008430200084302000843020008EC
:1000E00043020008430200084302000843020008DC
:1000F00043020008430200084302000843020008CC
:1001000043020008430200084302000843020008BB
:1001100043020008430200084302000843020008AB
:10012000430200084302000843020008430200089B
:10013000430200084302000843020008430200088B
:10014000430200084302000843020008430200087B
:10015000430200084302000843020008FD4400086F
:10016000430200084302000843020008430200085B
:100170004302000843020008430200080000000098
:10018000430200084302000800F002F800F03CF8C7
:100190000AA090E8000C82448344AAF10107DA45E2
:1001A00001D100F031F8AFF2090EBAE80F0013F0F8
:1001B000010F18BFFB1A43F0010318472473000016
:1001C00044730000103A24BF78C878C1FAD85207A7
:1001D00024BF30C830C144BF04680C6070470000C1
:1001E0000023002400250026103A28BF78C1FBD840
:1001F000520728BF30C148BF0B6070471FB507F0DA
:100200001AF81FBD10B510BD00F0BCF81146FFF77D
:10021000F5FF04F0A5FA00F0DAF803B4FFF7F2FFF7
:1002200003BC00F0DDF8000009488047094800479A
:10023000FEE7FEE7FEE7FEE7FEE7FEE7FEE7FEE796
:10024000FEE7FEE704480549054A064B70470000F3
:10025000A5410008890100088803002088090020C2
:10026000880500208805002053EA020C00F0698010
:100270002DE9F04B4FF00006002B1FBFB3FA83F5BA
:1002800003FA05F424FA05F65E4012BF1643B2FAEB
:1002900082F502FA05F4C5F120051EBF22FA05FC1D
:1002A00044EA0C04203556EA044C4FEA144418BFC3
:1002B000641C4FF000084FF00009904271EB030CF2
:1002C00039D3002919BFB1FA81F701FA07F6B0FA5C
:1002D00080F700FA07F6C7F120071EBF20FA07FCD7
:1002E00046EA0C062037B6FBF4FCA7EB0507103FE7
:1002F00007F01F0BCBF120062CFA06F60CFA0BFBCD
:1003000044BFB3460026202FA4BF5E464FF0000B2B
:100310005BEA060C08BF4FF0010B19EB0B0948EB29
:100320000608ABFB027C06FB02CC0BFB03CCC01B1C
:1003300071EB0C01C1E70B46024641464846BDE859
:10034000F08B13B5084318BF4FF0FF300146AFF3F1
:100350000080BDE81C40704770477047704710B57B
:1003600000F008F8006810BD10B5044600F002F86F
:10037000046010BD00487047080100200048704725
:10038000080100207546FFF7F9FFAE4605006946F3
:10039000534620F00700854618B020B5FFF752FFFE
:1003A000BDE820404FF000064FF000074FF0000876
:1003B0004FF0000BAC46ACE8C009ACE8C009ACE8B3
:1003C000C009ACE8C00921F007018D46704710B59F
:1003D0000446AFF300802046BDE81040FFF71DBF84
:1003E00001491820ABBEFEE726000200704700005E
:1003F000FEE700007047000070B5866D044600F00F
:100400004BF994F83510022928D105462068216C53
:10041000026822F016020260426922F08002426104
:1004200009B9A16C19B1016821F0080101600168E6
:1004300021F00101016000BF20680068C00715D0ED
:1004400000F02AF9401B0628F6D32020606503201F
:1004500084F83500002184F8341070BD8020606578
:100460000120002184F8341070BD00BFE06D3F21F1
:1004700001FA00F0B060012084F83500002000216E
:1004800084F8341070BD000090F83510022909D1AD
:10049000052180F835100068016821F00101016034
:1004A000002070478021416501207047B0B50446A7
:1004B00000F0F2F8054640F25800C2F20000007861
:1004C000611C18BF044400BF00F0E6F8401BA042C6
:1004D000FAD3B0BD2DE9F04F82B000F13E4241F6B3
:1004E000004502F1FF77C4F20205082243F6004EF0
:1004F0004FEAB726A84208BF0722C4F2010E072E12
:1005000038BF4FEAB7220125002600274FF0000828
:10051000009208E008F101080437B8F1100F06F165
:10052000020600F0A7800C6805FA08F914EA090F22
:10053000F0D0D1F804B003220BF0030CACF10104AD
:10054000B240012C6FEA020A10D88268CC6802EA35
:100550000A02B440224382604268CBF3001422EACC
:10056000090204FA08F42243426005E0BCF1030FDB
:1005700002D14FF0030C20E0C2688C6802EA0A0244
:10058000B4402243BCF1020FC26016D16FF00302E7
:1005900002EA58020244D2F820C007F01C050F23DB
:1005A0000C69AB402CEA030304FA05F52B431362F4
:1005B000D1F804B001250BF0030C02680CFA06F325
:1005C00002EA0A021A431BF4403F0260A2D0002252
:1005D00043F644030192C4F202031A684FF6084C32
:1005E00042F480421A601A68CFF6FF7C02F480421F
:1005F0000192019A28F00302724452F80C3007F07D
:100600000C050F24AC40A343009C04FA05F52B43D2
:1006100042F80C30DEF808204B6842EA090543F640
:100620000C4CDC0258BF22EA0905CEF80850C4F28F
:10063000010CDCF800209C0242EA090558BF22EABE
:100640000905CCF80050DEF804209C0342EA0905B5
:1006500058BF22EA0905CEF80450DEF80020DB037B
:1006600042EA090558BF22EA0905CEF800500125E3
:1006700050E700BF02B0BDE8F08F0000426902EA17
:100680000103914341EA034181617047002A08BF99
:10069000090481617047000040F28430C2F200001A
:1006A0000068704770B5B8B3044690F83D0028B9AB
:1006B000002084F83C00204600F056FB242084F8FB
:1006C0003D002068016821F001010160016841F4EA
:1006D00000410160016821F40041016000F0E4FC88
:1006E00048F28041C0F21E0140F60013D4F804E045
:1006F00088424FF00001C0F23D0348F2A16C4FF078
:10070000000238BF01219842C0F2010C38BF01221B
:10071000E64538BF0A460AB1012070BD4DF6836137
:10072000C4F21B31A0FB01122168950C4B684FF4F9
:10073000967623F03F0343EA9243754344F6D3563B
:100740004B60C1F262060B6AA5FB0656B50923F0A1
:100750003F03E64538BF950C6A1C1A430A62CA6912
:1007600048F2A0664CF6FF73C0F20106B64522EAD5
:1007700003020BD801384FEA4E03B0FBF3F001300F
:100780006FF31F30042898BF04201EE0A3680138CF
:1007900063B119230EFB03F3B0FBF3F001306FF3E9
:1007A0001F3078B100F5804008E000BF0EEB4E032B
:1007B000B0FBF3F001306FF31F3028B100F50040BB
:1007C00003E000BF012000E001201043C861086879
:1007D000D4E9072320F0C00010431843086088685C
:1007E00048F2FF3204F10C0690434CCE18431043FC
:1007F000A5698860C86820F0FF0030432843C860BE
:10080000086840F00100086000202021206484F87E
:100810003D10206384F83E0070BD00002DE9F047D4
:1008200084B0984617460E460446FFF735FF94F805
:100830003D10202923D1054620688169890719D5F3
:10084000FFF72AFF401B1928F6D90020202120633A
:1008500084F83D1084F83E00206C04F13C0940F01F
:10086000200020640220002189F8001004B0BDE8B7
:10087000F08700BFA14619F83C1F012904D10220CE
:1008800004B0BDE8F08700BF012289F800200368AA
:10089000DDE90D1A0C9ADB0703D1036843F001036D
:1008A0000360036823F400630360222084F83D00A2
:1008B000402084F83E000020206462626185608DE3
:1008C000314620850020CFF6FF70E06220463A4690
:1008D0004346CDF800A0019501F06CFF20B1012046
:1008E00004B0BDE8F08700BF208DA8B102282BD04E
:1008F000012835D121680A6822F480620A6000224A
:1009000003924A6903928A690392039A0A6842F43D
:1009100000720A602CE000BF00200390206841694B
:100920000391816903910399016841F400710160A9
:10093000202084F83D00002084F83E00002189F842
:10094000001004B0BDE8F08721680A6822F48062D4
:100950000A600A6842F400620A600022039202E020
:100960000021039121684A690392896903910399DF
:100970000AF1010680B2032818D8022842D00128C3
:1009800056D1BAF1000F00F0AB802068014651F853
:10099000142F520600F1A8800868C00600F1E2801A
:1009A000FFF77AFE401B5045EFD9D0E0BAF1000FB7
:1009B00010D000BF2068014651F8142F52060ED403
:1009C0000868C00600F1CE80FFF766FE401B504568
:1009D000F0D9BCE020684169490640F1B180006966
:1009E000616A0870606A2268411C208D616201386A
:1009F0002085638D013B638553695B0740F18080EF
:100A0000106973E020684169490747D4002E59D026
:100A1000BAF1000F00F09980FFF73EFE401B5045F1
:100A200000F29580206841694907F5D536E000BF9E
:100A30002068416949070FD4002E65D0BAF1000F34
:100A400000F08380FFF728FE401B504500F27F80B6
:100A5000206841694907F5D5016821F4806101608A
:100A60000069616A0870606A218D01300139606235
:100A700021852068618D01396185416949070DD45F
:100A8000002E4FD0BAF1000F5FD0FFF705FE401BDC
:100A900050455CD8206841694907F6D5016841F4A2
:100AA000007101600069616A0870606A2268411C17
:100AB0006162218D01392185618D0139618511695D
:100AC000417014E041694907E8D4416949075CBFB6
:100AD00041695FEA4171E1D441694907F2D5DDE737
:100AE0002068416949062BD50069616A0870606A0F
:100AF000218D01306062481E2085618D013961853C
:100B000001047FF437AF13E741694907A4D4416971
:100B100049075CBF41695FEA41719DD4416949075A
:100B2000F2D599E741694907B8D4416949075CBFE3
:100B300041695FEA4171B1D441694907F2D5ADE736
:100B400050F8141FC90601460CD4FFF7A5FD00207C
:100B50002021206384F83D1084F83E00206C40F092
:100B600020000AE06FF010000860002020212063C0
:100B700084F83D1084F83E00206C206401200021A0
:100B800089F8001004B0BDE8F08700002DE9F043BB
:100B900083B0994616460F460446FFF77DFD94F84C
:100BA0003D1020291CD1054620688169890713D58D
:100BB000FFF772FD401B1928F6D900202021206381
:100BC00084F83D1084F83E00216C41F0200121643E
:100BD00084F83C0004E000BF94F83C10012903D1E4
:100BE000022003B0BDE8F083012284F83C200368B2
:100BF000DDE90B180A9ADB0703D1036843F0010310
:100C00000360036823F400630360212084F83D003F
:100C1000402084F83E000020206462626185608D7F
:100C2000394620850020CFF6FF70E062204632462C
:100C30004B46CDF80080019501F04CFF20B101201A
:100C400003B0BDE8F08300BF208D002850D020689D
:100C500008F10106014651F8142F12062CD49EB15A
:100C6000B8F1000F5AD000BF086840055ED4FFF706
:100C700013FD401B404556D82068014651F8142FFB
:100C80001206F1D518E000BF0A6852054ED40A6872
:100C9000120611D40A68520548D40A6812060BD409
:100CA0000A68520542D40A68120605D40A68520539
:100CB0003CD40A681206E7D5626A114611F8013B76
:100CC0000361238D6162591E2185678D013F678510
:100CD00047697F070AD50F0408D051780161911C3C
:100CE0006162991E2185628D013A62850904B1D144
:100CF000204641462A4602F027F838BB20680168A2
:100D000041F400710160202084F83D00002084F847
:100D10003E0084F83C0003B0BDE8F083086840055D
:100D200004D4FFF7B9FC202004E000BF6FF480601A
:100D30000860042000212022216384F83D2084F8EB
:100D40003E10226C1043206484F83C10206C042870
:100D50007FF475AF2068016841F4007101600120E3
:100D600003B0BDE8F0830000B0B586B0016845F27D
:100D70000040C4F20000814202D006B0B0BD00BF06
:100D8000002443F630050194C4F20205296800F5F9
:100D9000D83041F002012960296801F00201019177
:100DA00001994FF4407101911221CDE90214032100
:100DB00004910421059101A9FFF78CFB0094286997
:100DC00040F400102861286900F400100090009899
:100DD00006B0B0BD40F2580040F28431C2F20000CB
:100DE000C2F2000100780A681044086070470000F1
:100DF00080B543F60040C4F20200016841F400717E
:100E00000160016841F480610160016841F4807112
:100E10000160032000F088F80F2000F005F800F0D2
:100E200027F8002080BD000070B540F25806C2F2DD
:100E3000000640F200113278C2F200014FF47A73DA
:100E40000968B3FBF2F20446B1FBF2F1084600F088
:100E500043FB0F2C4FF0010508D838B94FF0FF3095
:100E600021460022002500F033F87460284670BD4A
:100E700082B0002043F640010190C4F202014A68AA
:100E800042F480424A604A6802F480420192019A28
:100E90000090086840F080500860086800F08050BA
:100EA0000090009802B07047002848BF7047C1B258
:100EB00000F01F00012202FA00F04EF20012CEF202
:100EC000000242EAD10121F00301086070470000EE
:100ED00010B54EF60C5CCEF2000CDCF80030C3F31B
:100EE000022E8EF00704042C28BF0424BEF1030355
:100EF0004FF0FF3E0EFA04F438BF0023A14399409F
:100F00000EFA03F39A43114300F00F0200F160431D
:100F10000901043A03F564436244002848BF02F122
:100F20000C03197010BD00004EF60C51CEF20001FA
:100F30000A684FF6FF031A4060F30A2242F080600D
:100F400040F0FD70086070472DE9F041002800F086
:100F50008B8043F60808C4F202080446D8F8F80368
:100F60000D4600F00700884207D288F8F853D8F8F9
:100F7000F80300F00700A84276D12068810717D552
:100F8000410705D5D8F8001041F4E051C8F8001029
:100F9000010705D5D8F8001041F46041C8F80010E9
:100FA000D8F80010A26821F0F0011143C8F8001031
:100FB000C0073FD1D8F8F80300F00700A84207D9CE
:100FC00088F8F853D8F8F80300F00700A8424BD18E
:100FD0002068410707D5D8F80010E26821F4E051F5
:100FE0001143C8F80010000708D5D8F8000021699F
:100FF00020F4604040EAC100C8F8000000F07CF82E
:10100000D8F8001047F2C842C1F30311C0F600023D
:10101000515C40F2001220FA01F140F25C00C2F291
:1010200000000068C2F200021160FFF7FDFE002020
:10103000BDE8F0816068811E022907D258F8081CBB
:1010400089015CBF0120BDE8F08111E0012807D1D2
:1010500058F8081C89035CBF0120BDE8F08107E057
:1010600058F8081C890703D40120BDE8F08100BFAF
:10107000D8F8001021F003010843C8F80000FFF77A
:101080000BFB064641F28837D8F80000616800F093
:101090000C00B0EB810F8DD0FFF7FEFA801BB84239
:1010A000F2D90320BDE8F08140F2001043F60801B8
:1010B000C2F20000C4F202010068096847F2D84297
:1010C000C1F38221C0F60002515CC84070470000A5
:1010D00040F2001043F60801C2F20000C4F202011F
:1010E0000068096847F2D842C1F34231C0F60002F5
:1010F000515CC8407047000010B543F60404C4F2C8
:101100000204606800F00C0008280BD0042819BF06
:1011100042F20040C0F2F40047F64000C0F27D10F9
:1011200010BD00BF206821682368490247F64001CE
:10113000C0F27D1100F03F02C3F388105CBF42F2A1
:101140000041C0F2F401A1FB00010023FFF78CF87D
:1011500021680222C1F3014102EB4101B0FBF1F031
:1011600010BD00002DE9F04182B0002868D004468F
:10117000007843F60006C007C4F202060BD0B06840
:1011800000F00C00042840F09F803068800302D5F6
:101190006068002854D0207880071AD5B06810F015
:1011A0000C0F09D0B06800F00C00082840F0A680B1
:1011B0007068400200F1A2803068800702D5E068C4
:1011C00001283DD13068216920F0F80040EAC100D3
:1011D00030602078000737D4207840074CD4A569C8
:1011E00055B3B06800F00C00082840F0BB80012D1A
:1011F00026D07068E16900F480028A4220D1216A19
:1012000000F03F028A421BD147F6C071626A01407A
:10121000B1EB821F14D1A16A4FF6FF73C903994342
:1012200000F44032A1F580318A4209D1E16A00F030
:101230007060B0EB016F03D1002002B0BDE8F08117
:10124000012002B0BDE8F0816069002840F2000092
:10125000C4F2472076D00121C0F8801EFFF71CFAA7
:10126000054600BF706F8007B6D4FFF715FA401B24
:101270000228F7D9DDE000BF306C10F080580AD1A9
:1012800000200190306C40F080503064306C00F0F1
:1012900080500190019847F20007C4F200073868B7
:1012A000C00541D4386840F480703860FFF7F4F925
:1012B000054600BF3868C00536D4FFF7EDF9401B7E
:1012C0000228F7D9B5E000BFB06800F00C0008288C
:1012D00003D1706840023FF558AF6068B0F5803FB9
:1012E00007D0B0F5A02F40F08D80306840F480200A
:1012F0003060306840F4803030608DE0E068002875
:1013000052D00020C4F2472001210160FFF7C4F948
:10131000054600BF306880073FF554AFFFF7BCF9C2
:10132000401B0228F6D984E0A068012805D00528D2
:101330004ED1306F40F004003067306F40F0010054
:1013400030674FE00021C0F8801EFFF7A5F9054681
:10135000706F80077FF540AFFFF79EF9401B0228B2
:10136000F6D966E00027C4F2472700203866FFF769
:1013700093F9022D05460BD1306880015ED5FFF749
:101380008BF9401B02284FF00300F5D955E700BF49
:10139000306880017FF550AFFFF77EF9401B0228CF
:1013A0004FF00300F4D948E70020C4F247200021A1
:1013B0000160FFF771F90546306880077FF509AFD6
:1013C000FFF76AF9401B02284FF00300F4D934E715
:1013D000316F002821F001013167316F21F00401E4
:1013E00031674DD0FFF758F9054641F2883700BF05
:1013F000306F800756D4FFF74FF9401BB842F7D93A
:1014000017E000BF3168002821F480313160316875
:1014100021F4802131604FD0FFF73EF9054600BF2F
:10142000306880033FF5B7AEFFF736F9401B6428FC
:10143000F6D9032002B0BDE8F08100BF04F11C051D
:101440002FCD084340EA8210D9034FF6FF72914333
:10145000A1F5803140EA05600843706001203866DC
:10146000FFF71AF9044600BF306880013FF5E4AE8B
:10147000FFF712F9001B02284FF00300F4D9DCE655
:10148000FFF70AF9054641F2883700BF306F800741
:1014900008D5FFF701F9401BB8424FF00300F5D91A
:1014A000CBE600BFB8F1000F7FF499AE306C20F0AE
:1014B0008050306493E600BFFFF7EEF8054600BFAA
:1014C000306880037FF567AEFFF7E6F8401B6428BD
:1014D0004FF00300F4D9B0E6411E0020B0EB116FCD
:1014E0001CBF012070474EF21002CEF20002516084
:1014F0004EF62351CEF20001F0230B7007219060CD
:10150000116070477047000070470000B0B590F858
:101510003C20012A04BF0220B0BD01F108053CCDEA
:10152000D1E900CE23F47C5322F470521A432EF4F6
:10153000F0431A432CF4E0431A4324F4C0431A4303
:101540002A43C96922F48042036811435964002187
:1015500080F83C100846B0BD10B590F83C20012A38
:101560004FF0020251D080F83D200268D2F804E02A
:10157000D2F808C00C682EF07003234341F2FF74C8
:10158000C4F20004A24253600EDC40F2FF73C4F2C6
:1015900000039A4216DCB2F1804F2BD040F2004398
:1015A000C4F2000324E000BF40F2FF33C4F20103A1
:1015B0009A4213DC41F60003C4F200039A4219D0A8
:1015C000002313E040F60003C4F200039A4211D056
:1015D00040F60043C4F200030AE000BF44F20003F7
:1015E000C4F201039A4205D040F20043C4F2010361
:1015F0009A4204D149682CF080031943916001217B
:10160000002280F83D1080F83C20104610BD0000FC
:10161000002804BF0120704710B5044690F83D0033
:1016200028B9002084F83C00204600F01FF8022072
:1016300084F83D002068211D02F0C4FD012084F8DB
:10164000460084F83E0084F83F0084F8400084F8A7
:10165000410084F8420084F8430084F8440084F890
:10166000450084F83D00002010BD000080B582B028
:101670000068B0F1804F15D00021C4F2010188420A
:101680000ED10020019043F64000C4F202004168F0
:1016900041F001014160406800F0010001900198B3
:1016A00002B080BD0020009043F64000C4F202006A
:1016B0000168002241F0010101600068002100F092
:1016C0000100009000981C20FFF702FC1C2002B0D3
:1016D000BDE88040FFF7E8BB90F83D1001291CBF32
:1016E00001207047022180F83D10006841F2FF722E
:1016F000C168C4F20002904241F00101C1600DDCFA
:1017000040F2FF71C4F20001884215DCB0F1804F55
:101710002AD040F20041C4F2000123E040F2FF3140
:10172000C4F20101884213DC41F60001C4F2000159
:10173000884219D0002113E040F60001C4F20001F4
:10174000884211D040F60041C4F200010AE000BF17
:1017500044F20001C4F20101884205D040F2004188
:10176000C4F20101884206D1816801F0070106290F
:1017700004BF00207047016841F0010101600020B2
:101780007047000080B590F83C20012A4FF002021B
:1017900000F0C28080F83D20D0F800C04FF677728C
:1017A000DCF8083023EA0202CCF808200B684F2B43
:1017B00028DC1F2B44DD202B45D0302B43D0402B81
:1017C00040F0AC80D1F804E0C968DCF82030DCF8E7
:1017D000202022F00102CCF82020DCF8182022F092
:1017E000F00242EA011123F00A0242EA0E02CCF8AA
:1017F0001810CCF82020DCF8081041F0470121F047
:10180000300180E06F2B27DDB3F5005F48D0B3F5E2
:10181000805F7AD0702B40F08180D1E901E3C96804
:10182000DCF8082043EA0E0322F47F4243EA012158
:101830001143CCF80810DCF8081041F0770162E0A1
:101840000BB1102B6AD1DCF8081021F0700119439C
:1018500041F0070157E000BF502B35D0602B5DD120
:10186000D1F804E0C968DCF8203023F01003CCF88C
:101870002030DCF81830DCF8202023F4704322F00C
:10188000A00243EA013142EA0E12CCF81810CCF85B
:101890002020DCF8081041F0670121F0100132E04F
:1018A000D1E901E3C968DCF8082043EA0E0322F419
:1018B0007F4243EA01211143CCF80810DCF80810FC
:1018C00041F480411FE000BFD1F804E0C968DCF8B2
:1018D0002030DCF8202022F00102CCF82020DCF8B7
:1018E000182022F0F00242EA011123F00A0242EA33
:1018F0000E02CCF81810CCF82020DCF8081041F0CB
:10190000570121F02001CCF808100022012180F8B5
:101910003D10002180F83C10104680BD0122F5E703
:101920007047000010B5016804460869800744BF8D
:10193000C8685FEA807039D40869400744BFC86846
:101940005FEA40703ED40869000744BFC8685FEA98
:10195000007045D40869C00644BFC8685FEAC0602B
:101960004AD40869C0071CBFC8685FEAC07051D17B
:101970000869000644BFC8685FEA006052D408697D
:10198000400644BFC8685FEA406053D408698006D7
:1019900046BFC8685FEA806010BD6FF02002204635
:1019A0000A61BDE81040FFF7AFBD00BF6FF0020055
:1019B0000861012020778869800743D02046FFF71F
:1019C000AFFF45E06FF004000861022020778869CE
:1019D00010F4407F40D02046FFF7A2FF42E000BF56
:1019E0006FF00800086104202077C86980073DD0A7
:1019F0002046FFF795FF3FE06FF0100008610820D8
:101A00002077C86910F4407F3AD02046FFF788FF5E
:101A10003CE000BF6FF001000861204600F034FA9E
:101A20002168A5E76FF0800008612046FFF76AFD96
:101A30002168A4E76FF040000861204600F08EFBAB
:101A40002168A3E7204600F04FF8204600F090F907
:101A50002168002020776FE7204600F045F82046F7
:101A600000F086F92168002020776CE7204600F01E
:101A70003BF8204600F07CF921680020207769E7D8
:101A8000204600F031F8204600F072F9216800206D
:101A9000207766E780B586B001680020C4F20100B7
:101AA000814201D006B080BD002143F63002019191
:101AB000C4F20202136800F5883043F0100313608B
:101AC000126802F010020192019A4FF4D44201927E
:101AD0000222CDE9022104910121059101A9FEF71D
:101AE000F9FC06B080BD0000704700002DE9F0430E
:101AF00090F83C30012B04BF0220BDE8F0834FEA90
:101B0000B202032A00F2FC80DFE802F0023E7EBE51
:101B1000036840F200471A6A43F4806522F001022C
:101B20001A621C6A1A46D3F804E052F818CF8E687D
:101B300024F00204C4F20107BD4244EA060405D1C0
:101B4000CE6824F00C0426F0040634430E68BD422F
:101B500007D1D1E905572EF4407E45EA0E0545EA46
:101B6000070E2CF073073743C3F804E09F614F68FA
:101B700009695F631C629F6947F008079F619F695D
:101B800027F004079F61B1E0036840F200481A6A39
:101B900043F4806522F010021A621C6A1A46D3F8D8
:101BA00004C052F818EF8F6824F02004C4F2010832
:101BB000454544EA071407D1CF686FF0400624F08A
:101BC000C00406EA07163443D1F80090454506D113
:101BD000D1E905562CF440672E4347EA860C2EF4D3
:101BE000E64747EA0927C3F804C09F614F680969BF
:101BF0009F631C629F6947F400679F619F6927F498
:101C000080679F6171E000BF036840F200481A6A74
:101C100043F4806522F480721A621C6A1A46D3F873
:101C200004C052F81CEF8F6824F40074C4F2010859
:101C3000454544EA072408D1CF6840F2FF463F02F9
:101C400024F4406427EA06063443D1F80090454561
:101C500006D1D1E905562CF440572E4347EA061C1D
:101C60002EF0730747EA0907C3F804C0DF614F6825
:101C70000969DF631C62DF6947F00807DF61DF691C
:101C800027F00407DF6131E0036840F200451A6A7B
:101C900043F4806722F480521A621A46D3F820C0B7
:101CA0005C6852F81CEFD1F800808E68C4F2010520
:101CB000AF4204D14D6924F4804444EA85142CF4E5
:101CC000005747EA06372EF4E64646EA08265C60E7
:101CD000DE614E6809691E641F62DF6947F40067B0
:101CE000DF61DF6927F48067DF6109021368194348
:101CF00011600021002280F83C200846BDE8F083F6
:101D00000121002280F83C200846BDE8F083000055
:101D1000002804BF0120704710B5044690F83D002C
:101D200028B9002084F83C00204600F01FF802206B
:101D300084F83D002068211D02F044FA012084F857
:101D4000460084F83E0084F83F0084F8400084F8A0
:101D5000410084F8420084F8430084F8440084F889
:101D6000450084F83D00002010BD000070470000D1
:101D70007047000041B1082910D0042914BF00F1B8
:101D8000410200F13F020BE090F83E20012A1CBF07
:101D900001207047022280F83E2013E000F140024B
:101DA0001278012A1CBF012070470222082907D09F
:101DB000042914BF80F8412080F83F2002E000BFD2
:101DC00080F84020006801F01F010122036A02FA36
:101DD00001F123EA01020262026A114341F2FF7239
:101DE000C4F20002904201620CDC40F2FF71C4F2C6
:101DF0000001884214DCB0F1804F37D040F200413E
:101E000016E000BF40F2FF31C4F20101884215DC48
:101E100041F60001C4F20001884227D0002115E0FC
:101E200040F60001C4F2000188421FD040F6004194
:101E3000C4F20001884219D01FE000BF44F2000143
:101E4000C4F20101884211D040F20041C4F2010104
:101E5000884212D1416C40F2004340F48062C4F2E7
:101E6000010341F400419A42416406D1816801F0C6
:101E70000701062904BF00207047016841F00101F5
:101E800001600020704700002DE9F0412DED088B26
:101E900040F23C31C2F2000100680968884203D078
:101EA000BDEC088BBDE8F08140F60040C4F20200B2
:101EB0004FF48051FEF7E2FB40F2442440F2A020B0
:101EC000C2F20004C2F20000214601F0F9F840F22B
:101ED000C815C2F20005284601F0E2FA40F268187F
:101EE00095ED0D0AC2F2000898ED071AB8EEC00A87
:101EF0009FED992A49F68C1030EE410A40F2000716
:101F0000C3F6763020EE020AC2F20007C8F82000BD
:101F100030EE010A08F1380107F10802204688ED89
:101F2000070A01F0F5FC07F1080090EC040A08F13B
:101F3000440002F07DFBD8F81C0005F00BF99FED82
:101F40007E0B53EC102B04F05DFC41EC100B9FED6D
:101F50007C1B03F09DFB53EC102B9FED7B0B51EC96
:101F6000100B05F009F89FED7A0B53EC102B04F0E1
:101F7000F7FD40F2600641EC110BD8ED0E0A98ED2A
:101F8000140AC2F20006044630460D4688ED0C1BCA
:101F900002F032F898ED151AD8ED0F0AB0EE408A2B
:101FA00006F12800B0EE410A02F026F898ED161A64
:101FB000D8ED100AB0EE409A06F15000B0EE410A9A
:101FC00002F01AF898ED0A1BB0EE40AA51EC110B82
:101FD00004F02AFB0BEE100A2046294604F024FBED
:101FE00000EE900A40F2D800C2F20000B0EE4B0AB8
:101FF00002F002F897ED091A97ED085A38EE013A07
:1020000039EE012A33EE4A3A3AEE022A30EE034A1A
:1020100031EE493A31EE486A30EE022A3AEE033A9E
:1020200036EE4A6A30EE033A30EE060AB4EE452A3E
:1020300087ED062A87ED0A4A87ED0E3AF1EE10FA8F
:1020400087ED120AC4BF87ED065AB0EE452A97ED18
:102050000C5A40F2F423B4EE454AF1EE10FAC4BF34
:1020600087ED0A5AB0EE454A97ED105AC2F20003C6
:10207000B4EE453AF1EE10FAC4BF87ED0E5AB0EE59
:10208000453A97ED145AB4EE450AF1EE10FAB4EE63
:10209000412AC4BF87ED125AB0EE450AF1EE10FA9C
:1020A000BCBF87ED061AB0EE412A97ED0D5AB4EE8B
:1020B000454AF1EE10FAB8BF87ED0A5A97ED114A7A
:1020C000B4EE443AF1EE10FABCBF87ED0E4AB0EE22
:1020D000443A97ED156AB4EE460AF1EE10FAB8BF2D
:1020E00087ED126A97ED070A97ED0F7AD8F804008A
:1020F00032EE000A33EE072A002804BFB0EE442A6D
:10210000B0EE410ABDEEC00A10EE101ABDEEC20AD2
:10211000BDEEC51A10EE102ABDEEC60A1B6811EE00
:10212000100A10EE107A59639863DA631F64BDECED
:10213000088BBDE8F08100BF00000000D0BCF84073
:1021400000000060955BC83F000000000000F03F09
:102150000000000040A5E5408C99763B70470000E8
:102160007047000070470000B0B582B004460068B8
:102170000168C368426901F02F05202D03F0200596
:1021800006D12DB1204602B0BDE8B04002F0BEB885
:102190005FEA017C1EBF02F0010E03F4907212EBA5
:1021A0000E0253D1226B012A05D111F0100218BF83
:1021B00013F0100236D10A0622D513F080021FD088
:1021C00094F83D1021293FD1A168B1F5805F03D17A
:1021D0002169002900F07282216A4A1C2262097872
:1021E0004160E18C01390A04E1842DD1C16821F0FC
:1021F0008001C160C16841F04001C16002B0B0BD62
:10220000490621D513F040011ED0C16821F04001DC
:10221000C1602021204684F83D1002B0BDE8B040E6
:1022200000F0C4BA00210191016801914168019157
:1022300001994069400613D4A08DE18DE28D002AFA
:1022400018BF884240F0BE8102B0B0BDCA0718BFB7
:1022500013F4807240F0BA804A0700F1BD80C2E0FA
:10226000A16B0868426893B2002BEDD0A08D834229
:10227000EAD2E285C969B1F5807F00F09D802068CF
:1022800050E8030F216820F4807041E80302DAB1BE
:10229000206850E8030F216820F4807041E80302B1
:1022A00092B1206850E8030F216820F4807041E863
:1022B00003024AB1206850E8030F216820F48070BF
:1022C00041E80302002ADAD1206850E8050F2168AE
:1022D00020F0010041E80502DAB1206850E8050F5E
:1022E000216820F0010041E8050292B1206850E821
:1022F000050F216820F0010041E805024AB120687D
:1023000050E8050F216820F0010041E80502002A8D
:10231000DAD1206850E8050F216820F0400041E83C
:102320000502DAB1206850E8050F216820F040006E
:1023300041E8050292B1206850E8050F216820F0BD
:10234000400041E805024AB1206850E8050F2168C5
:1023500020F0400041E80502002ADAD1202084F86C
:102360003E0000202063206850E8030F216820F021
:10237000100041E80302DAB1206850E8030F216839
:1023800020F0100041E8030292B1206850E8030FEA
:10239000216820F0100041E803024AB1206850E8AB
:1023A000030F216820F0100041E80302002ADAD16F
:1023B000A06BFEF721F8A08DE18D401A81B2204676
:1023C00002B0BDE8B040FFF7CBBE00BF226C42F0C8
:1023D000010222644A0706D5BEF1000F03D0226C29
:1023E00042F0020222648A0706D5BEF1000F03D034
:1023F000226C42F004022264BCF1000F09D545EAC8
:102400000E02B2FA82F2520903D1226C42F00802A3
:102410002264226C002A3FF417AF11F0200118BF8C
:10242000002D03D0204601F071FF20684069216C27
:1024300000F0400001F00801401800F0B58000BF36
:10244000206850E8030F216820F4907041E80302EF
:10245000BAB3206850E8030F216820F4907041E877
:10246000030272B3206850E8030F216820F49070D3
:1024700041E803022AB3206850E8030F216820F4E2
:10248000907041E80302002ADAD11AE0206850E88F
:10249000050F216820F0010041E80502DAB120684B
:1024A00050E8050F216820F0010041E8050292B1D3
:1024B000206850E8050F216820F0010041E805027E
:1024C0004AB1206850E8050F216820F0010041E87A
:1024D0000502002ADAD1206B012824D1206850E8B7
:1024E000030F216820F0100041E80302DAB12068F0
:1024F00050E8030F216820F0100041E8030292B178
:10250000206850E8030F216820F0100041E8030222
:102510004AB1206850E8030F216820F0100041E81C
:102520000302002ADAD1202084F83E000020206334
:102530002068406940063FD5206850E8050F2168B3
:1025400020F0400041E80502DAB1206850E8050FAC
:10255000216820F0400041E8050292B1206850E86F
:10256000050F216820F0400041E805024AB12068CB
:1025700050E8050F216820F0400041E80502002ADC
:10258000DAD1A06BC0B144F20131C0F6000101659F
:10259000FDF77AFF00283FF457AEA06B016D02B043
:1025A000BDE8B040084700BF2046FFF7DBFD002034
:1025B000206402B0B0BD00BF204602B0BDE8B0400C
:1025C000FFF7D0BD401A216851E8031F226821F4AB
:1025D000907142E80313DBB1216851E8031F2268C0
:1025E00021F4907142E8031393B1216851E8031F6D
:1025F000226821F4907142E803134BB1216851E83D
:10260000031F226821F4907142E80313002BDAD1F2
:10261000216851E8051F226821F0010142E80513F5
:10262000DBB1216851E8051F226821F0010142E871
:10263000051393B1216851E8051F226821F00101BB
:1026400042E805134BB1216851E8051F226821F0CB
:10265000010142E80513002BDAD1202184F83E1055
:1026600000212163216851E8031F226821F0100135
:1026700042E80313002B3FF4A1AE216851E8031F89
:10268000226821F0100142E80313002B3FF496AEBC
:10269000216851E8031F226821F0100142E803136A
:1026A000002B3FF48BAE216851E8031F226821F014
:1026B000100142E80313002BD4D17FE6216A31F8E0
:1026C000022B6FF35F22426021628AE5002804BF7B
:1026D0000120704710B5044690F83D0028B900204D
:1026E00084F83C00204600F021F8242084F83D00C6
:1026F0002068C16821F40051C160204601F086FEC7
:102700002068016921F490410161416921F02A01A9
:102710004161C16841F40051C16000202021206462
:1027200084F83D1084F83E1010BD000080B586B0DE
:10273000016841F20040C4F20100814202D006B0BB
:1027400080BD00BF002143F630020191C4F20202B5
:10275000536900F5744043F020035361536903F05B
:1027600020030193019B0191136843F0040313605C
:10277000126802F004020192019AC0220192022220
:10278000CDE90221032104910821059101A9FDF75A
:10279000A1FE472000210022FEF79AFB4720FEF70A
:1027A00083FB06B080BD000070470000704700004A
:1027B000FEE700002DE9F04383B004460068994627
:1027C0000368904643F48062026002680B9D42F405
:1027D0008072026042690A9ED2070F461DD1711CA9
:1027E00011D0002E00F03681FDF756FF401BB0429D
:1027F00000F2328120684169C907F5D00DE000BFC1
:102800004169C90709D14169C90706D14169C907A9
:1028100004BF41695FEAC171F2D007F0FE070761AA
:102820004169890738D44169721C01F4806111D073
:1028300049BB002E00F03A81FDF72EFF401BB0424D
:1028400000F2368120684169890725D4416949052C
:10285000F2D518E0B9B9416989071DD44169490524
:1028600011D44169890717D4416949050BD44169DD
:10287000890711D44169490505D4416989070BD4F9
:1028800041694905E7D5016841F4007101606FF4C1
:102890008061416104200CE100210291014651F860
:1028A000142F02924A680292029A0A68120620D4F1
:1028B000002E00F0AB80721C51D10A68520500F165
:1028C000AD800A68120614D40A68520500F1A68089
:1028D0000A6812060DD40A68520500F19F800A6842
:1028E000120606D40A68520500F198800A6812069A
:1028F000E3D5B9F1010F45D04FEA18210161014636
:1029000051F8142F12063DD4002E00F07F80721C67
:102910002AD10A68520500F181800A68120631D472
:102920000A6852057AD40A6812062BD40A6852053E
:1029300074D40A68120625D40A6852056ED40A684F
:102940001206E6D51EE000BFFDF7A6FE401BB04212
:1029500061D82068014651F8142F1206C9D40868BE
:102960004005F1D55AE000BF0868400556D4FDF790
:1029700093FE401BB0424ED82068014651F8142FF8
:102980001206F1D55FFA88F10161014651F8142F62
:1029900012061AD4D6B3721C33D10A6852053DD43C
:1029A0000A68120611D40A68520537D40A6812065A
:1029B0000BD40A68520531D40A68120605D40A6895
:1029C00052052BD40A681206E7D50168002241F4AB
:1029D0008071016020464FF001113346009500F0F0
:1029E00007FA002850D02068006844E0FDF754FE44
:1029F000401BB0420FD82068014651F8142F120630
:102A0000E3D408684005F1D508E000BF0868400538
:102A100004D4FDF741FE202004E000BF6FF4806085
:102A20000860042000212022216384F83D2084F8DE
:102A30003E10226C1043206484F83C10206C042863
:102A400043D12068016841F400710160012003B0A6
:102A5000BDE8F083FDF720FE00202021206384F8EC
:102A60003D1084F83E00216C41F020012164216872
:102A700084F83C000868C00544BF4FF4007020642F
:102A8000032003B0BDE8F083206847F00101016135
:102A90000221C0F20101204632462B4600F050FAD6
:102AA000002818BF012003B0BDE8F083FDF7F4FD56
:102AB000202000212022216384F83D2084F83E104C
:102AC000226C1043206484F83C10012003B0BDE860
:102AD000F08300002DE9F04381B004460068904681
:102AE0000268099D42F4807202604269089E99461C
:102AF000D2070F461DD1711C11D0002E00F0D280DC
:102B0000FDF7CAFD401BB04200F2CE80206841694B
:102B1000C907F5D00DE000BF4169C90709D1416976
:102B2000C90706D14169C90704BF41695FEAC1719C
:102B3000F2D007F0FE0101614169890738D441698B
:102B4000721C01F4806111D049BB002E00F0E880B6
:102B5000FDF7A2FD401BB04200F2E480206841690D
:102B6000890725D441694905F2D518E0B9B9416909
:102B700089071DD44169490511D44169890717D4D2
:102B8000416949050BD44169890711D44169490557
:102B900005D4416989070BD441694905E7D5016826
:102BA00041F4007101606FF4806141610420BAE07A
:102BB00000210091014651F8142F00924A680092BA
:102BC000009A0A6812061ED4002E00F08580721C3E
:102BD0004DD10A68520500F187800A68120612D4A6
:102BE0000A68520500F180800A6812060BD40A6850
:102BF000520579D40A68120605D40A68520573D4BE
:102C00000A681206E5D5B9F1010F43D04FEA182141
:102C10000161014651F8142F12063BD4002E5BD0FF
:102C2000721C29D10A6852055ED40A68120631D492
:102C30000A68520558D40A6812062BD40A6852054D
:102C400052D40A68120625D40A6852054CD40A6880
:102C50001206E7D51EE000BFFDF71EFD401BB04287
:102C60003FD82068014651F8142F1206CBD40868CB
:102C70004005F1D538E000BF0868400534D4FDF7C1
:102C80000BFD401BB0422CD82068014651F8142F90
:102C90001206F1D55FFA88F10161002001B0BDE8AC
:102CA000F08300BFFDF7F8FC00202021206384F8AA
:102CB0003D1084F83E00216C41F020012164216820
:102CC00084F83C000868C00544BF4FF400702064DD
:102CD000032001B0BDE8F0830868400504D4FDF787
:102CE000DBFC202004E000BF6FF48060086004205B
:102CF00000212022216384F83D2084F83E10226CBC
:102D00001043206484F83C10206C042817D12068FC
:102D1000016841F400710160012001B0BDE8F08359
:102D2000FDF7BAFC202000212022216384F83D20F9
:102D300084F83E10226C1043206484F83C1001207B
:102D400001B0BDE8F083000070B50368044653F895
:102D5000140F400737D40E46F1B1701C24D100BFC8
:102D60001868400532D4186840072CD4186840050C
:102D70002CD41868400726D41868400526D4186853
:102D8000400720D41868400520D4186840074FF049
:102D9000000048BF70BDE3E71868400516D4FDF792
:102DA0007BFC202016E000BF154600BF18684005D8
:102DB0000CD4FDF771FC401BB042F2D8236853F8E5
:102DC000140F4007F2D5002070BD00BF6FF4806083
:102DD0001860042000212022216384F83D2084F81B
:102DE0003E10226C10432064012084F83C1070BD1A
:102DF0002DE9F04105461446DDF8188001F47F0006
:102E00002A681E46B0F5803F8FB241D150693840E4
:102E1000C01BB0FA80F04009A0427BD1701C2DD0BD
:102E2000002E7BD0FDF738FCA0EB0800B04277D82D
:102E3000286840693840C01BB0FA80F04009A042C1
:102E4000F0D00020BDE8F08150693840C01BB0FAD6
:102E500080F04009A0425DD150693840C01BB0FAF3
:102E600080F04009A04255D150693840C01BB0FAEB
:102E700080F04009A0424FF000005FD15069384017
:102E8000C01BB0FA80F04009A042DDD042E000BF94
:102E900090693840C01BB0FA80F04009A04239D197
:102EA000701C1FD0D6B300BFFDF7F6FBA0EB0800E7
:102EB000B04235D8286880693840C01BB0FA80F02D
:102EC0004009A042F0D00020BDE8F0819069384070
:102ED000C01BB0FA80F04009A0424FF0000018BFBC
:102EE000BDE8F08190693840C01BB0FA80F040091D
:102EF000A0420FD190693840C01BB0FA80F0400961
:102F0000A04207D190693840C01BB0FA80F0400958
:102F1000A042DBD00020BDE8F08100BFFDF7BCFB84
:102F200000202021286385F83D1085F83E00296C9B
:102F300041F02001296485F83C000120BDE8F081C2
:102F4000F0B581B0044600681D4643698FB203EABC
:102F50000701B94202D1002001B0F0BD4169164617
:102F6000013201F480610FD059BB9EB3FDF794FB91
:102F7000401BB04230D8206841693940B942EAD09C
:102F800041694905F2D51CE0D9B941693940B942D6
:102F9000E1D04169490514D441693940B942DAD0D8
:102FA000416949050DD441693940B942D3D04169DD
:102FB000490506D441693940B942CCD04169490537
:102FC000E3D5016841F4007101606FF480614161F3
:102FD000042002E0FDF760FB202000212022216375
:102FE00084F83D2084F83E10226C1043206484F85D
:102FF0003C10012001B0F0BD2DE9F04184B0044641
:1030000001250DF10F006426CDE900052046D021F1
:10301000752201230296FDF701FC9DF80F00682838
:1030200047D10DF10E072046D0216B2201238DF8E8
:103030000E50CDE900750296FDF7A8FD4FF000088F
:103040002046D021192201238DF80E80CDE900758C
:103050000296FDF79BFD2046D0211A2201238DF810
:103060000E50CDE900750296FDF790FD2046D02167
:103070001B2201238DF80E80CDE900750296FDF725
:1030800085FD2046D0211C2201238DF80E80CDE93C
:1030900000750296FDF77AFD0D208DF80E00204692
:1030A000D02124220123CDE900750296FDF76EFDA3
:1030B0000025284604B0BDE8F081000000000000B3
:1030C0002DE9F04F81B02DED088B88B00C4614210E
:1030D00003AA6427CDE90021D0213B2201230297D6
:1030E000FDF79CFBBDF80C10BDF80E20C8BA09BA5C
:1030F000090C2180D1BA12BABDF81030120C6280CE
:10310000DABA1BBA1B0CA380BDF812309FED9D1AD2
:10311000DEBA00EE106AB8EEC00A80EE010A01EED7
:10312000100A9FED972AB8EEC11A21EE02AA01EE0D
:10313000101AB8EEC11A21EE028A01EE102AB8EE7A
:10314000C11ABDF8147021EE029A9FED8F1AFBBAD6
:1031500030EE010A84ED120A00EE103A9FED8BBAB0
:10316000B8EEC00A80EE0B0A3FBABDF816503F0C0D
:10317000BDF81C00A78295FAB5F82DBABDF81870F5
:103180002D0C90FAB0FA00BABDF81E10E58297FA3D
:10319000B7F93FBABDF81A50000C3F0CA08508BA29
:1031A0002783EFBA2DBA000C2E0C608510EE100AA2
:1031B000268591FAB1FB84ED02AA84ED038A84EDA1
:1031C000049A03F0C7FF9FED680B55EC106B324675
:1031D0002B4603F0C5FC03F027FA00EE108AB8EE88
:1031E000C00A80EE0B0AE06110EE100A03F0B2FF95
:1031F00032462B4603F0B4FC03F016FA00EE109AA8
:10320000B8EEC00A80EE0B0A206210EE100A03F03E
:10321000A1FF32462B4603F0A3FC03F005FA00EEB3
:10322000107A9FED5B1A02EE10BA03EE10AAB8EE08
:10323000C00AB8EEC22AB8EEC33A80EE010A82EEA6
:10324000012A83EE011A60621AEE100A84ED0C0A5C
:1032500084ED0D2A84ED0E1A03F07CFF29EE090A95
:1032600028EE081A31EE000A054610EE100A0E4646
:1032700003F070FF41EC100B03F03AF853EC102B05
:103280002846314603F0BEFA41EC100B01F03CFF3A
:1032900051EC100B9FED360B53EC102B03F060FC40
:1032A00003F0C2F9E063E06803F054FF94ED040A10
:1032B00094ED021A20EE000A21EE011A31EE000A06
:1032C000054610EE100A0E4603F044FF41EC100BC9
:1032D00003F00EF853EC102B2846314603F092FA17
:1032E00041EC100B01F010FF51EC100B9FED220B85
:1032F00055EC106B32462B4603F032FC03F094F988
:1033000094ED020A94ED031A20EE000A21EE011A50
:1033100031EE000A206410EE100A03F01BFF41ECAE
:10332000100B02F0E5FF2069B0EE408AF0EE608AF3
:1033300003F010FF02460B4651EC180B03F062FA43
:1033400041EC100B01F0E0FE51EC100B32462B4625
:1033500003F006FC03F068F9606408B0BDEC088B6C
:1033600001B0BDE8F08F00BF11DD52A246DF913FF2
:10337000F8C1631ADCA54CC0F8C1631ADCA54C4047
:10338000000080380000AA43B81E12420000034328
:10339000004088442DE9F04184B00C464FF06408A9
:1033A00002270DF10E06EE21A02201230546CDE9EC
:1033B0000067CDF80880FDF731FABDF80E00EE2168
:1033C00000BA000CA0812846A2220123CDE90067A3
:1033D000CDF80880FDF722FABDF80E00EE2100BA04
:1033E000000C20802846A4220123CDE90067CDF8F7
:1033F0000880FDF713FABDF80E00EE2100BA000CAC
:1034000060802846A6220123CDE90067CDF8088018
:10341000FDF704FABDF80E00EE2100BA000CA08002
:103420002846A8220123CDE90067CDF80880FDF7E2
:10343000F5F9BDF80E00EE2100BA000CE080284638
:10344000AA220123CDE90067CDF80880FDF7E6F94F
:10345000BDF80E00EE2100BA000C20812846AC22F7
:103460000123CDE90067CDF80880FDF7D7F9BDF855
:103470000E00EE2100BA000C60812846AE22012326
:10348000CDE90067CDF80880FDF7C8F9BDF80E005A
:1034900000BA010C0120E18104B0BDE8F081000018
:1034A0002DE9F04F87B040F26818C2F20008D8F852
:1034B00008100446481C0229C8F80800C0F2D18050
:1034C00098F8000000285DD040F2A02503200DF1FF
:1034D0001501C2F200056426CDE900102846EE2150
:1034E0000022012302964FF0000B4FF00109FDF777
:1034F00095F99DF816109DF815009DF81720090202
:1035000041EA004040F2C8111044C2F20001486193
:1035100005A8CDE900092846EE21462201238DF8B1
:1035200014B00296FDF732FB60692189A388A0EBF5
:103530000120E1886688A1FB0012C90941EA4261C5
:10354000A3FB003588F800B0D20911EB0649678962
:1035500042F1000621881A0A42EA056247434FF405
:10356000FA6A2B0A12EBC13E43F10001B7F1FF3FAB
:103570000AEBE75A049137DD0025002200214FF0C5
:10358000000C47E040F2A02403200DF11901C2F223
:1035900000046425CDE900102046EE21002201231D
:1035A000029500260127FDF739F99DF81A109DF8BC
:1035B00019009DF81B20090241EA004040F2C811A1
:1035C0001044C2F20001086106A800902046EE21D6
:1035D000562201238DF8186002950197FDF7D6FA5F
:1035E00088F800703AE000BFA0FB0012CB0FAAF5EC
:1035F000FA61494301EB8101CF1701EBD17501EB72
:103600009771ABEB6505ABEBA10143EA420BEA17FF
:103610004FEAE17C15EB09052769724111EB0E01B8
:10362000A061AAEB0B00A1FB07E3206304984FEA1B
:10363000E77601FB063340EB0C00A16200FB07318B
:103640004FEA5E53E062481543EAC121491B9041AD
:10365000C90B41EA4040C4E9085260630020C8F841
:103660000800012007B0BDE8F08F00000000000056
:103670002DE9F04381B02DED108B90ED021A90ED05
:10368000030A90ED042A21EE013A20EE004A34EEBE
:10369000033A22EE024A34EE033AB1EEC33AB5EEF3
:1036A000403AF1EE10FA05D1BDEC108B01B0BDE847
:1036B000F08300BF81EE031A80EE030A90ED085AF2
:1036C00090ED096A92ED008A92ED019A90ED074A19
:1036D000B6EE007A92ED02AA25EE075A26EE076AA8
:1036E00092ED03BA24EE074AC2EE03AA29EE052A98
:1036F00028EE063A33EE022A2AEE043A32EE43FA74
:103700002AEE082A29EE0B3A33EE422A29EE447AB1
:103710006AEE050A32EE022A37EE607A6BEE060A8E
:1037200072EE418A2BEE0A1A28EE092A37EE60CA99
:1037300028EE047A6AEE060A32EE011A30EE877A33
:103740006BEE050A31EE011A37EE60DA26EE097AE1
:1037500068EE050A71EE409A29EE090A30EEC77A42
:103760006BEE040A10EE100A1446884630EE87EA23
:1037700003F0F0FC9FED620B02460B4651EC100B80
:1037800003F0FAFB2AEE0A0A064610EE100A0F466C
:1037900003F0E0FC02460B463046394603F0ECFBF2
:1037A00006461AEE900A0F4603F0D4FC05468946F9
:1037B0003046394632463B4602F068FF2A464B46C1
:1037C00003F0DAFB02F030FFB8EE000A2AEE001A2E
:1037D00039EE092A22EE293A21EE281A31EE031A8F
:1037E00038EE083A3BEE0B4A28EE000A23EE293A5F
:1037F00024EE285AB9EE006A24EE294A20EE280A5F
:1038000035EE033A05EE100A30EE040A2AEE064AB7
:1038100029EE067A24EE054A27EE057A34EE000AF0
:103820003AEE0A4A37EE033A24EE294A22EE282AD3
:1038300032EE042A23EE034A21EE015A35EE044A01
:1038400020EE005A35EE044A22EE025A35EE044AC2
:10385000B1EEC44A40F20000C2F2000081EE041A48
:1038600083EE043A80EE040A82EE042A90ED004AC8
:10387000404624EE011A24EE033A24EE000A24EE18
:10388000022A9FED214A3CEE411A3DEE433A3EEEBC
:10389000400A21EE041A23EE043A3FEE422A20EEBB
:1038A000040A38EE011A39EE033A22EE042A3AEEFF
:1038B000004A23EE030A21EE015A3BEE022A35EEBE
:1038C000000A24EE045A35EE000A22EE025A35EEC2
:1038D000000AB1EEC05A81EE050AC2EE051AC3EE27
:1038E000050A84EE051A84EC030AC4ED031ABDEC44
:1038F000108B01B0BDE8F04300F00ABE00BF00BF6E
:10390000000000000000E03F6F12033B00000000D9
:103910002DE9F04F81B02DED108B92B090ED021A91
:1039200090ED030A90ED042A21EE013A20EE004AC0
:1039300034EE033A22EE024A34EE033AB1EEC33AD1
:10394000B5EE403AF1EE10FA06D112B0BDEC108B94
:1039500001B0BDE8F08F00BF90ED0C4A90ED0D5A1C
:1039600090ED0E6A24EE047A65EE050A30EE877A51
:1039700066EE060A30EE877AB1EEC77AB5EE407A87
:10398000F1EE10FA10D140F24420C2F2000012B061
:10399000BDEC108B01B0BDE8F04FFFF769BE00BF72
:1039A000000000000000E03F84EE07DAC5EE07CA21
:1039B000C6EE079A92ED01AA92ED029A92ED038A61
:1039C00092ED00BA81EE031AC2EE03EA80EE030A1A
:1039D0002BEE09CA2AEE0D4A2CEE895A35EE044A1E
:1039E00029EE885A35EE044A2BEE0D5A2CEE886AE1
:1039F00035EE465A29EE896A36EE055A2DEE086AEA
:103A00002CEE8B7A37EE066A29EE8A7A36EE476A12
:103A10002DEE097A6CEE8A0A30EEC77A69EE8B0ACF
:103A200030EE877A6AEE040A6BEE051A71EEA00A90
:103A300069EE071A71EEA00A68EE061A70EEE10A46
:103A400067EE0A1A6BEE062A72EEE11A69EE042A94
:103A500072EEA11A68EE052A72EEA11A21EEA12AD1
:103A600020EEA03A33EE022AF1EEC2DA2AEE082A5C
:103A700072EE4CAA2AEE066A2BEE077A37EE066A39
:103A800029EE055A36EE455A28EE044A74EE05BA78
:103A9000CDED04DA8DED062A3AEEAA2A32EE41FA8D
:103AA00029EE081A2BEE0A2A32EE01EA3EEE0E1A31
:103AB00071EE408A90ED070A8DED0E0A90ED080A2E
:103AC0008DED0F0A90ED090A8DED100A2AEE0A0A13
:103AD00010EE100A1191059203F03CFB1FED500B04
:103AE00002460B4651EC100BCDE9001003F044FAEE
:103AF00029EE090A064610EE100A0C4603F02AFBCE
:103B000083468A46304621465A46534603F034FAE5
:103B100005461EEE900A0F4603F01CFB04460E46B7
:103B2000284639462A463B460395029702F0AEFDE9
:103B30002246334603F020FA02F076FD00EE100A2A
:103B40008DED0B0AB8EE000A29EE000A8DED070A8A
:103B500038EE080A8DED0A0A3BEE0B0A7DEEADFA4F
:103B60008DED080A39EE090AB9EE001A1FEE901A17
:103B70008DED0D0A2AEE010A8DED090A29EE010AE2
:103B800008467AEE0ADA8DED0C0A03F0E3FA814674
:103B90008846DDE900105A46534603F0EDF928EE59
:103BA000080A044610EE100A0D4603F0D3FA024646
:103BB0000B462046294603F0DFF97BEEABEA2AEEFE
:103BC000AE0A044610EE100A0D4603F0C3FA06468C
:103BD0000F464846414622462B4602F0C1FF324678
:103BE0003B4602F053FD04461DEE100A0D4603F05D
:103BF000B1FA02460B462046294603F0BDF902F011
:103C000013FD28EE0B0A2AEE091A31EE400A2EEEB9
:103C10002E1A2FEE800A31EE000A30EE6CDA9DED9E
:103C2000060A3CEE000A20EE2F0A10EE101A0CEEE7
:103C3000100A084603F08EFA04461EEE900A0D465E
:103C400003F088FADDE9023202F08AFF22462B46B1
:103C500002F01CFD044619EE900A0D4603F07AFAB4
:103C600002460B462046294603F086F902F0DCFCAA
:103C70009DED043AB9EE007AB8EE006A23EE070A29
:103C800023EE063A2AEE2E1A20EE082A23EE084AE0
:103C900032EE012A34EE011A23EE0B3A29EE2E4AB7
:103CA0002BEE875A33EE043A2BEE864A2AEE056A4B
:103CB0002FEE887A37EE066A29EE055A2FEE8B7AB8
:103CC00037EE055A9DED077A6DEEA80A27EE0F7ABA
:103CD00029EE044A37EE207A24EE0C4A34EE074AE5
:103CE00021EE0D1A31EE041A20EE090A2BEE2E4AAF
:103CF0002FEE897A00EE900ADDED085ADDED0A4AD2
:103D000030EE440A37EE044A27EE207A37EE011AE5
:103D100025EEA87A64EE8F1A31EE877ADDED0B3A44
:103D2000DDED091A24EE0D4A61EEA31A31EE877A11
:103D300068EE2E1A61EE8C2A32EE877A34EE074A4C
:103D400026EE206A36EE044A24EEA86A25EE8F7A23
:103D500036EE476A9DED0C7A20EE0C0A27EE237AA8
:103D600037EE066A30EE060A2FEE8A6A36EE217AC0
:103D700027EE0D7A37EE000A25EE205A35EE005A6E
:103D80009DED0D0A2DEE8F7A20EE280A37EE000AFF
:103D900022EE0C2A32EE000A23EE0D2A32EE000A41
:103DA00026EE202A32EE002A24EE040A21EE013A01
:103DB00033EE000A25EE053A33EE000A22EE023A0F
:103DC00033EE000AB1EEC06A40F26810DFED861AE9
:103DD000C2F2000040F20001C2F20001DDED102A43
:103DE000F6EE003A84EE060A81EE063A85EE061AF1
:103DF00082EE062A2AEE004A2BEE035A35EE044ADA
:103E000029EE015A35EE044A28EE025A35EE044AEC
:103E100023EE0A5A2BEE006A36EE455A29EE026A64
:103E200035EE465A28EE016A36EE055A2AEE026A47
:103E30002BEE017A37EE066A29EE037A36EE476AF0
:103E400028EE007A36EE476A21EE0A7A6BEE020A15
:103E500030EEC77A69EE000A30EE877A68EE030A20
:103E600037EE607AD0ED030A24EE214A34EE204A80
:103E7000D0ED040A25EE215A26EE216A27EE217A9A
:103E8000D0ED051A30EE855AD0ED060A31EE866A7D
:103E9000D1ED011A30EE877A24EE214A25EE215A1F
:103EA00026EE216A27EE217ADDED0E0ADDED0F1AEE
:103EB00070EEC50A71EEC61A72EEC72A60EEA30A4A
:103EC00061EEA31A62EEA32AFEEE003A64EE233AF4
:103ED00060EE8A4A6BEE235A75EEE44A69EE215A87
:103EE00074EEE54A68EE225A74EEE54A6AEE235A09
:103EF0006BEE206A76EEA55A69EE226A76EEA55A36
:103F000068EE216A75EEE65A62EE8A6A6BEE217AF5
:103F100077EEE66A69EE237A6AEE211A6BEE222AC0
:103F200077EEA66A68EE207A72EEA11A69EE200A90
:103F3000D1ED002A71EEE00A68EE231A71EEA00AB4
:103F400023EE223A20EE220ADFED281A77EEA66A47
:103F500021EE221A34EEC33A35EEC00A22EE222AAE
:103F600036EEC11A23EE213A20EE210A30EEC22AA3
:103F700021EE211A3BEE033A7AEE000A22EE212AC4
:103F800039EE011A20EEA00A63EE031A38EE022A77
:103F900031EE800A61EE011A31EE800A62EE021AF9
:103FA00031EE800AF1EEC01A80ED034A80ED045A2A
:103FB00080ED056A80ED067A0598014683EE210AB8
:103FC000C0EEA10A81EE211AC2EE211A80EC030A8A
:103FD0001198C1ED031A12B0BDEC108B01B0BDE811
:103FE000F04F00F095BA00BF6F12833B6F12033B96
:103FF000FEE70000FEE70000F0B581B02DED088B74
:1040000090ED042A90ED073A30EE601A31EE428AC4
:10401000B0EEC12A23EE000AB4EE402AF1EE10FA07
:1040200080ED031A80ED068A18DA90ED052A90EDEE
:10403000090A31EE029AB4EE409AF1EE10FA80EDE0
:10404000059AC4BF80ED050AB0EE409A90ED080ACB
:10405000B4EE409AF1EE10FA06DA01E09FED220A82
:10406000B0EE409A80ED050A90ED000A80ED041A4A
:1040700021EE000A90ED01AA90ED02BA10EE100AAE
:1040800003F068F82AEE090A064610EE100A0F46F9
:1040900003F060F89FED120B54EC105B2A462346A8
:1040A00002F05EFD32463B4602F0F0FA28EE0B0AC3
:1040B000064610EE100A0F4603F04CF82A46234637
:1040C00002F0A0FB02460B463046394602F0DEFA0B
:1040D00002F0AAFA00EE100ABDEC088B01B0F0BDA8
:1040E000FCA9F1D24D62603F000000007047000063
:1040F00070470000FCF76EBEB0B592B0002443F6E6
:1041000040000B94CDE90944CDE907440594CDE97D
:104110000344CDE901440094C4F202000168022581
:1041200041F080510160006800F0805000900098DC
:1041300047F200000094C4F20000016841F480419D
:104140000160006800F48040009000980120099010
:1041500010200A9008200E904820CDE90F05042079
:10416000119006A80695CDE90C54FCF7FBFF28B189
:10417000EFF3108072B600BFFEE700BF0F20CDE95D
:1041800001054FF48050CDE9040401A802210394F5
:10419000FCF7DAFE20B1EFF3108072B6FEE700BF45
:1041A00012B0B0BD4EF68850CEF20000016841F466
:1041B000700101607047000040F23C30C2F2000024
:1041C000FDF7B0BB10B540F6FF3E0368C4F2000E29
:1041D00040F2004C7045C4F2010C27DCB0F1804F76
:1041E00031D040F20042C4F2000290422BD040F69F
:1041F0000002C4F20002904225D041F6FF72C4F2E0
:104200000002904229DC70453CDCB0F1804F5FD069
:1042100040F20042C4F20002904259D040F600023F
:10422000C4F20002904253D056E000BF40F6004274
:10423000C4F20002904206D0604504D00022C4F2CD
:1042400001029042D9D14A6823F07003134341F62A
:10425000FF72C4F200029042D5DD43F6FF72C4F251
:104260000102904222DC42F20002C4F200029042BB
:104270002ED00022C4F20102904229D0604527D0FE
:104280002AE000BF40F60042C4F2000290421FD074
:1042900041F60002C4F20002904219D041F60042F9
:1042A000C4F20002904213D016E000BF44F20002B4
:1042B000C4F2010290420BD044F60002C4F20102A3
:1042C000904205D044F20042C4F20102904203D170
:1042D000CA6823F44073134323F080024B69D1F87A
:1042E00000E08C681A430260C46240F48062C0F847
:1042F00028E0624504BF096901630121416110BDE5
:10430000806B0021C185C184FDF72CBF81B090F87E
:104310003E10222921D183680246B3F5805F09D17E
:1043200052F8281F52F8183C002B63D003685B68D2
:104330000AE000BF52F8281F13B90369002BF5D01B
:1043400003685B6803F07F030B7011680131116033
:10435000C18D01390A04C18502D001B0704700BF88
:104360000168CA6822F02002CA60CA6822F480721A
:10437000CA604A6922F001024A61202180F83E1099
:10438000016B01293ED10021016300BF016851E8A2
:10439000031F026821F0100142E80313DBB101683A
:1043A00051E8031F026821F0100142E8031393B1A2
:1043B000016851E8031F026821F0100142E803136D
:1043C0004BB1016851E8031F026821F0100142E877
:1043D0000313002BDAD101680A68D20606D5002241
:1043E00000920A680092496800910099818D01B09D
:1043F000FDF7B6BE026852686FF35F2221F8022B08
:104400008162A5E701B0FEF7CFB9000010B5044600
:104410000068D4E902C22369016921F440511143C3
:104420000161626943EA0C01E3691143C2681943FF
:1044300049F20C639A431143C1604169A26921F4B6
:10444000407141F20043114340F48062C4F2010321
:104450009A42416102D1FCF73BFE01E0FCF724FEE9
:10446000E16963681922B1F5004FA0FB020123D175
:104470005A00DB0FFBF7F8FE48F21F51C5F2EB11B3
:10448000A0FB01235A094FF69C73C0F6FF7303F19A
:10449000805302FB0300322303EBC000A0FB0101A9
:1044A0004FF4F87000EA111000EB0210C1F3421152
:1044B00008442168886010BD9A009B0FFBF7D4FE6A
:1044C00048F21F51C5F2EB11A0FB01235A094FF628
:1044D0009C73C0F6FF7302FB0300322303EB001052
:1044E000A0FB0101F02000EA511000EB0210C1F323
:1044F000431108442168886010BD000040F200208C
:10450000C2F20000FDF730BEFEE700000000000030
:10451000F0B581B02DED0E8BB0EE419A30EEA0BA21
:1045200030EE00CA21EE8C1A2BEE092A32EE411A27
:1045300020EE8B2A2CEE00DA3DEE020ABFEE00EAF6
:10454000B0EE60AA70EE0E0AB0EE410A0446B0EE7C
:10455000618A00F045FF84ED020A29EE0C0A2BEE79
:10456000081A31EE000A00F037FDB1EE400A84ED82
:10457000010A39EE090A2AEE0C1A20EE080A30EE7A
:10458000410A38EE081A28EE011A3DEE011A71EEC2
:104590000E0A00F025FFD4E90170B0EE408A02F067
:1045A000D9FD9FED210B55EC106B32462B4602F0E6
:1045B000D7FA02F039F809EE100AA060384602F086
:1045C000C9FD32462B4602F0CBFA02F02DF80AEE76
:1045D000100A606018EE100A02F0BCFD32462B464D
:1045E00002F0BEFA02F020F840F29421C2F200017B
:1045F00091ED021A91ED012A206031EE091A84ED45
:10460000021A32EE0A1A91ED002A00EE100A32EE7A
:10461000000A84ED011A84ED000ABDEC0E8B01B096
:10462000F0BD00BF00BF00BF00C2631ADCA54CC0D4
:10463000F0B581B02DED108BB0EE40BAB0EE419ADE
:1046400021EE210A2BEE201A20EEA0CA2BEE0BDA67
:1046500031EE000A3DEE4C1A29EE49EA3EEE011A0F
:1046600021EEA1FAB0EE60AA30EE000A7FEE010A58
:104670000446B0EE618A00F0B3FE84ED000A28EE35
:104680000A0A2BEE091A31EE400A30EE000A10EE4B
:10469000100A02F05FFD41EC100B00F0EDFA51EC56
:1046A000100B01F0C1FF2AEE090A2BEE081A31EEB9
:1046B000000A3DEE0C1A3EEE011A30EE000A71EED1
:1046C0004F0A606000F08CFED4E90007B0EE408A2B
:1046D00002F040FD9FED200B55EC106B32462B464F
:1046E00002F03EFA01F0A0FF09EE100A2060384601
:1046F00002F030FD32462B4602F032FA01F094FF10
:104700000AEE100A606018EE100A02F023FD32462D
:104710002B4602F025FA01F087FF40F29421C2F205
:10472000000191ED001A91ED012AA06031EE091A05
:1047300084ED001A32EE0A1A91ED022A00EE100AF8
:1047400032EE000A84ED011A84ED020ABDEC108BF2
:1047500001B0F0BD00BF00BF00C2631ADCA54C4031
:104760009AB040F6004943F28028C4F20209C0F230
:104770000208FCF73DFBFFF7BFFC002743F63000C3
:10478000CDE907770C97C4F202000168002241F0DE
:104790008001016001684FF4704601F080010C91C6
:1047A0000C990C97016841F001010160016801F06A
:1047B00001010C910C990C97016841F01001016006
:1047C000016801F010010C910C990C97016841F0FF
:1047D00008010160016801F008010C910C990C9727
:1047E000016841F004010160016801F004010C91CD
:1047F0000C990C97016841F00201016000684FF4C8
:10480000704100F002000C900C984846FBF73EFF08
:1048100004AD0124A9F540602946CDE90447069777
:10482000FBF758FE48462946CDE90464CDE90677F2
:10483000FBF750FE40F2A020A9F5DC31C2F20000E7
:104840004FF4804308F57A3280E88600C0E90373AC
:10485000C0E90577C0E90777FBF724FF20B1EFF344
:10486000108072B6FEE700BF40F2F420A9F5863151
:10487000C2F2000044F6206380261997CDE917772D
:10488000CDE91477CDE90A77CDE90877CDE9067748
:10489000CDE90477482280E88600C0E90337C0E903
:1048A0000576FCF7B5FE28B1EFF3108072B600BFB5
:1048B000FEE700BF4FF48050169040F2F420C2F2A1
:1048C000000016A9FCF75EFF20B1EFF3108072B66E
:1048D000FEE700BF40F2F420C2F20000FDF718FA34
:1048E00020B1EFF3108072B6FEE700BF40F2F42073
:1048F000C2F2000014A9FCF72FFE28B1EFF31080DC
:1049000072B600BFFEE700BF60200C9040F2BB30E3
:104910000D900020CDE90E00CDE91000129040F27C
:10492000F420C2F200000CA90022FDF7DFF828B144
:10493000EFF3108072B600BFFEE700BF40F2F42034
:10494000C2F200000CA90422FDF7D0F820B1EFF369
:10495000108072B6FEE700BF40F2F420C2F2000001
:104960000CA90822FDF7C2F820B1EFF3108072B64F
:10497000FEE700BF40F2F420C2F200000CA90C22B6
:10498000FDF7B4F820B1EFF3108072B6FEE700BF78
:104990004FF40050099040F2F4200027C2F20000CA
:1049A00004A90897CDE90677CDE904770B97FCF7C2
:1049B000ADFD28B1EFF3108072B600BFFEE700BF77
:1049C00040F2F425C2F200052846FDF763F840F2F4
:1049D0003C30C2F200004FF080410797CDE90577E7
:1049E000CDE90C77C0E90017C0E90278076187615B
:1049F000FCF70EFE20B1EFF3108072B6FEE700BFA9
:104A00004FF48050049040F23C3004AEC2F20000FB
:104A10003146FCF7B7FE18B1EFF3108072B6FEE72F
:104A200040F23C30C2F200000CA9FCF795FD18B131
:104A3000EFF3108072B6FEE740F2C810A9F5784196
:104A4000C2F2000040F8381F4FF4E13100220C237D
:104A5000C0E90112C0E90322C0E90532C261FDF7D5
:104A600035FE18B1EFF3108072B6FEE740F2A024D5
:104A7000C2F200042046FEF7BFFA0128FAD040F245
:104A8000A024C2F200044FF000084FF0640901278F
:104A90002046D0216A2201238DF81080CDE90067DD
:104AA000CDF80890FCF772F802208DF8100020462F
:104AB000D02137220123CDE90067CDF80890FCF71B
:104AC00065F818208DF8100020463C2100220123B3
:104AD000CDE90067CDF80890FCF758F84FF0200AB0
:104AE00020463C21012201238DF810A0CDE900676A
:104AF000CDF80890FCF74AF820463C210222012319
:104B00008DF81080CDE90067CDF80890FCF73EF8ED
:104B10002046D021372201238DF81080CDE900678F
:104B2000CDF80890FCF732F82046D0216A22012304
:104B30008DF810A0CDE90067CDF80890FCF726F8B5
:104B40009E208DF810002046D02125220123CDE99A
:104B50000067CDF80890FCF719F803208DF81000D5
:104B60002046D02126220123CDE90067CDF8089008
:104B7000FCF70CF886208DF810002046D021272263
:104B80000123CDE90067CDF80890FBF7FFFF204631
:104B9000D021672201238DF81070CDE90067CDF890
:104BA0000890FBF7F3FF2046EE211E2201238DF82B
:104BB0001080CDE90067CDF80890FBF7E7FF0420EF
:104BC000FBF774FC40F2C811C2F200012046FEF768
:104BD000E1FB2846FCF780FD28460021FDF7CAF8D6
:104BE00028684FF44874446328460421FDF7C2F84E
:104BF0002868082184632846FDF7BCF828680C2142
:104C0000C4632846FDF7B6F8286804644FF4FA60D8
:104C1000FBF74CFC40F23C30C2F20000FCF75CFDBC
:104C2000FEE703B401984100009850EAC12018BF84
:104C300004204A0D18BF40F0010040F2FF72B2EBB1
:104C4000515F08BF40F00200012808BF052002B0F4
:104C500070474100080218BF04200A0E18BF40F038
:104C600001004FF07F4232EA010108BF40F002002C
:104C7000012808BF0520704770B5C1482DED020B13
:104C80002DED0E8B82B0119D25F000449FEDBEDB13
:104C90009FEDBFEB84423EDBA4F140511098A1F19F
:104CA0007F6108430FD0BC48844202DC28D11098B1
:104CB00030B39DED100B02B0BDEC0E8B02B0BDE821
:104CC000704001F0E9BB9DED100B53EC1D2B51EC36
:104CD000100B01F045FF9DED100B41EC180B53EC50
:104CE0001E2B51EC100B01F03BFF53EC182B01F085
:104CF000CDFC41EC100B02B0BDEC0E8B02B070BDD0
:104D00000120FBF731FB02B0BDEC0E8B02B0BDE819
:104D1000704001F0D5BBA1489FEDA18B844256DACB
:104D20009DED100BB4F1795F0ADA51EC100BFFF72F
:104D300078FF042808BF01F0E3FB9DED100BDAE7D4
:104D400053EC102B51EC100B01F00AFF41EC190B46
:104D500095480621B0EE490AF0EE690A784401F060
:104D600004FB53EC192B51EC100B01F0F9FE41EC54
:104D70001A0B8E48B0EE490AF0EE690A0421784415
:104D800001F0F3FA53EC192B51EC100B01F0E8FE93
:104D900053EC182B01F07AFC41EC100B51EC1A0B80
:104DA00053EC102B01F02EFDCDE900019DED000B21
:104DB00053EC102B9DED100B51EC100B01F0D0FEBD
:104DC0009DED101B53EC112B01F060FCD2E09DED2A
:104DD000100B51EC100B01F0B9FB53EC182B01F048
:104DE000F3FF9FED730BCDE9000153EC102B9DED0C
:104DF000000B51EC100B01F0B3FE41EC190B6E48A7
:104E00000621B0EE490AF0EE690A784401F0ADFAE5
:104E100053EC192B51EC100B01F0A2FE41EC1B0BD3
:104E20006648B0EE490AF0EE690A0421784401F0C0
:104E30009CFA53EC192B51EC100B01F091FE53EC42
:104E4000182B01F023FC41EC1C0B51EC190B01F069
:104E500089FB41EC180B5A489FED5BABA04222DC6A
:104E600053EC1C2B51EC1B0B01F0CCFCCDE90001E9
:104E70009DED000B51EC180B53EC102B01F070FE64
:104E800053EC182B01F002FC53EC1A2B01F068FED6
:104E900053EC1D2B02F070F853EC1E2B01F094FF25
:104EA00041EC100B5FE08DED008B002000909DED3C
:104EB000000B51EC180B53EC102B01F0E7FB9DEDB0
:104EC000000B41EC1E0B53EC102B51EC100B01F0BE
:104ED00047FE53EC192B01F077FF53EC1E2B01F02A
:104EE00091FC41EC190B53EC1C2B51EC1B0B01F00A
:104EF00089FC41EC1B0B53EC1A2B51EC190B01F004
:104F00002FFE53EC1D2B01F05FFF41EC190B53EC0E
:104F10001A2B51EC180B01F023FE53EC1B2B01F064
:104F20001FFE53EC192B02F027F89DED000B41EC0E
:104F3000180B53EC1A2B51EC100B01F011FE9FEDE6
:104F4000249B53EC192B01F03FFF41EC100B51EC6B
:104F5000180B53EC102B02F00FF853EC192B01F047
:104F600033FF41EC100B002D3FF7C5AE51EC100B99
:104F700001F04EFB41EC100BBDE60000000000000C
:104F80000000F03F00000000075C143326A6913CAF
:104F9000182D4454FB21F93F0000F07F0000E03F52
:104FA000000000000000F03FF0250000FE2500009A
:104FB000000000000000E03F4225000050250000F6
:104FC0003333EF3F0000000000000000000000400D
:104FD000182D4454FB21E93F10B54FF00E402DED44
:104FE000028BB0EE408A18EE104A00EB4400B0F19C
:104FF000506F4AD84FF0FC40B0EB440F22D2B0EED5
:10500000C80AF7EE000A30EEC00AF6EE000A60EEBB
:10501000208A18EE900A01F0DCFA01EE100A14F072
:10502000004F1DBFDFED2D0A9FED2D0AB1EE411A95
:10503000DFED2C0A08BF9FED2C0AF8EE001A21EED6
:10504000218A05E0DFED290A68EE088AB0EE600AE1
:105050009FED271ADFED271A30EE080A48EE811A75
:105060009FED251A08EEA11ADFED241A48EE811AE9
:105070009FED231A08EEA11A68EE281ABDEC028BE8
:1050800001EE810A30EE200A10BD4FF0E440B0EB93
:10509000440F0CD918EE100AFFF7DBFD042808BFF7
:1050A00001F04CFAB0EE480ABDEC028B10BD4FF097
:1050B0007F40B0EB440F07D2B0EE480ABDEC028B44
:1050C000BDE8104001F02CBA0120FBF74DF9BDEC12
:1050D000028BBDE8104001F029BA00000000C9BFF2
:1050E00022AAFDB90000C93F22AAFD390000000034
:1050F00024FE1C3DC78AD83C1E67383D1B93993D52
:10510000AFAA2A3E0000000070B59B482DED020BAF
:105110002DED068B079D25F00044A04218DC974832
:10512000844202DC0AD1069840B19DED060BBDEC2D
:10513000068B02B0BDE8704001F0AEB9002DCCBFC7
:105140009FED8F0B9FED900BBDEC068B02B070BDF9
:105150008F48A04215DD8F48A042D8BF4FF0FF34E2
:1051600058DD9DED060B51EC100BFFF75AFD04289E
:1051700008BF01F0C5F99DED060BBDEC068B02B032
:1051800070BD9DED060B51EC100B01F0DFF9CDE980
:10519000060181489FED828BA0423CDD8248A042FF
:1051A0001FDD00249FED82AB9DED060B53EC1A2B07
:1051B00051EC100B01F06AFA9DED060B41EC190B56
:1051C00053EC1A2B51EC100B01F0CAFC53EC182BCA
:1051D00001F0D2FE53EC192B01F014FBCDE90601CE
:1051E00049E09DED060B012453EC182B51EC100BFC
:1051F00001F04CFA9DED060B41EC190B53EC182B0A
:1052000051EC100B01F0B8FE53EC192B01F0FAFA37
:10521000CDE906012FE06848A0421FDD02249FED82
:10522000689B9DED060B53EC192B51EC100B01F014
:1052300097FC53EC182B01F029FA9DED060B41EC7D
:10524000180B53EC192B51EC100B01F095FE53EC9D
:10525000182B01F0D7FACDE906010CE09DED060B05
:10526000032453EC102B9FED580B51EC100B01F065
:10527000C9FACDE906019DED060B53EC102B51EC5C
:10528000100B01F06DFC41EC180B53EC182B01F0E6
:1052900067FC41EC190B4E480621B0EE490AF0EECE
:1052A000690A784401F061F853EC182B51EC100BAB
:1052B00001F056FC41EC180B4648B0EE490AF0EEFE
:1052C000690A0521784401F050F853EC192B51EC90
:1052D000100B01F045FC41EC100B51EC180B53EC9A
:1052E000102B002C0EDA01F0D1F99DED061B53ECCA
:1052F000112B01F035FC9DED061B53EC112B01F039
:1053000063FD35E001F0C2F99DED061B53EC112B56
:1053100001F026FC41EC100B2F48784400EBC40050
:1053200090ED001B51EC100B53EC112B01F024FEFF
:105330009DED061B53EC112B01F01EFE41EC100BF2
:105340002648784400EBC40090ED001B51EC100B94
:1053500053EC112B01F038FD41EC100B002DA2BFD6
:10536000BDEC068B02B070BD51EC100B01F050F992
:1053700041EC100B01E70000000010440000F07F3A
:10538000182D4454FB21F93F182D4454FB21F9BF3B
:105390000000DC3F0000203E0000F33F0000000062
:1053A000000000000000F03F0000E63F00000000A9
:1053B00000000000000000400080034000000000EA
:1053C000000000000000F83F000000000000F0BFF7
:1053D0006221000018210000A22000005A200000D5
:1053E00070B54FF068422DED048BF0EE408A18EE58
:1053F000900AB0EE608A18EE101A02EB4003B3F187
:10540000654F3CBF02EB4102B2F1654F7DD200BF58
:10541000C0F3C753C1F3C7529A1A1B2A09DD10F013
:10542000004F14BF9FED830A9FED830ABDEC048BF0
:1054300070BD12F11A0F36DA11F0004F09D010F0DA
:10544000004F0CBF9FED7D0A9FED7D0ABDEC048BE4
:1054500070BD88EE889A19EE100AFFF7FAFB04284F
:1054600008BF01F06BF818EE900AFFF7F2FB054653
:1054700018EE100AFFF7EDFB044619EE100AFFF7CD
:10548000E8FB042D18BF052D08D1042C18BF052CEE
:1054900004D1002804BF0220FAF766FFB0EE490AE3
:1054A000BDEC048B70BD4200B2EB410F3AD910F055
:1054B000004F19BFDFED630A9FED630ADFED630A5A
:1054C0009FED630AB0EE481A0A46B1EE688A80F092
:1054D0000041F0EE418A10460A1A5200B2F1807F74
:1054E00034D2484010F0004FDFED5A1A9FED5A2A8F
:1054F0001DBFBEEE001A70EEE10A30EE420AB6EEB3
:10550000001A08BF70EEA10A00E040E008BF30EECC
:10551000020AB0EE682A01EE482A08EE818AC2EE3D
:10552000081A15E011F0004F04BF9FED4C0AF0EE91
:10553000400AD1D010F0004F19BFDFED490A9FEDAE
:10554000490ADFED490A9FED490AC5E7C8EE881A06
:1055500021EEA11A9FED462ADFED462A41EE022AEE
:105560009FED452A01EE222ADFED442A41EE022A70
:105570009FED432ABDEC048B01EE222A21EE811A15
:1055800001EE020A30EE210A30EE200A70BD4FF023
:105590007F42B2EB400F28BFB2EB410F09D2F0EED1
:1055A000480AB0EE680ABDEC048BBDE8704000F01C
:1055B000BABF40EA01035B0008BF41F0FF410BD0D6
:1055C000B2EB400F08BFB2EB410F08D120F0804092
:1055D00008EE900A21F0804108EE101A18E7B2EBAD
:1055E000400F12BF5FEA410340F0FF4001F000416D
:1055F0003FF40EAFB2EB410F12BF5FEA400200F082
:10560000004041F0FF413FF403AF4A0092EA4003FB
:105610003FF5FEAE002AACBF9FED1A0A9FED1A0AB5
:1056200068EE808A28EE008A18EE900A18EE101AAA
:10563000EEE60000DB0FC9BFDB0FC93FDB0F4940BF
:10564000DB0F49C00000C9BF22AAFDB90000C93F55
:1056500022AAFD390060ED3EC30ACE3700000000EB
:10566000000049C022AA7DBA0000494022AA7D3A22
:105670002DAD65BD8FB8D53D0FB511BE61C84C3E8F
:10568000A8AAAABE0000804F0000802F00000000E2
:105690002DE9F04D2DED040B2DED0E8B94B0DDE9D1
:1056A0002350259CDDF888A025F0004624F0004812
:1056B000BAF1000F14BF0121002101EB4502FC49A2
:1056C00053184A1093422AD3002814BF0123002301
:1056D00003EB44030B44F7498B4220D358EA000103
:1056E0009FEDF5AB76D0DFF8D8B35D4503D1BAF1C5
:1056F000000F05D188E0BAF1000F08BF002100D0EB
:10570000012101EB450111F5001F08D8002814BF45
:105710000121002101EB440111F5001F0BD99DED82
:10572000241B9DED220B14B0BDEC0E8B04B0BDE824
:10573000F04D00F0BBBE0027002DBCBFE1498845FD
:1057400021DAE1498845A8BF02271CDAC3451ADCE3
:10575000DE4901EB2851142908DDC1F1340220FA99
:1057600002F101FA02F282420DD108E058B9C1F10A
:10577000140228FA02F101FA02F2424503D101F0C3
:105780000101C1F1020756EA0A0124D1002C22DAF4
:10579000002D18BF022F01D0012F0AD00220FAF7E6
:1057A000E3FD14B0BDEC0E8B04B0BDE8F04D00F08D
:1057B0005BBE0220FAF7D8FD00F056FE51EC100B4C
:1057C00000F026FF41EC100B14B0BDEC0E8B04B0C2
:1057D000BDE8F08D18E09FEDBE9B9FEDBF8B0028CC
:1057E00071D1B848804522D105F1804010F5801074
:1057F00008BFBAF1000F07D0B3450ADC002CA8BFE0
:105800009DED240BE0DA0DE0B0EE4A0AF0EE6A0AF4
:10581000DAE7002C06DA9DED240B51EC100B00F0BA
:10582000F7FE6FE0AE48784490ED000BCCE7D8452A
:105830004DD1002C48DA2EB186423AD1BAF1000F90
:1058400042D126E0BAF1000F13D00220FAF78CFD06
:1058500000F046FE8DED020B9DED220B8DED000B51
:1058600010EE900A039961F31E0003909DED020B68
:10587000AAE78DED029B9DED220B19EE901A10EE1A
:10588000900A8DED000B61F31E0003909DED020B5D
:105890009AE78DED028B9DED220B18EE901A10EE1B
:1058A000900A8DED000B61F31E0003909DED020B3D
:1058B0008AE709DA9DED220B51EC1A0B53EC102B01
:1058C00000F0A0FF1EE020E09DED220B7CE7864269
:1058D0001BDAB4F1804F0DD0A4F10050B0F1FF50AD
:1058E00013D1002D11DB9DED220B51EC100B00F0BC
:1058F00039FE07E09DED220B53EC102B51EC100B01
:1059000000F0CABC41EC100B5EE79DED220B51ECA0
:10591000100B00F01BFEBAF1000FCDE90A0142D1D5
:105920009FED710B46B3A6F1E040B0F17F600CD063
:105930005E4538D1002D00DAA7B3022F0CBF01203D
:105940004FF0FF3001F0B8F8DCE7002D01DD002C4E
:105950000DDA002D01DD002C1FDB002D16DA002CE6
:1059600014DB012F08BF9FED620B3FF42DAFB0EEAB
:10597000490AF0EE690A27E7022F18BF002D0CD064
:10598000012F0AD1002DFFF61FAF06E0002DB8BF92
:10599000002C08DA012F3FF417AFB0EE480AF0EE02
:1059A000680A11E71BE0012000EBE57050EA0701EF
:1059B00015D0791EB0EE4A8AF0EE6A8A084308BF15
:1059C0009FED4D8B4E480025804570DD4D494E487A
:1059D000884514DDB0420DDB002C19DB2FE00120DF
:1059E000FAF7C2FC14B0BDEC0E8B04B0BDE8F04D6C
:1059F00000F066BDB34502DC002C09DC1FE08642E6
:105A000002DA002C1BDA03E05E452BDD002C16DDEC
:105A10000220FAF7A9FC00F063FD8DED020B53ECB8
:105A2000192B51EC180B01F09BF8CDE900010399FB
:105A3000019861F31E0003909DED020BC4E6022065
:105A4000FAF792FC00F05CFD10EE901A18EE900A46
:105A50008DED020B8DED008B61F31E0003909DED2B
:105A6000020BB1E69DED0A0B53EC1A2B51EC100B17
:105A700001F082FA9FED260BCDE90A0153EC102BC1
:105A80009DED0A0B51EC100B01F06AF89FED221B03
:105A900053EC112B01F098F99DED0A1B53EC112BDF
:105AA00001F05EF89FED1E1B53EC112B3CE08CE0E7
:105AB000FFFF1F00FFFF0F00000000000000F03F8D
:105AC0000000F03F0000F07F0000404301FCFFFFBA
:105AD000000000000000F07F000000000000000057
