:020000040800F2
:100000000008002039020008311E0008191D0008F0
:100010002D1E000841080008352F000800000000D0
:100020000000000000000000000000007D2D00081E
:100030004508000800000000952C0008812D0008EC
:10004000530200085302000853020008530200083C
:10005000530200085302000853020008530200082C
:10006000530200085302000853020008530200081C
:10007000530200085302000853020008530200080C
:1000800053020008530200085302000853020008FC
:1000900053020008530200085302000853020008EC
:1000A00053020008530200085302000853020008DC
:1000B00053020008530200085302000853020008CC
:1000C00053020008530200085302000853020008BC
:1000D00053020008530200085302000853020008AC
:1000E000530200085302000853020008530200089C
:1000F000530200085302000853020008530200088C
:10010000530200085302000853020008530200087B
:10011000530200085302000853020008530200086B
:10012000530200085302000853020008530200085B
:10013000530200085302000853020008530200084B
:10014000530200085302000853020008530200083B
:10015000530200085302000853020008530200082B
:10016000530200085302000853020008530200081B
:100170005302000853020008530200080000000068
:10018000530200085302000800F002F800F044F89F
:100190000AA090E8000C82448344AAF10107DA45E2
:1001A00001D100F039F8AFF2090EBAE80F0013F0F0
:1001B000010F18BFFB1A43F001031847E03E00008F
:1001C000003F0000103A24BF78C878C1FAD852071F
:1001D00024BF30C830C144BF04680C6070470000C1
:1001E0000023002400250026103A28BF78C1FBD840
:1001F000520728BF30C148BF0B607047642900F028
:10020000EF80782900F02881002070471FB503F0A7
:100210003EFD1FBD10B510BD00F0D7FA1146FFF727
:10022000F5FF02F089FE00F0F5FA03B4FFF7F2FFE4
:1002300003BC00F0FDFA0000094880470948004768
:10024000FEE7FEE7FEE7FEE7FEE7FEE7FEE7FEE786
:10025000FEE7FEE704480549054A064B70470000E3
:10026000312E00088901000800020020000800204B
:10027000000400200004002053EA020C00F0698012
:100280002DE9F04B4FF00006002B1FBFB3FA83F5AA
:1002900003FA05F424FA05F65E4012BF1643B2FADB
:1002A00082F502FA05F4C5F120051EBF22FA05FC0D
:1002B00044EA0C04203556EA044C4FEA144418BFB3
:1002C000641C4FF000084FF00009904271EB030CE2
:1002D00039D3002919BFB1FA81F701FA07F6B0FA4C
:1002E00080F700FA07F6C7F120071EBF20FA07FCC7
:1002F00046EA0C062037B6FBF4FCA7EB0507103FD7
:1003000007F01F0BCBF120062CFA06F60CFA0BFBBC
:1003100044BFB3460026202FA4BF5E464FF0000B1B
:100320005BEA060C08BF4FF0010B19EB0B0948EB19
:100330000608ABFB027C06FB02CC0BFB03CCC01B0C
:1003400071EB0C01C1E70B46024641464846BDE849
:10035000F08B13B5084318BF4FF0FF300146AFF3E1
:100360000080BDE81C4070470FB41CB5074B06AABF
:100370007B4469460090059800F00FFA002069461A
:1003800000F01EFA1CBC5DF814FB00004D040000D8
:1003900070B5044685690068C10601D5302600E0C5
:1003A0002026C00707D070BDD4E901213046904710
:1003B000206A401C20626D1EF6D570BD70B50446E3
:1003C00085690078C00707D170BDD4E901212020DC
:1003D0009047206A401C20626D1EF6D570BD00005B
:1003E0002DE9F0410646002410687529314616A50E
:1003F00010D0AFF30080002802DA404213A507E0D6
:1004000031688A0701D512A502E0490704D511A574
:10041000012401E0AFF3008000210A2206F1240745
:1004200009E0B0FBF2FCB0FBF2F302FB1C00303041
:1004300078541846491C0028F3D123462A463046F2
:10044000BDE8F04100F04BB9000000002D000000B5
:100450002B0000002000000070B504460D46214628
:100460001068AFF300802188090502D50F4A7A444D
:1004700002E00E4A7A440E32002104F1240305E022
:1004800000F00F060009965D5E54491C0028F7D164
:1004900020780023000704D5702D02D009B1022373
:1004A00011322046BDE8704000F019B9363800001E
:1004B0002DE9F05F894604464FF0000ADFF824B1C9
:1004C000FB44C0F820A02046E168884700287DD082
:1004D000252806D0D4E901219047206A401C2062DB
:1004E000F1E700255F462046E16888472028064658
:1004F00007DB312E05D2B81910F8200C08B10543DE
:10050000F1E7A80701D525F00405C4F81CA00027D1
:10051000C4F818A02A2E09D0304603F0B1FB38B336
:1005200004EB8708303EC8F8186019E059F8041B3E
:10053000204604EB87029161E1688847012F064657
:1005400018D1E069002820DA25F020051DE0D8F850
:10055000180000EB800006EB40003038C8F81800A7
:100560002046E1688847064603F08AFB0028EED162
:10057000012F0AD02E2E08D12046E16888477F1C23
:100580000646022F45F02005C4DBA069002803DAE7
:10059000404245F00105A061E80701D025F01005B3
:1005A000A6B1A6F14100192802D8203645F400650D
:1005B0004A463146204625604D46FFF71FFE60B192
:1005C000012807D0ED1D25F0070000E007E000F14D
:1005D000080978E705F1040975E730467AE7206AEB
:1005E000BDE8F09F0C38000010B5431C02E010F885
:1005F000011B71B18107FAD14FF0013202C88C1A88
:100600008C4314EAC211F9D0C01A0A0603D0C01EE6
:1006100010BDC01A10BD0A0401D0801E10BD090211
:10062000FCD0401E10BD10B5203AC0F00B80B1E8E0
:100630001850A0E81850B1E81850A0E81850203A17
:10064000BFF4F5AF5FEA027C24BFB1E81850A0E820
:10065000185044BF18C918C0BDE810405FEA827C3A
:1006600024BF51F8043B40F8043B08BF7047D20751
:1006700028BF31F8023B48BF11F8012B28BF20F8F2
:10068000023B48BF00F8012B70474FF0000200B555
:10069000134694469646203922BFA0E80C50A0E8A5
:1006A0000C50B1F12001BFF4F7AF090728BFA0E853
:1006B0000C5048BF0CC05DF804EB890028BF40F81F
:1006C000042B08BF704748BF20F8022B11F0804F61
:1006D00018BF00F8012B70477047704770472DE92D
:1006E000F0470D4699469246044600F124080168F9
:1006F000880604D5E06921F01001216000E00120A6
:10070000A84201DD471B00E00027A1697A1902EB2E
:100710000900081AA0612078C00602D42046FFF71D
:1007200037FE002608E0D4E901211AF806009047B8
:10073000206A401C761C20624E45F4DB2078C006FF
:100740000AD52046FFF724FE06E0D4E90121302037
:100750009047206A401C2062381EA7F10107F4DC94
:1007600007E0D4E9012118F805009047206A401CF1
:100770002062281EA5F10105F3DC2046FFF71EFECE
:100780002078000602D50220BDE8F0870120FBE7B3
:1007900001694A1C02610878704700B58FB0CDE945
:1007A00001310021059105497944CDE90310114635
:1007B0006846FFF77DFE0FB000BD0000E5FFFFFFBC
:1007C0000A6802F8010B0A607047754600F02CF8C1
:1007D000AE4605006946534620F00700854618B02E
:1007E00020B5FFF737FDBDE820404FF000064FF081
:1007F00000074FF000084FF0000BAC46ACE8C00912
:10080000ACE8C009ACE8C009ACE8C00921F00701B8
:100810008D46704710B50446AFF300802046BDE812
:100820001040FFF702BD000000487047180000208C
:1008300001491820ABBEFEE7260002007047000009
:10084000FEE7000070470000EFF3108072B600BFB3
:10085000FEE70000B0B5044600F0EAF8054640F2B5
:100860000000C2F200000078611C18BF044400BF01
:1008700000F0DEF8401BA042FAD3B0BD2DE9F04FE6
:1008800082B000F13E4241F6004502F1FF77C4F22A
:100890000205082243F6004E4FEAB726A84208BFD9
:1008A0000722C4F2010E072E38BF4FEAB7220125F6
:1008B000002600274FF00008009208E008F1010828
:1008C0000437B8F1100F06F1020600F0A7800C689B
:1008D00005FA08F914EA090FF0D0D1F804B00322A0
:1008E0000BF0030CACF10104B240012C6FEA020AD8
:1008F00010D88268CC6802EA0A02B44022438260BF
:100900004268CBF3001422EA090204FA08F42243F5
:10091000426005E0BCF1030F02D14FF0030C20E070
:10092000C2688C6802EA0A02B4402243BCF1020F9A
:10093000C26016D16FF0030202EA58020244D2F8F4
:1009400020C007F01C050F230C69AB402CEA030301
:1009500004FA05F52B431362D1F804B001250BF01E
:10096000030C02680CFA06F302EA0A021A431BF4AB
:10097000403F0260A2D0002243F644030192C4F239
:1009800002031A684FF6084C42F480421A601A6853
:10099000CFF6FF7C02F480420192019A28F0030214
:1009A000724452F80C3007F00C050F24AC40A343FE
:1009B000009C04FA05F52B4342F80C30DEF80820C1
:1009C0004B6842EA090543F60C4CDC0258BF22EAA8
:1009D0000905CEF80850C4F2010CDCF800209C0296
:1009E00042EA090558BF22EA0905CCF80050DEF8B2
:1009F00004209C0342EA090558BF22EA0905CEF803
:100A00000450DEF80020DB0342EA090558BF22EA61
:100A10000905CEF80050012550E700BF02B0BDE83F
:100A2000F08F0000002A08BF0904816170470000B0
:100A300040F2FC10C2F200000068704740F2000073
:100A400040F2FC11C2F20000C2F2000100780A6814
:100A5000104408607047000080B543F60040C4F2BF
:100A60000200016841F400710160016841F4806195
:100A70000160016841F480710160032000F074F8A6
:100A80000F2000F005F800F027F8002080BD0000DE
:100A900070B540F20006C2F2000640F21001327852
:100AA000C2F200014FF47A730968B3FBF2F2044614
:100AB000B1FBF2F1084600F06FFF0F2C4FF001057B
:100AC00008D838B94FF0FF3021460022002500F049
:100AD0001FF87460284670BD82B0002043F64001C4
:100AE0000190C4F202014A6842F480424A604A68B6
:100AF00002F480420192019A0090086840F0805010
:100B00000860086800F080500090009802B07047BC
:100B100010B54EF60C5CCEF2000CDCF80030C3F3DE
:100B2000022E8EF00704042C28BF0424BEF1030318
:100B30004FF0FF3E0EFA04F438BF0023A143994062
:100B40000EFA03F39A43114300F00F0200F16043E1
:100B50000901043A03F564436244002848BF02F1E6
:100B60000C03197010BD00004EF60C51CEF20001BE
:100B70000A684FF6FF031A4060F30A2242F08060D1
:100B800040F0FD70086070472DE9F041002800F04A
:100B90008B8043F60808C4F202080446D8F8F8032C
:100BA0000D4600F00700884207D288F8F853D8F8BD
:100BB000F80300F00700A84276D12068810717D516
:100BC000410705D5D8F8001041F4E051C8F80010ED
:100BD000010705D5D8F8001041F46041C8F80010AD
:100BE000D8F80010A26821F0F0011143C8F80010F5
:100BF000C0073FD1D8F8F80300F00700A84207D992
:100C000088F8F853D8F8F80300F00700A8424BD151
:100C10002068410707D5D8F80010E26821F4E051B8
:100C20001143C8F80010000708D5D8F80000216962
:100C300020F4604040EAC100C8F8000000F07CF8F1
:100C4000D8F8001043F6E142C1F30311C0F60002E8
:100C5000515C40F2100220FA01F140F20400C2F2AD
:100C600000000068C2F200021160FFF711FF0020CF
:100C7000BDE8F0816068811E022907D258F8081C7F
:100C800089015CBF0120BDE8F08111E0012807D196
:100C900058F8081C89035CBF0120BDE8F08107E01B
:100CA00058F8081C890703D40120BDE8F08100BF73
:100CB000D8F8001021F003010843C8F80000FFF73E
:100CC000B7FE064641F28837D8F80000616800F0A8
:100CD0000C00B0EB810F8DD0FFF7AAFE801BB8424D
:100CE000F2D90320BDE8F08140F2100043F608017C
:100CF000C2F20000C4F202010068096843F6F14242
:100D0000C1F38221C0F60002515CC8407047000068
:100D100040F2100043F60801C2F20000C4F20201E2
:100D20000068096843F6F142C1F34231C0F600029F
:100D3000515CC8407047000010B543F60404C4F28B
:100D40000204606800F00C0008280BD0042819BFCA
:100D500042F20040C0F2F40047F64000C0F27D10BD
:100D600010BD00BF206821682368490247F6400192
:100D7000C0F27D1100F03F02C3F388105CBF42F265
:100D80000041C0F2F401A1FB00010023FFF774FA57
:100D900021680222C1F3014102EB4101B0FBF1F0F5
:100DA00010BD00002DE9F04182B0002868D0044653
:100DB000007843F60006C007C4F202060BD0B06804
:100DC00000F00C00042840F09F803068800302D5BA
:100DD0006068002854D0207880071AD5B06810F0D9
:100DE0000C0F09D0B06800F00C00082840F0A68075
:100DF0007068400200F1A2803068800702D5E06888
:100E000001283DD13068216920F0F80040EAC10096
:100E100030602078000737D4207840074CD4A5698B
:100E200055B3B06800F00C00082840F0BB80012DDD
:100E300026D07068E16900F480028A4220D1216ADC
:100E400000F03F028A421BD147F6C071626A01403E
:100E5000B1EB821F14D1A16A4FF6FF73C903994306
:100E600000F44032A1F580318A4209D1E16A00F0F4
:100E70007060B0EB016F03D1002002B0BDE8F081DB
:100E8000012002B0BDE8F0816069002840F2000056
:100E9000C4F2472076D00121C0F8801EFFF7C8FDBC
:100EA000054600BF706F8007B6D4FFF7C1FD401B39
:100EB0000228F7D9DDE000BF306C10F080580AD16D
:100EC00000200190306C40F080503064306C00F0B5
:100ED00080500190019847F20007C4F2000738687B
:100EE000C00541D4386840F480703860FFF7A0FD39
:100EF000054600BF3868C00536D4FFF799FD401B92
:100F00000228F7D9B5E000BFB06800F00C0008284F
:100F100003D1706840023FF558AF6068B0F5803F7C
:100F200007D0B0F5A02F40F08D80306840F48020CD
:100F30003060306840F4803030608DE0E068002838
:100F400052D00020C4F2472001210160FFF770FD5C
:100F5000054600BF306880073FF554AFFFF768FDD6
:100F6000401B0228F6D984E0A068012805D0052896
:100F70004ED1306F40F004003067306F40F0010018
:100F800030674FE00021C0F8801EFFF751FD054695
:100F9000706F80077FF540AFFFF74AFD401B0228C6
:100FA000F6D966E00027C4F2472700203866FFF72D
:100FB0003FFD022D05460BD1306880015ED5FFF75D
:100FC00037FD401B02284FF00300F5D955E700BF5D
:100FD000306880017FF550AFFFF72AFD401B0228E3
:100FE0004FF00300F4D948E70020C4F24720002165
:100FF0000160FFF71DFD0546306880077FF509AFEA
:10100000FFF716FD401B02284FF00300F4D934E728
:10101000316F002821F001013167316F21F00401A7
:1010200031674DD0FFF704FD054641F2883700BF18
:10103000306F800756D4FFF7FBFC401BB842F7D94E
:1010400017E000BF3168002821F480313160316839
:1010500021F4802131604FD0FFF7EAFC054600BF44
:10106000306880033FF5B7AEFFF7E2FC401B642811
:10107000F6D9032002B0BDE8F08100BF04F11C05E1
:101080002FCD084340EA8210D9034FF6FF729143F7
:10109000A1F5803140EA05600843706001203866A0
:1010A000FFF7C6FC044600BF306880013FF5E4AEA0
:1010B000FFF7BEFC001B02284FF00300F4D9DCE66A
:1010C000FFF7B6FC054641F2883700BF306F800756
:1010D00008D5FFF7ADFC401BB8424FF00300F5D92F
:1010E000CBE600BFB8F1000F7FF499AE306C20F072
:1010F0008050306493E600BFFFF79AFC054600BFBE
:10110000306880037FF567AEFFF792FC401B6428D0
:101110004FF00300F4D9B0E670B538B10446406A28
:1011200030B10020206104F1140007E0012070BDFF
:101130006068B0F5827F03D004F11C0000210160DB
:101140000026A66294F8510020B9204684F8506029
:1011500000F03CF8022084F8510094E80F0001F4FC
:101160008271056802F4044225F0400505601144CF
:1011700003F400622369114403F00202636911441D
:1011800003F00102A369E569114403F400721144FC
:1011900005F03802256A114405F08002A56A114362
:1011A00005F4005211430160626A042101EA13410F
:1011B00002F0100211444160C16921F40061C16173
:1011C0000120666584F85100304670BD80B586B058
:1011D000016843F20000C4F20100814202D006B06F
:1011E00080BD00BF002143F630020191C4F202022B
:1011F000536900F5504043F480535361536903F43D
:1012000080530193019B0191136843F00103136024
:10121000126802F001020192019AE0220192022278
:10122000CDE90221032104910521059101A9FFF7D0
:1012300025FB06B080BD00002DE9F04381B00446D7
:1012400040681D461746B0F5827F0E4601D1A06862
:10125000E0B394F85000012804D1022001B0BDE8A9
:10126000F08300BF4FF0010984F85090FFF7E0FBD6
:1012700094F85110012927D18046002E4FF001002B
:1012800018BF002F00F0C9800420002184F851000D
:101290006165A663A787E7872163A186E186A268C7
:1012A0002068B2F5004F216461644BD001684906A3
:1012B00053D5E168E08F002957D0002800F08680E0
:1012C000681C1CD12DE000BF0220A6E0042084F899
:1012D00051002046314632463B46009500F0D0F999
:1012E00001B0BDE8F08300BFC068A16B21F8020B1C
:1012F000A163E08F0138E087E08F002866D0206886
:101300008168C907F0D1FFF793FBA0EB0800A84262
:10131000F2D3032081E000BFFFF78AFBE08F0028B3
:1013200054D020688168C907F6D0C068A16B21F845
:10133000020BA163E08F0138E087E08F0028F0D135
:1013400044E000BF016821F040010160016821F420
:101350008041016001684906ABD4016841F0400159
:101360000160E168E08F0029A7D178B3681C0CD137
:101370001CE000BF007BA16B0870A06B0130A06374
:10138000E08F0138E087E08F00B320688168C907EB
:10139000F0D1FFF74DFBA0EB0800A842F3D30320E8
:1013A0003BE000BFFFF744FBE08F78B12068816825
:1013B000C907F7D0007BA16B0870A06B0130A06358
:1013C000E08F0138E087E08F0028EFD16068B0F54A
:1013D000827F0ED1A068B0F5004F02D0B0F5806FCB
:1013E0000AD12168B0F5806F0A6822F040020A60D5
:1013F00002D12046012101E0204680212A464346B1
:1014000001F04AFC28B1606D40F0200060652020AA
:101410006065606D002818BF0120002184F851909C
:1014200084F8501001B0BDE8F08300002DE9F043CE
:1014300083B0044690F85000012803D1022003B085
:10144000BDE8F0834FF001091D4616460F4684F8AB
:101450005090FFF7EDFA94F85110012944D18046DD
:10146000002F4FF0010018BF002E00F0D68003209F
:10147000002184F8510061652763A686E686A16392
:10148000A187E187A0682164B0F5004F20686164FE
:1014900007D1016821F040010160016841F48041F9
:1014A00001600168490603D4016841F04001016010
:1014B0006168731EE268B1FA81F1B3FA83F34909F6
:1014C0005B09B2F5006F41EA03013DD131B137F854
:1014D000021BC1602763E08E0138E086E08E0028A1
:1014E0006CD0681C0DD11EE0022096E0216B31F813
:1014F000022BC2602163E08E0138E086E08E002876
:101500005CD0206881688907F0D4FFF791FAA0EBDE
:101510000800A842F2D303207FE000BFFFF788FA5B
:10152000E08E00284AD0206881688907F6D5216BB3
:1015300031F8022BC2602163E08E0138E086E08E34
:101540000028F0D13AE000BF39B139780173206B3F
:1015500001302063E08E0138E086E08E70B3681CB5
:101560000BD11BE0216B09780173206B01302063E4
:10157000E08E0138E086E08E00B32068816889073C
:10158000F0D4FFF755FAA0EB0800A842F3D30320EC
:1015900043E000BFFFF74CFAE08E78B12068816825
:1015A0008907F7D5216B09780173206B013020631F
:1015B000E08E0138E086E08E0028EFD140F2100086
:1015C000C2F20000006849F68171C1F25E61A0FBC1
:1015D0000101480D4FF47A71484302906068B0F5FC
:1015E000827F23D1204680212A46434601F054FBC6
:1015F00028B1606D40F02000606520206065A06823
:1016000038B9002001902068C1680191806801907C
:101610000198606D002818BF0120002184F85190C6
:1016200084F8501003B0BDE8F08300BF0298002892
:10163000E5D0029801380290206880680006DED567
:1016400002980028DBD00298013802902068806858
:101650000006D4D502980028D1D002980138029013
:10166000206880680006CAD502980028C7D0029872
:1016700001380290206880680006D7D4BFE70000D8
:101680002DE9F04383B0044690F85000012803D1BF
:10169000022003B0BDE8F08301201E4615460F4628
:1016A00084F85000FFF7C4F994F8511081460129DD
:1016B00040F09880002F4FF0010018BF002D00F07F
:1016C0009E80002E00F09B8094F851000021042899
:1016D0001CBF052084F851006165A563E687A687D5
:1016E0002763E6862068A68621646164016849064E
:1016F00003D4016841F0400101606168731EE26833
:10170000B1FA81F1B3FA83F3DDF8288049095B0966
:10171000B2F5006F41EA03017AD131B137F8021B0B
:10172000C1602763E08E0138E086012518F10100D1
:1017300031D101E0FFF77CF9E08E18B9E08F002885
:1017400000F0D0802068816889070CD5E18E51B106
:10175000012D08D1216B002531F8022BC2602163D5
:10176000E18E0139E1868168C907E3D0E18F002964
:10177000E0D0C068A16B012521F8020BA163E08FC6
:101780000138E087D6E700BFFFF752F9A0EB090068
:10179000404580F0FD80E08E18B9E08F002800F011
:1017A000A1802068816889070CD5E18E51B1012D97
:1017B00008D1216B002531F8022BC2602163E18E34
:1017C0000139E1868168C907DED0E18F0029DBD0CD
:1017D000C068A16B012521F8020BA163E08F0138DD
:1017E000E087D1E76068B0F5827F07D1A068002864
:1017F0004FF0020008BF042901D15BE7022001215C
:1018000084F85110002184F8501003B0BDE8F08333
:1018100039B139780173206B01302063E08E0138D3
:10182000E086012518F1010033D101E0FFF700F94E
:10183000E08E10B9E08F002854D0206881688907B5
:101840000ED5E18E61B1012D0AD1216B00250978F9
:101850000173216B206801312163E18E0139E1863A
:101860008168C907E2D0E18F0029DFD0C068A16B91
:1018700001250870A06B0130A063E08F0138E0877C
:10188000D4E700BFFFF7D4F8A0EB0900404580F093
:101890008180E08E08B9E08F20B3206881688907D5
:1018A0000ED5E18E61B1012D0AD1216B0025097899
:1018B0000173216B206801312163E18E0139E186DA
:1018C0008168C907DED0E18F0029DBD0C068A16B39
:1018D00001250870A06B0130A063E08F0138E0871C
:1018E000D0E700BF40F21000C2F20000006849F6E5
:1018F0008171C1F25E61A0FB0101480D4FF47A7164
:10190000484302906068B0F5827F0FD12046802165
:1019100042464B4601F0C0F960B3606D40F02000D4
:10192000606520206065012069E700BF029808B368
:101930000298013802902068806800061AD5029843
:10194000C0B102980138029020688068000611D565
:10195000029878B1029801380290206880680006E9
:1019600008D5029830B1029801380290206880684A
:101970000006DBD4A06800284FF000007FF43FAFE2
:1019800001902168CA68019289680191019936E73E
:10199000032034E7032032E7411E0020B0EB116F33
:1019A0001CBF012070474EF21002CEF200025160BF
:1019B0004EF62351CEF20001F0230B700721906008
:1019C00011607047002804BF0120704710B504461D
:1019D00090F83D0028B9002084F83C00204600F033
:1019E00021F8242084F83D002068C16821F40051CA
:1019F000C160204601F026FA2068016921F4904177
:101A00000161416921F02A014161C16841F400513D
:101A1000C16000202021206484F83D1084F83E102D
:101A200010BD000080B586B0016841F20040C4F2EC
:101A30000100814202D006B080BD00BF002143F604
:101A400030020191C4F20202536900F5744043F080
:101A500020035361536903F020030193019B01911B
:101A6000136843F004031360126802F00402019249
:101A7000019AC02201920222CDE9022103210491A0
:101A80000821059101A9FEF7F9FE06B080BD00000E
:101A90002DE9F04381B0044690F83D0020280DD197
:101AA0000F4600294FF0010000F0DD801646002AA5
:101AB00000F0D98094F83C00012803D1022001B045
:101AC000BDE8F083012084F83C0000202064212040
:101AD0001D4684F83D00FEF7ABFFA684E684A168AE
:101AE0000646B1F5805F03D12069002800F010811F
:101AF000B8460027002084F83C00E18C20680029CB
:101B000000F0908005F101090DE000BFB8F1000F71
:101B100028D018F8011B4160E18C0139E184E18C87
:101B2000002900F07F8001680906EFD4B9F1000FA9
:101B30000AD0FDB1FEF77CFF801BA8421AD82068AE
:101B400001680906F6D5E1E701680906DED40168F7
:101B500009065CBF01685FEA0161D7D40168090624
:101B6000F2D5D3E737F8021B4FF000086FF35F217F
:101B7000D1E700BF206850E8030F216820F4D0703F
:101B800041E80302BAB3206850E8030F216820F44B
:101B9000D07041E8030272B3206850E8030F216857
:101BA00020F4D07041E803022AB3206850E8030F04
:101BB000216820F4D07041E80302002ADAD11AE04B
:101BC000206850E8050F216820F0010041E8050277
:101BD000DAB1206850E8050F216820F0010041E8E3
:101BE000050292B1206850E8050F216820F001003D
:101BF00041E805024AB1206850E8050F216820F04D
:101C0000010041E80502002ADAD1202084F83D00D5
:101C100084F83E00002084F83C00032001B0BDE8B9
:101C2000F08300BF0168490619D4FDB1691C0DD1CC
:101C30000168490613D4016849065CBF01685FEA80
:101C400041610CD401684906F2D508E0FEF7F0FEC8
:101C5000801BA8420AD8206800684006F6D52020DC
:101C600084F83D00002001B0BDE8F083206850E812
:101C7000030F216820F4D07041E80302E2B320682A
:101C800050E8030F216820F4D07041E803029AB3B2
:101C9000206850E8030F216820F4D07041E8030267
:101CA00052B3206850E8030F216820F4D07041E857
:101CB0000302002ADAD11FE0206850E8050F2168EE
:101CC00020F0010041E80502002A9ED0206850E87B
:101CD000050F216820F0010041E80502002A3FF4C9
:101CE00094AF206850E8050F216820F0010041E81A
:101CF0000502002A3FF489AF206850E8050F2168EB
:101D000020F0010041E80502002AD5D17DE700BF9F
:101D10004FF00008EEE60000FEE7000070B586B068
:101D2000002543F6300005950095C4F202000168D5
:101D300040F2004441F0800101600168C4F20204F5
:101D400001F080010091009900950168002241F0A6
:101D5000010101600168032601F001010091009971
:101D60000095016841F002010160016801F0020183
:101D7000009100990095016841F00401016000683C
:101D8000032100F00400009000982046FEF74AFE70
:101D90000120CDE9020501A9204601960495FEF730
:101DA0006DFD06B070BD000080B540F2D40043F276
:101DB0000001C2F20000C4F201014FF4827200235C
:101DC0004FF4007C80E80E000A21C0E90333C0E92B
:101DD000053CC361C0E90833C0E90A31FFF79CF94B
:101DE000002808BF80BDBDE88040FEF72DBD000083
:101DF00080B540F22C1041F20041C2F20000C4F262
:101E0000010100234FF00C0C4FF4E13280E80E008A
:101E1000C0E90333C0E905C3C361FFF7D3FD002860
:101E200008BF80BDBDE88040FEF70EBDFEE70000A4
:101E3000FEE70000002000F001B80000F0B583B01C
:101E400040F27807C2F20007BA68B9880546104622
:101E50000022FEF7E7FD40F2A4140720C2F20004BE
:101E60000DF103068DF8030020463146012264235C
:101E7000FFF7DCFA711C204601226423FFF7DCF92E
:101E8000B868B9889DF804600122FEF7CBFD16F012
:101E9000400436D0002D1CBFC6F342002870B8683D
:101EA000B9880022FEF7BEFD44F22700ADF8060017
:101EB00040F2A410C2F200000DF1060102226423D8
:101EC000FFF7B4FAB868B9880122FEF7ABFDB00697
:101ED00017D5B868B9880022FEF7A4FD42F22700A2
:101EE000ADF8090040F2A410C2F200000DF10901A2
:101EF00002226423FFF79AFAB868B9880122FEF734
:101F000091FD002C18BF0124204603B0F0BD000055
:101F100081B02DE9F04183B040F2A418C2F200086C
:101F200015460E46074609A9404658220993FEF772
:101F30007AFB40F27804C2F20004384631460122AE
:101F4000A760A680E580FEF76DFDA068E18800220D
:101F5000FEF768FD0520FEF77DFCA068A188002241
:101F6000FEF760FD4FF40260ADF8000069464046A0
:101F700002226423FFF75AFAA068A1880122FEF723
:101F800051FDA068A1880022FEF74CFD43F62170A8
:101F9000ADF800006946404602226423FFF746FA86
:101FA000A068A1880122FEF73DFDA068A18800225B
:101FB000FEF738FD40F22230ADF800006946404699
:101FC00002226423FFF732FAA068A1880122FEF7FB
:101FD00029FDA068A1880022FEF724FD40F22330ED
:101FE000ADF800006946404602226423FFF71EFA5E
:101FF000A068A1880122FEF715FDA068A188002233
:10200000FEF710FD4FF44970ADF8000069464046F8
:1020100002226423FFF70AFAA068A1880122FEF7D2
:1020200001FDA068A1880022FEF7FCFC40F22520FB
:10203000ADF800006946404602226423FFF7F6F936
:10204000A068A1880122FEF7EDFCA068A18800220B
:10205000FEF7E8FC40F62670ADF800006946404601
:1020600002226423FFF7E2F9A068A1880122FEF7AB
:10207000D9FCA068A1880022FEF7D4FC40F62760B6
:10208000ADF800006946404602226423FFF7CEF90E
:10209000A068A1880122FEF7C5FCA068A1880022E3
:1020A000FEF7C0FC2820ADF8000069464046022239
:1020B0006423FFF7BBF9A068A1880122FEF7B2FCF8
:1020C000A068A1880022FEF7ADFC2920ADF8000031
:1020D0006946404602226423FFF7A8F9A068A18858
:1020E0000122FEF79FFCA068A1886FF018064FF050
:1020F000E73700228DF804600097FEF793FC2A2052
:102100008DF809000DF10901404601226423FFF713
:102110008DF96D464046294605226423FFF786F96E
:10212000A068A1880122FEF77DFC4FF0C23000902C
:102130006FF03D02A068A1888DF804200022FEF710
:1021400071FC2B208DF809000DF109014046012298
:102150006423FFF76BF94046294605226423FFF705
:1021600065F9A068A1880122FEF75CFCA068A1883F
:102170000022FEF757FC4CF22C30ADF809000DF1AF
:102180000901404602226423FFF750F9A068A188A4
:102190000122FEF747FCA068A1880022FEF742FC5E
:1021A0004CF22D40ADF809000DF109014046022224
:1021B0006423FFF73BF9A068A1880122FEF732FCF7
:1021C000A068A1880022FEF72DFC4CF22E50ADF83D
:1021D00009000DF10901404602226423FFF726F9A8
:1021E000A068A1880122FEF71DFCA068A18800223A
:1021F000FEF718FC4CF22F60ADF809000DF1090153
:10220000404602226423FFF711F9A068A188012249
:10221000FEF708FCA068A188002200978DF80460F2
:10222000FEF700FC30208DF809000DF10901404651
:1022300001226423FFF7FAF8404629460522642369
:10224000FFF7F4F8A068A1880122FEF7EBFBA06875
:10225000A1880022FEF7E6FB3120ADF809000DF160
:102260000901404602226423FFF7E0F8A068A18834
:102270000122FEF7D7FBA068A1880022FEF7D2FB5F
:102280003220ADF809000DF1090140460222642315
:10229000FFF7CCF8A068A1880122FEF7C3FBA06875
:1022A000A1880022FEF7BEFB3320ADF809000DF136
:1022B0000901404602226423FFF7B8F8A068A1880C
:1022C0000122FEF7AFFBA068A1880022FEF7AAFB5F
:1022D0003420ADF809000DF10901404602226423C3
:1022E000FFF7A4F8A068A1880122FEF79BFBA06875
:1022F000A1880022FEF796FB3520ADF809000DF10C
:102300000901404602226423FFF790F8A068A188E3
:102310000122FEF787FBA068A1880022FEF782FB5E
:102320003620ADF809000DF1090140460222642370
:10233000FFF77CF8A068A1880122FEF773FBA06874
:10234000A1880022FEF76EFB47F25030ADF809007D
:102350000DF10901404602226423FFF767F8A068E7
:10236000A1880122FEF75EFBA068A1880022FEF78B
:1023700059FB3C20ADF809000DF10901404602224D
:102380006423FFF753F8A068A1880122FEF74AFBF7
:10239000A068A1880022FEF745FB3D20ADF80900AA
:1023A0000DF10901404602226423FFF73FF8A068BF
:1023B000A1880122FEF736FB00F076FEA068A18816
:1023C0000022FEF72FFB4FF62470ADF809000DF147
:1023D0000901404602226423FFF728F8A068A1887B
:1023E0000122FEF71FFB032000F058FB012000F044
:1023F000E3FA022000F06CFA00F062F82022A068F4
:10240000A188A2700022FEF70DFB47F22700ADF86D
:1024100009000DF10901404602226423FFF706F886
:10242000A068A1880122FEF7FDFAA068A188002219
:10243000FEF7F8FA25208DF809004C208DF80A00E7
:102440000DF10901404602226423FEF7EFFFA06868
:10245000A1880122FEF7E6FAA068A1880022FEF713
:10246000E1FAE1208DF80900FF250DF10901404650
:10247000022264238DF80A50FEF7D8FFA068A188D5
:102480000122FEF7CFFAA068A1880022FEF7CAFA5F
:10249000E2208DF809000DF1090140460222642373
:1024A0008DF80A50FEF7C2FFA068A1880122FEF74E
:1024B000B9FA00F019F903B0BDE8F04101B0704776
:1024C00070B584B040F27806C2F20006B068B188F8
:1024D0000022FEF7A7FA40F2A4141D20C2F2000465
:1024E0000DF107058DF807002046294601226423D7
:1024F000FEF79CFF691C204601226423FEF79CFE28
:10250000B068B1889DF808500122FEF78BFAB068D8
:10251000B188002205F0FB05FEF784FA3D208DF816
:102520000A000DF10A012046022264238DF80B50A7
:10253000FEF77CFFB068B1880122FEF773FAB0683D
:10254000B1880022FEF76EFA3C20ADF80D000DF1C7
:102550000D01204602226423FEF768FFB068B188AF
:102560000122FEF75FFA04B070BD00002DE9F043D0
:1025700083B004460193009230B3062C00F2AD8084
:10258000012C27D943F6F94040F27806C0F6000046
:10259000C2F20006055DB068B1880022FEF742FA7B
:1025A00045F0200040F2A415C2F200058DF80900A4
:1025B0000DF10901284601226423FEF737FF694621
:1025C0002846012226E000BF40F27800C2F2000057
:1025D000C0E9042343F6F94040F27806C0F6000053
:1025E000C2F20006055DB068B1880022FEF71AFA53
:1025F00045F0200040F2A415C2F200058DF8090054
:102600000DF10901284601226423FEF70FFF6946F8
:10261000284605226423FEF709FFB068B18801222D
:10262000FEF700FA40F278072DA0C2F20007055D20
:10263000B868B988BE780022FEF7F4F945F02000AA
:1026400040F2A4158DF80A60C2F200050DF10906EA
:102650008DF8090028463146022264234FF0020912
:10266000FEF7E4FEB868B98801224FF00108FEF7D2
:10267000D9F9B868B9880022FEF7D4F9284631465E
:10268000012264238DF80990FEF7D0FE711C2846C4
:1026900001226423FEF7D0FDB868B9889DF80A606E
:1026A0000122FEF7BFF908FA04F2B868B98846EAD1
:1026B00002040022FEF7B6F922208DF809000DF180
:1026C00009012846022264238DF80A40FEF7AEFE77
:1026D000B868B9880122FEF7A5F903B0BDE8F08318
:1026E000111213141516000070B582B040F278066E
:1026F000C2F20006B068B18800220024FEF792F909
:102700008DF8024040F2A414C2F200040DF102055B
:102710002046294601226423FEF788FE691C2046D4
:1027200001226423FEF788FDB068B1889DF803504C
:102730000122FEF777F9B068B188002205F0FD05A7
:10274000FEF770F920208DF805000DF105012046F7
:10275000022264238DF80650FEF768FEB068B18847
:102760000122FEF75FF902B070BD00002DE9F041D3
:1027700084B040F27807C2F20007BD78BA880646F6
:10278000B8688D4228BF0D46114600224FF0000860
:10279000FEF748F940F2A4146120C2F200048DF85B
:1027A00006000DF10601204601226423FEF73EFEDD
:1027B000204631462A466423FEF73EFDB868B988B4
:1027C0000122FEF72FF9B868B9880022FEF72AF92E
:1027D00017200DF107058DF8070020462946012234
:1027E0006423FEF723FE691C204601226423FEF7C2
:1027F00023FDB868B9889DF808500122FEF712F948
:10280000B868B988002205F00105FEF70BF94FF60C
:10281000E270ADF80A000DF10A012046022264239D
:10282000FEF704FEB868B9880122FEF7FBF8B86825
:10283000B9880022FEF7F6F80DF10D062046314664
:10284000012264238DF80D80FEF7F0FD711C2046F7
:1028500001226423FEF7F0FCB868B9880122FEF774
:10286000E1F8284604B0BDE8F081000010B582B060
:1028700040F27804C2F2000480B1A068A18800226E
:10288000FEF7D0F843F62170ADF8020040F2A41034
:10289000C2F200000DF102010EE000BFA068A188A5
:1028A0000022FEF7BFF82120ADF8050040F2A41089
:1028B000C2F200000DF1050102226423FEF7B6FD0D
:1028C000A068A1880122FEF7ADF802B010BD00009B
:1028D000F0B583B040F27807C2F20007BA68B98851
:1028E0000446104600220025FEF79CF88DF806509D
:1028F00040F2A415C2F200050DF106062846314645
:1029000001226423FEF792FD711C284601226423F4
:10291000FEF792FCB868B9889DF807600122FEF7BF
:1029200081F806F0F3052CB1012C14BF46F00C051C
:1029300045F00805B868B9880022FEF773F8202032
:102940008DF8090040F2A410C2F200000DF1090157
:10295000022264238DF80A50FEF768FDB868B98832
:102960000122FEF75FF803B0F0BD0000B0B582B001
:1029700040F27805C2F2000504467F28A868A988BD
:102980004FF0000228BF7F24FEF74CF825208DF879
:10299000050040F2A410C2F200000DF10501022270
:1029A00064238DF80640FEF741FDA868A98801223E
:1029B000FEF738F802B0B0BDF0B583B040F278074A
:1029C000C2F20007BA68B988044610460022FEF732
:1029D00029F840F2A4150620C2F200050DF1030605
:1029E0008DF803002846314601226423FEF71EFDC0
:1029F000711C284601226423FEF71EFCB868B988C2
:102A00009DF804500122FEF70DF8012C05F0D706C1
:102A100004D0022C08BF46F0200601E046F008066C
:102A2000B868B9880022FDF7FDFF40F2A414262003
:102A3000C2F200048DF806000DF1060120460222C4
:102A400064238DF80760FEF7F1FCB868B9880122AD
:102A5000FDF7E8FFB868B9880022FDF7E3FF06201C
:102A60000DF109058DF8090020462946012264234D
:102A7000FEF7DCFC691C204601226423FEF7DCFB28
:102A8000B868B9889DF80A400122FDF7CBFFA01B6A
:102A9000B0FA80F0400903B0F0BD0000F0B583B09B
:102AA00040F27807C2F20007BA68B98804461046B7
:102AB0000022FDF7B7FF40F2A4150620C2F2000580
:102AC0000DF106068DF806002846314601226423E2
:102AD000FEF7ACFC711C284601226423FEF7ACFB18
:102AE000B868B9889DF807500122FDF79BFF601E6A
:102AF000032805F0F90411D8DFE800F002060A0EF9
:102B000044F002040AE000BF44F0040406E000BF01
:102B100045F0060402E000BF45F00604B868B98835
:102B20000022FDF77FFF26208DF8090040F2A41057
:102B3000C2F200000DF10901022264238DF80A405F
:102B4000FEF774FCB868B9880122FDF76BFF03B08B
:102B5000F0BD000040F27801C2F20001202828BF39
:102B6000202088707047000070B584B040F278066D
:102B7000C2F20006B068B18800220024FDF752FFBF
:102B80008DF8014040F2A414C2F200040DF10105D9
:102B90002046294601226423FEF748FC691C204692
:102BA00001226423FEF748FBB068B1889DF802500B
:102BB0000122FDF737FFB068B188002245F0030518
:102BC000FDF730FF20208DF8040001A920460222E5
:102BD00064238DF80550FEF729FCB068B188012206
:102BE000FDF720FFD6E9040108431ED0B068B18884
:102BF0000022FDF717FF40F2A4142A20C2F20004BD
:102C00008DF807000DF10701204601226423FEF72D
:102C10000DFC06F11001204605226423FEF706FC98
:102C2000B068B1880122FDF7FDFEB068B1880022CE
:102C3000FDF7F8FE40F2A4144FF6E170C2F2000472
:102C4000ADF80A000DF10A01204602226423FEF7C6
:102C5000EDFBB068B1880122FDF7E4FEB068B188F1
:102C60000022FDF7DFFE4FF6E270ADF80D000DF12A
:102C70000D01204602226423FEF7D8FBB068B1881C
:102C80000122FDF7CFFEB068F1880122FDF7CAFEF0
:102C900004B070BD704700002DE9F04182B01E46BF
:102CA00090460D460446FDF7C3FE301A00EB0807B8
:102CB000FDF7BEFE40F21001C2F200010968C1F347
:102CC000CB317943019121688A682A40AA4227D1F1
:102CD000064618F101001FD0FDF7AAFE801BB8427E
:102CE00022D2019801990028A1F1010101912168E6
:102CF000896808BF074601EA0500A842ECD00FE04A
:102D000088682840A8420BD188682840A84207D18B
:102D100088682840A84203D188682840A842EFD09C
:102D2000002002B0BDE8F081D4E900014268B1F5AD
:102D3000827F22F0E00242600AD1A168B1F5004F23
:102D400002D0B1F5806F03D1016821F0400101602C
:102D5000A16AB1F5005F07D1016821F4005101605B
:102D6000016841F400510160012084F85100002005
:102D700084F85000032002B0BDE8F08170470000E5
:102D8000FDF75CBEB0B592B0002443F640000B9452
:102D9000CDE90944CDE907440594CDE90344CDE9E3
:102DA00001440094C4F202000168022541F0805100
:102DB0000160006800F080500090009847F2000029
:102DC0000094C4F20000016841F480410160006891
:102DD00000F48040009000980120099010200A9093
:102DE00008200E904820CDE90F050420119006A878
:102DF0000695CDE90C54FDF7D5FF28B1EFF310800F
:102E000072B600BFFEE700BF0F20CDE901054FF409
:102E10008050CDE9040401A802210394FDF7B4FE1B
:102E200020B1EFF3108072B6FEE700BF12B0B0BD64
:102E30004EF68850CEF20000016841F47001016046
:102E40007047000010B504460068D4E902C2236947
:102E5000016921F4405111430161626943EA0C01A7
:102E6000E3691143C268194349F20C639A43114361
:102E7000C1604169A26921F4407141F200431143EC
:102E800040F48062C4F201039A42416102D1FDF72D
:102E90003FFF01E0FDF728FFE16963681922B1F502
:102EA000004FA0FB020123D15A00DB0FFDF7E4F92C
:102EB00048F21F51C5F2EB11A0FB01235A094FF64E
:102EC0009C73C0F6FF7303F1805302FB03003223AF
:102ED00003EBC000A0FB01014FF4F87000EA1110F1
:102EE00000EB0210C1F3421108442168886010BD54
:102EF0009A009B0FFDF7C0F948F21F51C5F2EB1184
:102F0000A0FB01235A094FF69C73C0F6FF7302FB26
:102F10000300322303EB0010A0FB0101F02000EAC4
:102F2000511000EB0210C1F343110844216888607E
:102F300010BD0000FEE70000AAB0FDF78DFDFFF711
:102F400021FFFEF7EBFEFEF72FFFFEF751FF16AD58
:102F5000281D4C21FDF799FB47F65200C0F60D20C5
:102F600016902846FDF740FB40F22C14C2F20004F4
:102F700082B2204629460A23FEF78AFD40F2D40198
:102F8000C2F2000151F8043B6846542251F8045B38
:102F9000043A40F8045BF9D140F20040C4F2020068
:102FA00001210222FEF7B4FF04F1100050F8042BB7
:102FB000694641F8042B50F8042B41F8042B50F8D3
:102FC000042B41F8042B50F8042B41F8042B50F843
:102FD000042B41F8042B50F8042B41F8042B50F833
:102FE000042B41F8042B50F8042B41F8042B50F823
:102FF000042B41F8042B50F8042B41F8042B50F813
:10300000042B41F8042B50F8042B41F8042B50F802
:10301000042B41F8042B94E80F0000F031F800F085
:1030200043F8FFF7A1FD40F20800C2F20000D0E92A
:1030300000230120FFF79AFA0020FFF717FC342045
:10304000FFF794FC2020FFF785FD40F2701440F25A
:103050002C15C2F2000440F60D26C2F2000500BF96
:10306000FEF7E8FE0028FBD020462021FFF77EFB7C
:103070002846214622220A232684FEF709FDEFE78F
:1030800084B080B50DF1080C8CE80F0040F2780098
:10309000C2F20000183002A94422FDF7C4FABDE8CC
:1030A000804004B0704700002DE9F04FAFB044F20B
:1030B0006800C0F60000D0E90037D0E90441109361
:1030C000CDE915370BABD0E90265F2C300F120075B
:1030D000CDE919418ACF0DF1740ED0E906C2CDE9D0
:1030E0001765C66ACDE909318EE88A0090F832107A
:1030F000008E15AD0590ADF8840028462096CDE9E8
:103100000767CDE9112CCDE91BC206918DF8861019
:10311000FDF76AFA40F27809C2F2000909F1180BCA
:1031200082B2584629460A23FEF7B2FCD9F80800B5
:10313000B9F8041000220025FDF774FC8DF84E50FC
:1031400040F2A415C2F200050DF14E0428462146B6
:1031500001226423FEF76AF904F10108284641467A
:1031600001226423FEF768F8D9F80800B9F80410C2
:103170009DF84F500122FDF755FC28070ED4DFF8CB
:10318000A40A0DF1580C15900FF69820031D0ECBD4
:1031900000698CE80E00199025E000BF680713D481
:1031A000DFF8640A0DF1580C15900FF65C20071D2E
:1031B0008ECF45698CE88E00018B807E1A95ADF824
:1031C0006C108DF86E000EE0DFF8200A0DF1580C3F
:1031D00015900FF61820071D8ECFD0E905508CE80A
:1031E0008E00CDE91A5015AF3846FDF7FDF982B2D1
:1031F000584639460A23FEF74BFCD9F80800B9F8BF
:1032000004100022FDF70EFC40F2A4150120C2F2CA
:1032100000058DF84E002846214601226423FEF762
:1032200005F92846414601226423FEF705F8D9F83E
:103230000800B9F804109DF84FA00122FDF7F2FB39
:10324000CAF38000CAF3C001CAF300148DE813006A
:1032500043F6C0610AF00102CAF34003CAF3401604
:10326000C0F6000138460396FDF77EF83846FDF7B4
:10327000BBF982B2584639460A23FEF709FCD9F851
:103280000800B9F804100022FDF7CCFB02200DF174
:103290004E0A8DF84E002846514601226423FEF75F
:1032A000C5F82846414601226423FDF7C5FFD9F839
:1032B0000800B9F804109DF84F400122FDF7B2FB59
:1032C000C4F38000C4F3C001C4F300168DE84300CA
:1032D00043F6047104F00102C4F34003C4F3401444
:1032E000C0F6000138460394FDF73EF83846FDF776
:1032F0007BF982B2584639460A23FEF7C9FBD9F852
:103300000800B9F804100022FDF78CFB03208DF8AB
:103310004E002846514601226423FEF787F82846CE
:10332000414601226423FDF787FFD9F80800B9F868
:1033300004109DF84F400122FDF774FB04F00300D8
:10334000821C0FF6F4013846FDF70EF83846FDF7FB
:103350004BF982B2584639460A23FEF799FBD9F851
:103360000800B9F804100022FDF75CFB05208DF879
:103370004E002846514601226423FEF757F828469E
:10338000414601226423FDF757FFD9F80800B9F838
:1033900004109DF84F400122FDF744FB04F07F022A
:1033A0000FF6B0013846FCF7DFFF3846FDF71CF991
:1033B00082B2584639460A23FEF76AFBD9F808005C
:1033C000B9F804100022FDF72DFB06208DF84E0001
:1033D0002846514601226423FEF728F82846414634
:1033E00001226423FDF728FFD9F80800B9F804107A
:1033F0009DF84F600122FDF715FB30070CD444F215
:103400005000C0F6000090E88E0005690DF1540CE4
:103410008CE88E0019950AE0DFF84C080DF1580C85
:1034200015900FF64400071D8ECF8CE88E00818A20
:10343000807D15AD8DF86A002846ADF86810FDF75F
:10344000D3F882B2584629460A23FEF721FBC6F379
:103450004100022808D0012818D038BB43F6D470A8
:10346000C0F6000016E000BF43F6C070C0F60000D2
:1034700090E88E000DF1540C8CE88E00018A807C5F
:10348000ADF864108DF866001EE000BF43F6AC7026
:10349000C0F60000016842688368C76800690DF1E2
:1034A000540C8CE88E0019900EE000BF43F6987023
:1034B000C0F6000090E88E00008A0DF1540C8CE8F4
:1034C0000E001897ADF8640015AD2846FDF78CF88E
:1034D00082B2584629460A230A24FEF7D9FAD9F8B7
:1034E0000800B9F804100022FDF79CFA40F2A41A73
:1034F000C2F2000A0DF1B9015046012264238DF891
:10350000B940FDF793FF0DF14E07504639460522AD
:103510006423FDF791FED9F80800B9F804100122E0
:10352000FDF780FA9DF84F009DF850109DF852204D
:103530009DF84E409DF85130CDE9001043F6005102
:10354000C0F6000128460294FCF70EFF2846FDF75E
:103550004BF882B2584629460A23FEF799FAD9F861
:103560000800B9F804100022FDF75CFA0B208DF872
:10357000B9000DF1B901504601226423FDF756FF51
:103580005046394605226423FDF756FED9F8080057
:10359000B9F804100122FDF745FA9DF84F009DF897
:1035A00050109DF852209DF84E409DF85130CDE9C5
:1035B000001043F63051C0F6000128460294FCF793
:1035C000D3FE2846FDF710F882B2584629460A2352
:1035D000FEF75EFAD9F80800B9F804100022FDF7EA
:1035E00021FA0C208DF8B9000DF1B90150460122E5
:1035F0006423FDF71BFF5046394601226423FDF783
:103600001BFED9F80800B9F804100122FDF70AFAE8
:103610009DF84E2043F68A51C0F600012846FCF77B
:10362000A3FE2846FCF7E0FF82B2584629460A234B
:10363000FEF72EFAD9F80800B9F804100022FDF7B9
:10364000F1F90D208DF8B9000DF1B90150460122B4
:103650006423FDF7EBFE5046394601226423FDF753
:10366000EBFDD9F80800B9F804100122FDF7DAF9EA
:103670009DF84E2043F6B251C0F600012846FCF7F3
:1036800073FE2846FCF7B0FF82B2584629460A234B
:10369000FEF7FEF9D9F80800B9F804100022FDF78A
:1036A000C1F90E208DF8B9000DF1B9015046012283
:1036B0006423FDF7BBFE5046394601226423FDF723
:1036C000BBFDD9F80800B9F804100122FDF7AAF9EA
:1036D0009DF84E2043F6DA51C0F600012846FCF76B
:1036E00043FE2846FCF780FF82B2584629460A234B
:1036F000FEF7CEF9D9F80800B9F804100022FDF75A
:1037000091F90F208DF8B9000DF1B9015046012251
:103710006423FDF78BFE5046394601226423FDF7F2
:103720008BFDD9F80800B9F804100122FDF77AF9E9
:103730009DF84E2043F60261C0F600012846FCF7D2
:1037400013FE2846FCF750FF82B2584629460A234A
:10375000FEF79EF9D9F80800B9F804100022FDF729
:1037600061F910200DF1B9088DF8B90050464146B5
:1037700001226423FDF75AFE504639460522642390
:10378000FDF75AFDD9F80800B9F804100122FDF739
:1037900049F99DF84F009DF850109DF852209DF872
:1037A0004E709DF85130CDE9001043F66051C0F6DF
:1037B000000128460297FCF7D7FD2846FCF714FFC6
:1037C00082B2584629460A23FEF762F9D9F8080062
:1037D000B9F804100022FDF725F911208DF8B90081
:1037E0005046414601226423FDF720FE08F10107FF
:1037F0005046394601226423FDF71EFDD9F8080022
:10380000B9F804109DF8BA400122FDF70BF943F610
:103810002A6104F03F02C0F600012846FCF7A4FD2F
:103820002846FCF7E1FE82B2584629460A23FEF7F5
:103830002FF9D9F80800B9F804100022FDF7F2F8C2
:1038400012208DF8B9005046414601226423FDF74D
:10385000EDFD5046394601226423FDF7EDFCD9F811
:103860000800B9F804109DF8BA400122FDF7DAF813
:1038700043F6436104F03F02C0F600012846FCF71E
:1038800073FD2846FCF7B0FE82B2584629460A234B
:10389000FEF7FEF8D9F80800B9F804100022FDF789
:1038A000C1F813208DF8B900504641460122642327
:1038B000FDF7BCFD5046394601226423FDF7BCFCF0
:1038C000D9F80800B9F804109DF8BA400122FDF7B4
:1038D000A9F843F65C6104F03F02C0F600012846F7
:1038E000FCF742FD2846FCF77FFE82B25846294687
:1038F0000A23FEF7CDF8D9F80800B9F80410002221
:10390000FDF790F814208DF8B90050464146012289
:103910006423FDF78BFD5046394601226423FDF7F1
:103920008BFCD9F80800B9F804109DF8BA400122C0
:10393000FDF778F843F6756104F03F02C0F6000128
:103940002846FCF711FD2846FCF74EFE82B2584689
:1039500029460A23FEF79CF8D9F80800B9F80410A4
:103960000022FDF75FF815208DF8B900504641465A
:1039700001226423FDF75AFD504639460122642393
:10398000FDF75AFCD9F80800B9F804109DF8BA40C0
:103990000122FDF747F843F68E6104F03F02C0F6BE
:1039A00000012846FCF7E0FC2846FCF71DFE82B229
:1039B000584629460A23FEF76BF8D9F80800B9F8EB
:1039C00004100022FDF72EF816208DF8B90050469D
:1039D000414601226423FDF729FD50463946012264
:1039E0006423FDF729FCD9F80800B9F804109DF804
:1039F000BA400122FDF716F843F6A76104F03F0232
:103A0000C0F600012846FCF7AFFC2846FCF7ECFDA9
:103A100082B2584629460A23FEF73AF8D9F8080038
:103A2000B9F804100022FCF7FDFF1C208DF8B90046
:103A30005046414601226423FDF7F8FC50463946C2
:103A400001226423FDF7F8FBD9F80800B9F8041047
:103A50009DF8BA400122FCF7E5FFC4F38000C4F3EF
:103A6000C001C4F300168DE8430043F64D7104F025
:103A70000102C4F34003C4F34014C0F60001284619
:103A80000394FCF771FC2846FCF7AEFD82B2584661
:103A900029460A23FDF7FCFFD9F80800B9F80410FD
:103AA0000022FCF7BFFF1D208DF8B90050464146AB
:103AB00001226423FDF7BAFC5046394601226423F3
:103AC000FDF7BAFBD9F80800B9F804109DF8BA6000
:103AD0000122FCF7A7FF700712D444F21C00C0F6C5
:103AE000000090E88E000DF1540C05698CE88E0002
:103AF000818A807D1995ADF868108DF86A000EE016
:103B000043F6E870C0F6000090E88E000569808AF0
:103B10000DF1540C8CE88E001995ADF8680015ADC8
:103B20002846FCF761FD82B2584629460A23FDF774
:103B3000AFFFB00714D444F23400C0F6000090E8A0
:103B40008E000DF1540CD0E904658CE88E00018BD9
:103B5000807ECDE91965ADF86C108DF86E0010E02F
:103B600044F20000C0F6000090E88E00D0E9046541
:103B7000008B0DF1540C8CE88E0019961A95ADF857
:103B80006C0015AD2846FCF72FFD82B25846294639
:103B90000A23FDF77DFF109815900F9816900E9848
:103BA00017900D9818900C9819900B981A900798E8
:103BB000209008981F9009981E900A981D901198BF
:103BC0001C9012981B9006988DF886000598ADF809
:103BD00084002846FCF708FD82B2584629460A238D
:103BE000FDF756FF2FB0BDE8F08F00BF4352433AB8
:103BF0000D0A0909456E61626C65642C2032204211
:103C000079746573200D0A004352433A0D0A09097D
:103C1000456E61626C65642C2031204279746520A8
:103C20000D0A00004352433A0D0A090944697361C1
:103C3000626C6564200D0A0053455455505F41572E
:103C40003A0D0A09092564206279746573200D0A0A
:103C50000000000052465F43483A0D0A09092564F6
:103C6000204348200D0A00004461746120526174B1
:103C7000653A0D0A0909324D627073200D0A000081
:103C800030380A2801D20120704700207047F1EE39
:103C9000100A4FF6FF71C0F2C03120EA010040F077
:103CA0004070E1EE100A7047303132333435363728
:103CB0003839414243444546403058003031323370
:103CC0003435363738396162636465664030780070
:103CD00004000008000000000000000200010000D5
:103CE00010000000000000000001020304060708A5
:103CF0000900000000010203040A0B0C0D0E0F1056
:103D000052585F50697065302041646472733A0D97
:103D10000A0909253032582C253032582C253032EA
:103D2000582C253032582C2530325820200D0A00CE
:103D300052585F50697065312041646472733A0D66
:103D40000A0909253032582C253032582C253032BA
:103D5000582C253032582C2530325820200D0A009E
:103D600054582041646472733A0D0A0909253032AF
:103D7000582C253032582C253032582C25303258CA
:103D80002C2530325820200D0A0052585F5069709F
:103D900065322041646472733A0D0A090978782CFF
:103DA00078782C78782C78782C2530325820200D93
:103DB0000A0052585F506970653320416464727321
:103DC0003A0D0A090978782C78782C78782C78784C
:103DD0002C2530325820200D0A0052585F5069704F
:103DE00065342041646472733A0D0A090978782CAD
:103DF00078782C78782C78782C2530325820200D43
:103E00000A0052585F5069706535204164647273CE
:103E10003A0D0A090978782C78782C78782C7878FB
:103E20002C2530325820200D0A0052585F50575F21
:103E300050303A0D0A0909256420627974657320AF
:103E40000D0A0052585F50575F50313A0D0A090968
:103E50002564206279746573200D0A0052585F5002
:103E6000575F50323A0D0A0909256420627974655A
:103E700073200D0A0052585F50575F50333A0D0AB5
:103E800009092564206279746573200D0A0052586F
:103E90005F50575F50343A0D0A0909256420627952
:103EA000746573200D0A0052585F50575F50353AC1
:103EB0000D0A09092564206279746573200D0A00D2
:103EC000454E41413A0D0A090950303A0925640D21
:103ED0000A090950313A0925640D0A090950323A94
:103EE0000925640D0A090950333A0925640D0A09A8
:103EF0000950343A0925640D0A090950353A092553
:103F0000640D0A00454E5F5258414444523A0D0A2E
:103F1000090950303A0925640D0A090950313A0956
:103F200025640D0A090950323A0925640D0A090968
:103F300050333A0925640D0A090950343A092564B9
:103F40000D0A090950353A0925640D0A0044594EF5
:103F500050445F706970653A0D0A090950303A099A
:103F600025640D0A090950313A0925640D0A090929
:103F700050323A0925640D0A090950333A0925647B
:103F80000D0A090950343A0925640D0A090950350A
:103F90003A0925640D0A000052465F5057523A0D07
:103FA0000A0909306442200D0A00000052465F50A1
:103FB00057523A0D0A09092D31326442200D0A0088
:103FC00052465F5057523A0D0A09092D3664422075
:103FD0000D0A000052465F5057523A0D0A09092D4A
:103FE00031386442200D0A00454E5F44504C3A0D72
:103FF0000A0909456E61626C6564200D0A000000C3
:10400000454E5F41434B5F5041593A0D0A090945FE
:104010006E61626C6564200D0A000000454E5F44CD
:10402000504C3A0D0A090944697361626C65642059
:104030000D0A0000454E5F41434B5F5041593A0D18
:104040000A090944697361626C6564200D0A000005
:104050004461746120526174653A0D0A0909314D59
:10406000627073200D0A00000D0A2A2A2A2A2A2AC1
:104070002A2A2A2A2A2A2A2A2A2A2A2A2A2A2A2AA0
:104080002A2A2A2A2A2A2A2A2A2A2A2A2A2A2A2A90
:104090002A2A2A2A2A2A2A2A0D0A0000C0400008B1
:1040A0000000002018000000C4010008D8400008EB
:1040B00018000020E8070000E001000800000000F0
:1040C0000100000010000000EEDDCCBBAA000000E3
:0840D0000024F40000000000D0
:040000050800018965
:00000001FF
